:100000000C9435000C945D000C945D000C945D0024
:100010000C945D000C945D000C945D000C945D00EC
:100020000C945D000C945D000C945D000C945D00DC
:100030000C945D000C945D000C945D000C945D00CC
:100040000C943A100C945D000C94FB0D0C942D0E46
:100050000C945D000C945D000C945D000C945D00AC
:100060000C945D000C945D005D0E11241FBECFEF5B
:10007000D8E0DEBFCDBF12E0A0E0B1E0E2E4F6E2FE
:1000800002C005900D92A239B107D9F723E0A2E989
:10009000B2E001C01D92AC33B207E1F710E0CAE64E
:1000A000D0E004C02297FE010E94E310C836D107B9
:1000B000C9F70E9427100C941F130C94000026E02F
:1000C00040E855E260E070E082E992E00C94990D1E
:1000D000CF93DF93CDB7DEB764970FB6F894DEBF4A
:1000E0000FBECDBFCE0143960E94E70366E071E0EC
:1000F000CE010D960E94820F63EF71E0CE0107964C
:100100000E94820FAE01495F5F4FBE016D5E7F4F5F
:10011000CE0101960E94CB02BE016F5F7F4FCE01E0
:100120000D960E94FC0FCE0101960E94140FCE0185
:1001300007960E94140F66EE71E0CE0107960E94AA
:10014000820FAE01495F5F4FBE016D5E7F4FCE01F2
:1001500001960E94CB02BE016F5F7F4FCE010D96CC
:100160000E94FC0FCE0101960E94140FCE0107964B
:100170000E94140F67E571E0CE0107960E94820F7E
:10018000AE01495F5F4FBE016D5E7F4FCE010196AC
:100190000E94CB02BE016F5F7F4FCE010D960E9481
:1001A000FC0FCE0101960E94140FCE0107960E940B
:1001B000140F68E071E082E992E00E94020F67E5A7
:1001C00071E0CE0107960E94820FAE01495F5F4F3A
:1001D000BE016D5E7F4FCE0101960E94CB02BE0133
:1001E0006F5F7F4FCE010D960E94FC0FCE010196EE
:1001F0000E94140FCE0107960E94140F6FE672E062
:10020000CE0107960E94820FAE01495F5F4FBE018B
:100210006D5E7F4FCE0101960E94CB02BE016F5FE3
:100220007F4FCE010D960E94FC0FCE0101960E94D9
:10023000140FCE0107960E94140F6BE171E0CE01FE
:100240000D960E9403106DE172E0CE0107960E94A8
:10025000820FAE01495F5F4FBE016D5E7F4FCE01E1
:1002600001960E94CB02BE016F5F7F4FCE010D96BB
:100270000E94FC0FCE0101960E94140FCE0107963A
:100280000E94140F6FE672E0CE0107960E94820F63
:10029000AE01495F5F4FBE016D5E7F4FCE0101969B
:1002A0000E94CB02BE016F5F7F4FCE010D960E9470
:1002B000FC0FCE0101960E94140FCE0107960E94FA
:1002C000140F6BEC71E0CE0107960E94820FAE0115
:1002D000495F5F4FBE016D5E7F4FCE0101960E9468
:1002E000CB02BE016F5F7F4FCE010D960E94FC0FC7
:1002F000CE0101960E94140FCE0107960E94140FA2
:1003000067E571E0CE0107960E94820FAE01495F5A
:100310005F4FBE016D5E7F4FCE0101960E94CB0202
:10032000BE016F5F7F4FCE010D960E94FC0FCE0184
:1003300001960E94140FCE0107960E94140F69E5E2
:1003400072E0CE0107960E94820FAE01495F5F4FB7
:10035000BE016D5E7F4FCE0101960E94CB02BE01B1
:100360006F5F7F4FCE010D960E94FC0FCE0101966C
:100370000E94140FCE0107960E94140FBE01635F06
:100380007F4F82E992E00E94F00ECE010D960E940E
:10039000140FCE0143960E94FA0164960FB6F894AA
:1003A000DEBF0FBECDBFDF91CF9108950F931F9396
:1003B000CF93DF938C01EB012097B9F06C857D859D
:1003C0000E94D6016E857F85C8010E94D601CE01AC
:1003D00006960E94140FCE010E94140FCE01DF91E9
:1003E000CF911F910F910C943810DF91CF911F91F5
:1003F0000F910895FC01608171810C94D6017F9268
:100400008F929F92AF92BF92CF92DF92EF92FF9224
:100410000F931F93CF93DF93CDB7DEB72C970FB613
:10042000F894DEBF0FBECDBF6C015B018A0179017C
:10043000FB01808191814817590789F460E070E0E1
:10044000C9010E9424108E3209F447C060E070E0B8
:10045000C7010E9424108D3209F088C024C04115C4
:10046000510509F47EC0FA0162857385F901848122
:1004700095818617970729F4BA01C6010E94AF0F2C
:1004800075C0C9010E942410782E4801F6E08F0E35
:10049000911CF8016285738561507109C4010E9445
:1004A000241078164CF4B701CE0101960E94AF0FCC
:1004B000F8014485558519C0F80162857385C70127
:1004C0000E942410782EF8016285738561507109AD
:1004D000C4010E9424108715A4F4B701CE0101962F
:1004E0000E94AF0FF801468557859E012F5F3F4F51
:1004F000B501C6010E94FF01CE0101960E94140FB2
:1005000035C0F80162857385C7010E9424108E32C0
:1005100049F4B701CE0107960E94AF0FF801468556
:10052000578510C0F80162857385C7010E942410A9
:100530008D32E1F4B701CE0107960E94AF0FF801AA
:10054000448555859E01295F3F4FB501CE01019637
:100550000E94FF01CE0101960E94140FCE01079662
:10056000CDCF6DE171E0C6010E94820FC6012C96CD
:100570000FB6F894DEBF0FBECDBFDF91CF911F91B4
:100580000F91FF90EF90DF90CF90BF90AF909F9032
:100590008F907F900895EF92FF920F931F93CF93C8
:1005A000DF9300D000D000D0CDB7DEB78C017B0147
:1005B000BA01CE0101960E94AF0FF701408151812F
:1005C0009E012F5F3F4FB701C8010E94FF01CE017E
:1005D00001960E94140FC80126960FB6F894DEBF4C
:1005E0000FBECDBFDF91CF911F910F91FF90EF9084
:1005F00008958F929F92AF92BF92CF92DF92EF9227
:10060000FF920F931F93CF93DF93CDB7DEB72C9755
:100610000FB6F894DEBF0FBECDBF5C016B017A014F
:100620008901D9012D913C91FC018081918128178C
:100630003907B9F560E070E0CA010E9424108E32DB
:1006400039F4D8018D909C90BEE08B0E911C0DC0AA
:1006500060E070E0C7010E9424108D3211F5F801AE
:1006600080809180FCE08F0E911CB701CE01019635
:100670000E94AF0FB601CE0107960E94AF0F940102
:10068000AE014F5F5F4FBE01695F7F4FC5010E94A2
:10069000F902CE0107960E94140FCE0101960E9426
:1006A000140FD801ED91FC91309709F44EC062858A
:1006B0007385C7010E942410982ED801ED91FC91FA
:1006C0006285738561507109CF0106960E942410DE
:1006D000D801ED91FC91981624F48F01045F1F4F0F
:1006E00019C062857385C7010E942410982ED80115
:1006F000ED91FC916285738561507109CF01069679
:100700000E94241089150CF04FC0F801008111815E
:10071000025F1F4FB701CE0101960E94AF0FB601D5
:10072000CE0107960E94AF0F9801AE014F5F5F4F59
:10073000BE01695F7F4FC5010E94F902CE01079695
:100740000E94140FCE0101962DC0B601CE0107966E
:100750000E94AF0FB701CE0101960E94AF0F80E15A
:1007600090E00E9436107C01BE01695F7F4F0E94BD
:10077000AF0FBE016F5F7F4FC70106960E94AF0F9C
:10078000D7011D961C921E921C971F961C921E92BA
:100790001E97F801F182E082CE0101960E94140FAB
:1007A000CE0107960E94140F2C960FB6F894DEBF68
:1007B0000FBECDBFDF91CF911F910F91FF90EF90B2
:1007C000DF90CF90BF90AF909F908F9008956F92E1
:1007D0007F928F929F92AF92BF92CF92DF92EF92D1
:1007E000FF920F931F93CF93DF93CDB7DEB7689738
:1007F0000FB6F894DEBF0FBECDBF8C014E0183E172
:10080000880E911C65E872E0C4010E94820F5E01AF
:100810009DE0A90EB11C65E872E0C5010E94820F3F
:100820007E01E7E0EE0EF11CB401C7010E94AF0F9C
:10083000B501CE0101966C010E94AF0F80E190E0FE
:100840000E9436103C01B7010E94AF0FB601C301F0
:1008500006960E94AF0FF30115861486178616863A
:10086000F80171826082C6010E94140FC7010E94C4
:10087000140F6AE371E0C4010E94B80F66EE71E0E4
:10088000C5010E94B80FB501C6010E94AF0FB401A7
:10089000C7010E94AF0F9801A601B701C8010E94CD
:1008A000F902C7010E94140FC6010E94140F6CE3E5
:1008B00071E0C4010E94B80F6AE572E0C5010E94B0
:1008C000B80FB501C6010E94AF0FB401C7010E9465
:1008D000AF0F9801A601B701C8010E94F902C70134
:1008E0000E94140FC6010E94140F6EE371E0C40150
:1008F0000E94B80F62E672E0C5010E94B80FB50110
:10090000C6010E94AF0FB401C7010E94AF0F98014A
:10091000A601B701C8010E94F902C7010E94140F85
:10092000C6010E94140F67E672E0C4010E94B80F6E
:1009300063EF71E0C5010E94B80FB501C6010E94C6
:10094000AF0FB401C7010E94AF0F9801A601B70114
:10095000C8010E94F902C7010E94140FC6010E943B
:10096000140F60E471E0C4010E94B80F62E471E00A
:10097000C5010E94B80FB501C6010E94AF0FB401B6
:10098000C7010E94AF0F9801A601B701C8010E94DC
:10099000F902C7010E94140FC6010E94140F68E4F7
:1009A00071E0C4010E94B80F6BEF71E0C5010E94B5
:1009B000B80FB501C6010E94AF0FB401C7010E9474
:1009C000AF0F9801A601B701C8010E94F902C70143
:1009D0000E94140FC6010E94140F6AE471E0C40162
:1009E0000E94B80F62E072E0C5010E94B80FB50125
:1009F000C6010E94AF0FB401C7010E94AF0F98015A
:100A0000A601B701C8010E94F902C7010E94140F94
:100A1000C6010E94140F6CE471E0C4010E94B80F7B
:100A20006FE471E0C5010E94B80FB501C6010E94D4
:100A3000AF0FB401C7010E94AF0F9801A601B70123
:100A4000C8010E94F902C7010E94140FC6010E944A
:100A5000140F65E872E0C4010E94B80F65E571E00B
:100A6000C5010E94B80FB501C6010E94AF0FB401C5
:100A7000C7010E94AF0F9801A601B701C8010E94EB
:100A8000F902C7010E94140FC6010E94140F6CE501
:100A900071E0C4010E94B80F6EE571E0C5010E94CB
:100AA000B80FB501C6010E94AF0FB401C7010E9483
:100AB000AF0F9801A601B701C8010E94F902C70152
:100AC0000E94140FC6010E94140F66E671E0C40173
:100AD0000E94B80F68E671E0C5010E94B80FB50129
:100AE000C6010E94AF0FB401C7010E94AF0F980169
:100AF000A601B701C8010E94F902C7010E94140FA4
:100B0000C6010E94140F6EE671E0C4010E94B80F86
:100B100061E472E0C5010E94B80FB501C6010E94F0
:100B2000AF0FB401C7010E94AF0F9801A601B70132
:100B3000C8010E94F902C7010E94140FC6010E9459
:100B4000140F60E771E0C4010E94B80F6DEA71E014
:100B5000C5010E94B80FB501C6010E94AF0FB401D4
:100B6000C7010E94AF0F9801A601B701C8010E94FA
:100B7000F902C7010E94140FC6010E94140F62E718
:100B800071E0C4010E94B80F66E571E0C5010E94E2
:100B9000B80FB501C6010E94AF0FB401C7010E9492
:100BA000AF0F9801A601B701C8010E94F902C70161
:100BB0000E94140FC6010E94140F65E771E0C40182
:100BC0000E94B80F69E472E0C5010E94B80FB50138
:100BD000C6010E94AF0FB401C7010E94AF0F980178
:100BE000A601B701C8010E94F902C7010E94140FB3
:100BF000C6010E94140F68E771E0C4010E94B80F9B
:100C00006BE771E0C5010E94B80FB501C6010E94F3
:100C1000AF0FB401C7010E94AF0F9801A601B70141
:100C2000C8010E94F902C7010E94140FC6010E9468
:100C3000140F61E871E0C4010E94B80F63E871E02D
:100C4000C5010E94B80FB501C6010E94AF0FB401E3
:100C5000C7010E94AF0F9801A601B701C8010E9409
:100C6000F902C7010E94140FC6010E94140F6AE81E
:100C700071E0C4010E94B80F6CE871E0C5010E94E8
:100C8000B80FB501C6010E94AF0FB401C7010E94A1
:100C9000AF0F9801A601B701C8010E94F902C70170
:100CA0000E94140FC6010E94140F63E971E0C40191
:100CB0000E94B80F65E971E0C5010E94B80FB50147
:100CC000C6010E94AF0FB401C7010E94AF0F980187
:100CD000A601B701C8010E94F902C7010E94140FC2
:100CE000C6010E94140F6BE971E0C4010E94B80FA5
:100CF00062E372E0C5010E94B80FB501C6010E940F
:100D0000AF0FB401C7010E94AF0F9801A601B70150
:100D1000C8010E94F902C7010E94140FC6010E9477
:100D2000140F6DE971E0C4010E94B80F6BEC71E023
:100D3000C5010E94B80FB501C6010E94AF0FB401F2
:100D4000C7010E94AF0F9801A601B701C8010E9418
:100D5000F902C7010E94140FC6010E94140F6FE927
:100D600071E0C4010E94B80F67E571E0C5010E94FF
:100D7000B80FB501C6010E94AF0FB401C7010E94B0
:100D8000AF0F9801A601B701C8010E94F902C7017F
:100D90000E94140FC6010E94140F61EA71E0C401A1
:100DA0000E94B80F63EA71E0C5010E94B80FB50157
:100DB000C6010E94AF0FB401C7010E94AF0F980196
:100DC000A601B701C8010E94F902C7010E94140FD1
:100DD000C6010E94140F62E771E0C4010E94B80FBF
:100DE00060E671E0C5010E94B80FB501C6010E941E
:100DF000AF0FB401C7010E94AF0F9801A601B70160
:100E0000C8010E94F902C7010E94140FC6010E9486
:100E1000140F69EA71E0C4010E94B80F6BEA71E037
:100E2000C5010E94B80FB501C6010E94AF0FB40101
:100E3000C7010E94AF0F9801A601B701C8010E9427
:100E4000F902C7010E94140FC6010E94140F62EB41
:100E500071E0C4010E94B80F67EB71E0C5010E9408
:100E6000B80FB501C6010E94AF0FB401C7010E94BF
:100E7000AF0F9801A601B701C8010E94F902C7018E
:100E80000E94140FC6010E94140F66E071E0C401B5
:100E90000E94B80F62E172E0C5010E94B80FB5016F
:100EA000C6010E94AF0FB401C7010E94AF0F9801A5
:100EB000A601B701C8010E94F902C7010E94140FE0
:100EC000C6010E94140F66EE71E0C4010E94B80FC3
:100ED00065EB71E0C5010E94B80FB501C6010E9423
:100EE000AF0FB401C7010E94AF0F9801A601B7016F
:100EF000C8010E94F902C7010E94140FC6010E9496
:100F0000140F6CEB71E0C4010E94B80F6DE172E048
:100F1000C5010E94B80FB501C6010E94AF0FB40110
:100F2000C7010E94AF0F9801A601B701C8010E9436
:100F3000F902C7010E94140FC6010E94140F6EEB44
:100F400071E0C4010E94B80F67E272E0C5010E941F
:100F5000B80FB501C6010E94AF0FB401C7010E94CE
:100F6000AF0F9801A601B701C8010E94F902C7019D
:100F70000E94140FC6010E94140F60EC71E0C401BE
:100F80000E94B80F64E871E0C5010E94B80FB50176
:100F9000C6010E94AF0FB401C7010E94AF0F9801B4
:100FA000A601B701C8010E94F902C7010E94140FEF
:100FB000C6010E94140F63EC71E0C4010E94B80FD7
:100FC0006FE272E0C5010E94B80FB501C6010E9430
:100FD000AF0FB401C7010E94AF0F9801A601B7017E
:100FE000C8010E94F902C7010E94140FC6010E94A5
:100FF000140F66EC71E0C4010E94B80F68EC71E058
:10100000C5010E94B80FB501C6010E94AF0FB4011F
:10101000C7010E94AF0F9801A601B701C8010E9445
:10102000F902C7010E94140FC6010E94140F6FEC51
:1010300071E0C4010E94B80F66E971E0C5010E9429
:10104000B80FB501C6010E94AF0FB401C7010E94DD
:10105000AF0F9801A601B701C8010E94F902C701AC
:101060000E94140FC6010E94140F61E772E0C401D0
:101070000E94B80F61ED71E0C5010E94B80FB50183
:10108000C6010E94AF0FB401C7010E94AF0F9801C3
:10109000A601B701C8010E94F902C7010E94140FFE
:1010A000C6010E94140F67ED71E0C4010E94B80FE1
:1010B00069ED71E0C5010E94B80FB501C6010E943B
:1010C000AF0FB401C7010E94AF0F9801A601B7018D
:1010D000C8010E94F902C7010E94140FC6010E94B4
:1010E000140F6FED71E0C4010E94B80F61EE71E062
:1010F000C5010E94B80FB501C6010E94AF0FB4012F
:10110000C7010E94AF0F9801A601B701C8010E9454
:10111000F902C7010E94140FC6010E94140F68EE65
:1011200071E0C4010E94B80F61E772E0C5010E943E
:10113000B80FB501C6010E94AF0FB401C7010E94EC
:10114000AF0F9801A601B701C8010E94F902C701BB
:101150000E94140FC6010E94140F6AEE71E0C401D0
:101160000E94B80F65EE71E0C5010E94B80FB5018D
:10117000C6010E94AF0FB401C7010E94AF0F9801D2
:10118000A601B701C8010E94F902C7010E94140F0D
:10119000C6010E94140F6CEE71E0C4010E94B80FEA
:1011A00069E572E0C5010E94B80FB501C6010E9451
:1011B000AF0FB401C7010E94AF0F9801A601B7019C
:1011C000C8010E94F902C7010E94140FC6010E94C3
:1011D000140F6EEE71E0C4010E94B80F61E672E078
:1011E000C5010E94B80FB501C6010E94AF0FB4013E
:1011F000C7010E94AF0F9801A601B701C8010E9464
:10120000F902C7010E94140FC6010E94140F60EF7B
:1012100071E0C4010E94B80F62EF71E0C5010E9445
:10122000B80FB501C6010E94AF0FB401C7010E94FB
:10123000AF0F9801A601B701C8010E94F902C701CA
:101240000E94140FC6010E94140F68EF71E0C401E0
:101250000E94B80F6AEF71E0C5010E94B80FB50196
:10126000C6010E94AF0FB401C7010E94AF0F9801E1
:10127000A601B701C8010E94F902C7010E94140F1C
:10128000C6010E94140F68EF71E0C4010E94B80FFC
:1012900061E072E0C5010E94B80FB501C6010E946D
:1012A000AF0FB401C7010E94AF0F9801A601B701AB
:1012B000C8010E94F902C7010E94140FC6010E94D2
:1012C000140F67E072E0C4010E94B80F60E472E09E
:1012D000C5010E94B80FB501C6010E94AF0FB4014D
:1012E000C7010E94AF0F9801A601B701C8010E9473
:1012F000F902C7010E94140FC6010E94140F69E091
:1013000072E0C4010E94B80F6CEA71E0C5010E944E
:10131000B80FB501C6010E94AF0FB401C7010E940A
:10132000AF0F9801A601B701C8010E94F902C701D9
:101330000E94140FC6010E94140F6BE072E0C401FA
:101340000E94B80F61E372E0C5010E94B80FB501B9
:10135000C6010E94AF0FB401C7010E94AF0F9801F0
:10136000A601B701C8010E94F902C7010E94140F2B
:10137000C6010E94140F6DE072E0C4010E94B80F14
:101380006AEC71E0C5010E94B80FB501C6010E9468
:10139000AF0FB401C7010E94AF0F9801A601B701BA
:1013A000C8010E94F902C7010E94140FC6010E94E1
:1013B000140F65E872E0C4010E94B80F66EB71E09B
:1013C000C5010E94B80FB501C6010E94AF0FB4015C
:1013D000C7010E94AF0F9801A601B701C8010E9482
:1013E000F902C7010E94140FC6010E94140F6FE09A
:1013F00072E0C4010E94B80F61E172E0C5010E9471
:10140000B80FB501C6010E94AF0FB401C7010E9419
:10141000AF0F9801A601B701C8010E94F902C701E8
:101420000E94140FC6010E94140F68E172E0C4010B
:101430000E94B80F6AE172E0C5010E94B80FB501C1
:10144000C6010E94AF0FB401C7010E94AF0F9801FF
:10145000A601B701C8010E94F902C7010E94140F3A
:10146000C6010E94140F61E272E0C4010E94B80F2D
:101470006CE172E0C5010E94B80FB501C6010E947F
:10148000AF0FB401C7010E94AF0F9801A601B701C9
:10149000C8010E94F902C7010E94140FC6010E94F0
:1014A000140F63E272E0C4010E94B80F66E272E0BA
:1014B000C5010E94B80FB501C6010E94AF0FB4016B
:1014C000C7010E94AF0F9801A601B701C8010E9491
:1014D000F902C7010E94140FC6010E94140F6CE2AA
:1014E00072E0C4010E94B80F6EE272E0C5010E9472
:1014F000B80FB501C6010E94AF0FB401C7010E9429
:10150000AF0F9801A601B701C8010E94F902C701F7
:101510000E94140FC6010E94140F65E372E0C4011B
:101520000E94B80FB501C6010E94AF0FB401C701F8
:101530000E94AF0F9801A601B701C8010E94F902ED
:10154000C7010E94140FC6010E94140F67E372E0E6
:10155000C4010E94B80F60E772E0C5010E94B80F95
:10156000B501C6010E94AF0FB401C7010E94AF0FC1
:101570009801A601B701C8010E94F902C7010E94A3
:10158000140FC6010E94140F69E372E0C4010E94A7
:10159000B80F64EE71E0C5010E94B80FB501C60135
:1015A0000E94AF0FB401C7010E94AF0F9801A601BE
:1015B000B701C8010E94F902C7010E94140FC601B9
:1015C0000E94140F6BE372E0C4010E94B80F68E53B
:1015D00072E0C5010E94B80FB501C6010E94AF0FAD
:1015E000B401C7010E94AF0F9801A601B701C8015D
:1015F0000E94F902C7010E94140FC6010E94140F35
:101600006DE372E0C4010E94B80F60E672E0C501AC
:101610000E94B80FB501C6010E94AF0FB401C70107
:101620000E94AF0F9801A601B701C8010E94F902FC
:10163000C7010E94140FC6010E94140F65E872E0F2
:10164000C4010E94B80F6FE372E0C5010E94B80F99
:10165000B501C6010E94AF0FB401C7010E94AF0FD0
:101660009801A601B701C8010E94F902C7010E94B2
:10167000140FC6010E94140F65E472E0C4010E94B9
:10168000B80F67E472E0C5010E94B80FB501C6014A
:101690000E94AF0FB401C7010E94AF0F9801A601CD
:1016A000B701C8010E94F902C7010E94140FC601C8
:1016B0000E94140F6EE472E0C4010E94B80F60E350
:1016C00072E0C5010E94B80FB501C6010E94AF0FBC
:1016D000B401C7010E94AF0F9801A601B701C8016C
:1016E0000E94F902C7010E94140FC6010E94140F44
:1016F00060E572E0C4010E94B80F6FE672E0C501B8
:101700000E94B80FB501C6010E94AF0FB401C70116
:101710000E94AF0F9801A601B701C8010E94F9020B
:10172000C7010E94140FC6010E94140F62E572E007
:10173000C4010E94B80F63EE71E0C5010E94B80FAA
:10174000B501C6010E94AF0FBE016D5E7F4FCE0195
:1017500007960E94AF0F9801AE014F5F5F4FBE0129
:10176000695F7F4FC8010E94F902CE0107960E946F
:10177000140FCE0101960E94140F65E572E0CE01B0
:1017800043960E94B80F67E572E0CE010D960E9465
:10179000B80FBE01635F7F4FCE0101960E94AF0F6D
:1017A000BE016D5E7F4FCE0107960E94AF0F98017C
:1017B000AE014F5F5F4FBE01695F7F4FC8010E945E
:1017C000F902CE0107960E94140FCE0101960E94E5
:1017D000140F6DE572E0CE0143960E94B80F6FE5DD
:1017E00072E0CE010D960E94B80FBE01635F7F4F7D
:1017F000CE0101960E94AF0FBE016D5E7F4FCE01FC
:1018000007960E94AF0F9801AE014F5F5F4FBE0178
:10181000695F7F4FC8010E94F902CE0107960E94BE
:10182000140FCE0101960E94140F66E672E0CE01FD
:1018300043960E94B80F6EE672E0CE010D960E94AC
:10184000B80FBE01635F7F4FCE0101960E94AF0FBC
:10185000BE016D5E7F4FCE0107960E94AF0F9801CB
:10186000AE014F5F5F4FBE01695F7F4FC8010E94AD
:10187000F902CE0107960E94140FCE0101960E9434
:10188000140F69E672E0CE0143960E94B80F62EE33
:1018900071E0CE010D960E94B80FBE01635F7F4FCD
:1018A000CE0101960E94AF0FBE016D5E7F4FCE014B
:1018B00007960E94AF0F9801AE014F5F5F4FBE01C8
:1018C000695F7F4FC8010E94F902CE0107960E940E
:1018D000140FCE0101960E94140F6BE672E0CE0148
:1018E00043960E94B80F6DE672E0CE010D960E94FD
:1018F000B80FBE01635F7F4FCE0101960E94AF0F0C
:10190000BE016D5E7F4FCE0107960E94AF0F98011A
:10191000AE014F5F5F4FBE01695F7F4FC8010E94FC
:10192000F902CE0107960E94140FCE0101960E9483
:10193000140FCE010D960E94140FCE0143960E9403
:10194000140F68960FB6F894DEBF0FBECDBFDF91BF
:10195000CF911F910F91FF90EF90DF90CF90BF90AC
:10196000AF909F908F907F906F900895FC01818D34
:10197000228D90E0805C9F4F821B91098F73992785
:101980000895FC01918D828D981731F0828DE80FBA
:10199000F11D858D90E008958FEF9FEF0895FC0174
:1019A000918D828D981761F0828DDF01A80FB11D96
:1019B0005D968C91928D9F5F9F73928F90E00895BA
:1019C0008FEF9FEF089583E59EE0892B49F080E03B
:1019D00090E0892B29F00E94530E81110C94000095
:1019E0000895FC01848DDF01A80FB11DA35ABF4FDC
:1019F0002C91848D90E001968F739927848FA6890E
:101A0000B7892C93A089B1898C9180648C93938D34
:101A1000848D981306C00288F389E02D80818F7D24
:101A200080830895CF93DF93EC01888D8823C9F0DC
:101A3000EA89FB89808185FD05C0A889B9898C91D7
:101A400086FD0FC00FB607FCF5CF808185FFF2CF72
:101A5000A889B9898C9185FFEDCFCE010E94F10C48
:101A6000E7CFDF91CF910895CF92DF92FF920F934E
:101A70001F93CF93DF931F92CDB7DEB76C0181E048
:101A8000D60158968C9358975B969C915B975C9681
:101A90008C915C97981307C05096ED91FC915197EB
:101AA000808185FD2EC0F601038D10E00F5F1F4F72
:101AB0000F731127F02EF601848DF81211C00FB6A6
:101AC00007FCF9CFD6015096ED91FC91519780819A
:101AD00085FFF1CFC60169830E94F10C6981EBCFCC
:101AE000838DE80FF11DE35AFF4F6083D6015B96AB
:101AF0000C935B975296ED91FC9153978081806295
:101B00000CC0D6015696ED91FC9157976083509684
:101B1000ED91FC91519780818064808381E090E019
:101B20000F90DF91CF911F910F91FF90DF90CF9099
:101B30000895BF92CF92DF92EF92FF92CF93DF93FF
:101B4000EC016A017B01B22EE889F98982E0808389
:101B5000411581EE580761057105A1F060E079E05B
:101B60008DE390E0A70196010E94BF10215031093A
:101B7000410951095695479537952795211580E1DB
:101B8000380798F0E889F989108260E874E88EE1F6
:101B900090E0A70196010E94BF1021503109410930
:101BA00051095695479537952795EC85FD853083E6
:101BB000EE85FF852083188EEC89FD89B082EA8945
:101BC000FB89808180618083EA89FB8980818860CC
:101BD0008083EA89FB89808180688083EA89FB8928
:101BE00080818F7D8083DF91CF91FF90EF90DF9098
:101BF000CF90BF9008951F920F920FB60F921124AD
:101C00002F938F939F93EF93FF93E091A202F09114
:101C1000A3028081E091A802F091A90282FD12C086
:101C200090818091AB028F5F8F732091AC028217FD
:101C300051F0E091AB02F0E0EE56FD4F958F8093AE
:101C4000AB0201C08081FF91EF919F918F912F9105
:101C50000F900FBE0F901F9018951F920F920FB606
:101C60000F9211242F933F934F935F936F937F9322
:101C70008F939F93AF93BF93EF93FF9382E992E08B
:101C80000E94F10CFF91EF91BF91AF919F918F91C5
:101C90007F916F915F914F913F912F910F900FBE68
:101CA0000F901F90189582E992E00E94B60C21E0F7
:101CB000892B09F420E0822F08951092950210924A
:101CC000940288EE93E0A0E0B0E0809396029093B7
:101CD0009702A0939802B093990287E792E09093BD
:101CE00093028093920285EC90E090939F02809300
:101CF0009E0284EC90E09093A1028093A00280EC7D
:101D000090E09093A3028093A20281EC90E09093E4
:101D1000A5028093A40282EC90E09093A7028093A6
:101D2000A60286EC90E09093A9028093A8021092FC
:101D3000AB021092AC021092AD021092AE02089566
:101D4000CF92DF92EF92FF920F931F93CF93DF9387
:101D50006C017A01EB01E60EF71E00E010E0CE15F3
:101D6000DF0561F06991D601ED91FC910190F08160
:101D7000E02DC6010995080F191FF1CFC801DF91A9
:101D8000CF911F910F91FF90EF90DF90CF9008952A
:101D90006115710581F0DB010D900020E9F7AD01BF
:101DA00041505109461B570BDC01ED91FC9102801B
:101DB000F381E02D099480E090E00895DC01ED913D
:101DC000FC91DB0114964D915C9115976D917C917E
:101DD0000280F381E02D099463E872E00C94C80E50
:101DE0000F931F93CF93DF93EC010E94DE0E8C01C3
:101DF000CE010E94EC0E800F911FDF91CF911F91B9
:101E00000F9108950F931F93CF93DF93EC010E94DE
:101E1000C80E8C01CE010E94EC0E800F911FDF9145
:101E2000CF911F910F910895FC01808191810C94B5
:101E30007F11CF93DF93EC0188819981009711F096
:101E40000E947F11198218821D821C821B821A82B5
:101E5000DF91CF9108950F931F93CF93DF93EC0100
:101E60008B016F5F7F4F888199810E940E120097CE
:101E700031F0998388831B830A8381E001C080E06D
:101E8000DF91CF911F910F910895CF93DF93EC01D4
:101E900088819981892B29F08A819B8186179707F0
:101EA00060F4CE010E942B0F882341F08C819D812C
:101EB000892B19F4E881F981108281E0DF91CF91BB
:101EC0000895EF92FF920F931F93CF93DF93EC014E
:101ED0007B018A01BA010E94450F811104C0CE0125
:101EE0000E94190F07C01D830C83B7018881998157
:101EF0000E94E112CE01DF91CF911F910F91FF90CF
:101F0000EF900895FC0111821082138212821582D3
:101F100014826115710559F0FB0101900020E9F769
:101F2000AF0141505109461B570B0C94610F0895A6
:101F3000CF93DF93EC01FB018617970761F0608177
:101F400071816115710529F0448155810E94610FED
:101F500002C00E94190FCE01DF91CF910895FC01BC
:101F60001182108213821282158214820C94980FAF
:101F7000CF93DF93EC016115710561F0FB010190D6
:101F80000020E9F7AF0141505109461B570B0E9451
:101F9000610F02C00E94190FCE01DF91CF91089509
:101FA000EF92FF920F931F93CF93DF93EC017B018E
:101FB0000C811D816115710511F480E016C0411579
:101FC000510591F0040F151FB8010E94450F882399
:101FD000A1F3288139818C819D81B701820F931FE4
:101FE0000E94E1121D830C8381E0DF91CF911F914C
:101FF0000F91FF90EF900895FB014481558160811E
:1020000071810C94D00F6115710559F0FB0101909D
:102010000020E9F7AF0141505109461B570B0C94C2
:10202000D00F80E00895FC01248135816217730789
:1020300048F480819181009729F0FC01E60FF71F99
:102040008081089580E008950C94131008950E94F3
:1020500084100E9426100E945F00C3EEDCE00E9404
:1020600068002097E1F30E94E30CF9CF0C94E7108D
:102070000C947F111F920F920FB60F9211242F9381
:102080003F938F939F93AF93BF9380913003909131
:102090003103A0913203B091330330912F0323E039
:1020A000230F2D3720F40196A11DB11D05C026E890
:1020B000230F0296A11DB11D20932F03809330039F
:1020C00090933103A0933203B09333038091340390
:1020D00090913503A0913603B09137030196A11D6D
:1020E000B11D8093340390933503A0933603B093CE
:1020F0003703BF91AF919F918F913F912F910F9097
:102100000FBE0F901F901895789484B5826084BD9F
:1021100084B5816084BD85B5826085BD85B58160EB
:1021200085BDEEE6F0E0808181608083E1E8F0E04B
:102130001082808182608083808181608083E0E87A
:10214000F0E0808181608083E1EBF0E08081846059
:102150008083E0EBF0E0808181608083EAE7F0E05B
:1021600080818460808380818260808380818160BF
:1021700080838081806880831092C1000895A1E2ED
:102180001A2EAA1BBB1BFD010DC0AA1FBB1FEE1FF1
:10219000FF1FA217B307E407F50720F0A21BB30B3C
:1021A000E40BF50B661F771F881F991F1A9469F7B8
:1021B00060957095809590959B01AC01BD01CF0114
:1021C0000895EE0FFF1F0590F491E02D0994CF9331
:1021D000DF938230910510F482E090E0E0913A03C1
:1021E000F0913B0320E030E0A0E0B0E0309739F11F
:1021F0004081518148175907B8F04817590771F4C1
:1022000082819381109729F013969C938E93129755
:102210002CC090933B0380933A0327C021153105CE
:1022200031F04217530718F0A901DB0101C0EF019B
:102230009A01BD01DF010280F381E02DD7CF211586
:102240003105F9F0281B390B2430310580F48A81DF
:102250009B816115710521F0FB019383828304C08A
:1022600090933B0380933A03FE01329644C0FE01F3
:10227000E20FF31F81939193225031093983288310
:102280003AC02091380330913903232B41F4209137
:1022900002013091030130933903209338032091D8
:1022A0000001309101012115310541F42DB73EB7F0
:1022B0004091040150910501241B350BE091380336
:1022C000F0913903E217F307A0F42E1B3F0B2817F8
:1022D000390778F0AC014E5F5F4F2417350748F09F
:1022E0004E0F5F1F509339034093380381939193AE
:1022F00002C0E0E0F0E0CF01DF91CF910895CF93ED
:10230000DF93009709F487C0FC0132971382128291
:10231000C0913A03D0913B03209781F42081318111
:10232000280F391F80913803909139038217930742
:1023300079F5F0933903E09338036DC0DE0120E0B6
:1023400030E0AE17BF0750F412964D915C91139791
:102350009D014115510509F1DA01F3CFB383A28341
:1023600040815181840F951F8A179B0771F48D91CD
:102370009C911197840F951F0296918380831296EA
:102380008D919C911397938382832115310529F4B4
:10239000F0933B03E0933A033EC0D9011396FC93BC
:1023A000EE9312974D915D91A40FB51FEA17FB07AD
:1023B00079F480819181840F951F0296D90111963D
:1023C0009C938E938281938113969C938E93129704
:1023D000E0E0F0E08A819B81009719F0FE01EC01BA
:1023E000F9CFCE01029628813981820F931F209167
:1023F0003803309139032817390769F4309729F4E5
:1024000010923B0310923A0302C013821282D093BF
:102410003903C0933803DF91CF910895A0E0B0E075
:10242000E4E1F2E10C94EC12EC01CB01209719F4F9
:102430000E94E710B8C0FE01E60FF71F9E01225070
:102440003109E217F30708F4ACC0D9010D911C91D2
:10245000119706171707B8F00530110508F49FC04B
:10246000A801445051094617570708F498C0025074
:102470001109061B170B019311936D937C93CF01E8
:102480000E947F118CC05B01A01AB10A4E01800E20
:10249000911EA0913A03B0913B03612C712C60E036
:1024A00070E0109709F449C0A815B905C9F5ED9079
:1024B000FC901197670142E0C40ED11CCA14DB04E2
:1024C00078F147018A189B08640142E0C40ED11CD0
:1024D0001296BC9012971396AC91B5E0CB16D1042E
:1024E00040F0B282A38391828082D9018D939C9324
:1024F00009C00E5F1F4F0E0D1F1DF90111830083D0
:10250000EB2DFA2F6115710531F0DB011396FC9369
:10251000EE93129744C0F0933B03E0933A033FC01D
:102520006D917C9111976616770608F43B01BD0109
:1025300012960D90BC91A02DB4CF6091380370918C
:10254000390368157905E9F468167906D0F44091E5
:102550000001509101014115510541F44DB75EB79D
:102560006091040170910501461B570BE417F507B4
:10257000C0F4F0933903E0933803F9019183808329
:102580000EC00E94E7107C01009759F0A801BE011F
:102590000E94D812CE010E947F11C70104C0CE0153
:1025A00002C080E090E0CDB7DEB7EEE00C940813F7
:1025B000FB01DC0102C001900D9241505040D8F760
:1025C0000895FB01DC0101900D920020E1F70895D0
:1025D0002F923F924F925F926F927F928F929F9233
:1025E000AF92BF92CF92DF92EF92FF920F931F9321
:1025F000CF93DF93CDB7DEB7CA1BDB0B0FB6F894D2
:10260000DEBF0FBECDBF09942A88398848885F8411
:102610006E847D848C849B84AA84B984C884DF8082
:10262000EE80FD800C811B81AA81B981CE0FD11D66
:102630000FB6F894DEBF0FBECDBFED010895F8943C
:02264000FFCFCA
:1026420000003C0380002B00676574646174613391
:102652002066696E69736865642E00200045727297
:102662006F722C20636F756C646E27742066696EBE
:1026720064206C65747465722E0045004900530035
:1026820035002E2E2E2E2E0034005600C59C002E14
:102692002E2E2D2E002E2E2E2D2E2E0024002E2EEE
:1026A2002E2D2E2E2D0033002E2E2E2D2D005500D8
:1026B2004600C38900C39C00C390002E2E2D2D2EF0
:1026C200003F002E2E2D2D2E2E005F002E2E2D2DA2
:1026D2002E2D0032002E2E2D2D2D00410052004CA9
:1026E2000026002E2D2E2E2E0022002E2D2E2E2DD7
:1026F2002E00C384002E2D2E2D2E2D0057005000AB
:10270200C39E00C3810040002E2D2D2E2D2E004A87
:10271200002E2D2D2D2E0031002E2D2D2D2D00279A
:10272200002E2D2D2D2D2E0054004E00440042006F
:1027320036002D2E2E2E2E003D002D2E2E2E2E2D2D
:10274200002D2E2E2E2D0058002F004B0043003B53
:10275200002D2E2D2E2D2E0021002D2E2D2E2D2D35
:10276200005900C4A4002D2E2D2D2E0028002D2E40
:102772002D2D2E2D0029004D0047005A0037002D27
:102782002D2E2E2D002C002D2D2E2E2D2D00510004
:102792004F00C3960038002D2D2D2E2E003A002D0D
:1027A2002D2D2E2E2E00434800390030002D2D2DC8
:1027B2002D2D0000000000340DA00EB60CCF0CC170
:1027C2000C120D0D0A006E616E00696E66006F7666
:0227D20066009F
:00000001FF
