:100000000C9435000C945D000C945D000C945D0024
:100010000C945D000C945D000C945D000C945D00EC
:100020000C945D000C945D000C945D000C945D00DC
:100030000C945D000C945D000C945D000C945D00CC
:100040000C94B10F0C945D000C94720D0C94A40DE3
:100050000C945D000C945D000C945D000C945D00AC
:100060000C945D000C945D00D40D11241FBECFEFE5
:10007000D8E0DEBFCDBF12E0A0E0B1E0E0E3F5E202
:1000800002C005900D92A437B107D9F723E0A4E789
:10009000B2E001C01D92AE31B207E1F710E0CAE64E
:1000A000D0E004C02297FE010E945A10C836D10742
:1000B000C9F70E949E0F0C9496120C94000026E043
:1000C00040E855E260E070E084E792E00C94100DA7
:1000D000CF93DF93CDB7DEB764970FB6F894DEBF4A
:1000E0000FBECDBFCE0143960E944F0366E071E084
:1000F000CE010D960E94F90E65ED71E0CE010796D6
:100100000E94F90EAE01495F5F4FBE016D5E7F4FE9
:10011000CE0101960E946E02BE016F5F7F4FCE013D
:100120000D960E94730FCE0101960E948B0ECE0198
:1001300007960E948B0E60EC71E0CE0107960E943C
:10014000F90EAE01495F5F4FBE016D5E7F4FCE017C
:1001500001960E946E02BE016F5F7F4FCE010D9629
:100160000E94730FCE0101960E948B0ECE0107965E
:100170000E948B0E67E271E0CE0107960E94F90E95
:10018000AE01495F5F4FBE016D5E7F4FCE010196AC
:100190000E946E02BE016F5F7F4FCE010D960E94DE
:1001A000730FCE0101960E948B0ECE0107960E941E
:1001B0008B0E67E271E0CE0107960E94F90EAE0148
:1001C000495F5F4FBE016D5E7F4FCE0101960E9479
:1001D0006E02BE016F5F7F4FCE010D960E94730FBE
:1001E000CE0101960E948B0ECE0107960E948B0EC7
:1001F00061E572E0CE0107960E94F90EAE01495FFB
:100200005F4FBE016D5E7F4FCE0101960E946E0270
:10021000BE016F5F7F4FCE010D960E94730FCE011E
:1002200001960E948B0ECE0107960E948B0E68E00D
:1002300071E0CE010D960E947A0F6FEF71E0CE0152
:1002400007960E94F90EAE01495F5F4FBE016D5ED9
:100250007F4FCE0101960E946E02BE016F5F7F4FFD
:10026000CE010D960E94730FCE0101960E948B0E57
:10027000CE0107960E948B0E61E572E0CE010796D3
:100280000E94F90EAE01495F5F4FBE016D5E7F4F68
:10029000CE0101960E946E02BE016F5F7F4FCE01BC
:1002A0000D960E94730FCE0101960E948B0ECE0117
:1002B00007960E948B0E6BE971E0CE0107960E94B3
:1002C000F90EAE01495F5F4FBE016D5E7F4FCE01FB
:1002D00001960E946E02BE016F5F7F4FCE010D96A8
:1002E0000E94730FCE0101960E948B0ECE010796DD
:1002F0000E948B0E67E271E0CE0107960E94F90E14
:10030000AE01495F5F4FBE016D5E7F4FCE0101962A
:100310000E946E02BE016F5F7F4FCE010D960E945C
:10032000730FCE0101960E948B0ECE0107960E949C
:100330008B0E6BE372E0CE0107960E94F90EAE01C0
:10034000495F5F4FBE016D5E7F4FCE0101960E94F7
:100350006E02BE016F5F7F4FCE010D960E94730F3C
:10036000CE0101960E948B0ECE0107960E948B0E45
:10037000BE01635F7F4F84E792E00E94670ECE016B
:100380000D960E948B0ECE0143960E94F401649656
:100390000FB6F894DEBF0FBECDBFDF91CF910895A9
:1003A0000F931F93CF93DF938C01EB012097B9F04C
:1003B0006C857D850E94D0016E857F85C8010E9475
:1003C000D001CE0106960E948B0ECE010E948B0EAC
:1003D000CE01DF91CF911F910F910C94AF0FDF9160
:1003E000CF911F910F910895FC01608171810C9450
:1003F000D001AF92BF92CF92DF92EF92FF920F9314
:100400001F93CF93DF9300D000D000D0CDB7DEB7DD
:100410006C015B018A017901FB01808191814817A0
:10042000590751F460E070E0C9010E949B0F8E32C1
:10043000C9F060E070E022C041155105C1F1FA0138
:1004400062857385F901848195818617970729F460
:10045000BA01C6010E94260F2FC0C9010E949B0F3E
:100460008E3249F4B701CE0101960E94260FF801A1
:100470004685578510C0F80162857385C7010E94C3
:100480009B0F8D32A1F4B701CE0101960E94260F79
:10049000F801448555859E012F5F3F4FB501C60188
:1004A0000E94F901CE0101960E948B0E05C067E6FD
:1004B00072E0C6010E94F90EC60126960FB6F894A6
:1004C000DEBF0FBECDBFDF91CF911F910F91FF9087
:1004D000EF90DF90CF90BF90AF900895EF92FF9292
:1004E0000F931F93CF93DF9300D000D000D0CDB7F0
:1004F000DEB78C017B01BA01CE0101960E94260F66
:10050000F701408151819E012F5F3F4FB701C80124
:100510000E94F901CE0101960E948B0EC801269619
:100520000FB6F894DEBF0FBECDBFDF91CF911F9104
:100530000F91FF90EF900895AF92BF92CF92DF920C
:10054000EF92FF920F931F93CF93DF93CDB7DEB758
:100550002C970FB6F894DEBF0FBECDBF5C016B01C8
:100560008A017901D901ED91FC91309709F458C0C5
:10057000DC018D919C91E817F90799F460E070E037
:10058000CA010E949B0F8E3251F160E070E0C801F9
:100590000E949B0F8D3209F071C0D701ED90FC9045
:1005A00012C062857385FA01848195818617970749
:1005B00009F464C0CA010E949B0FD701ED91FC9120
:1005C0008D3229F47F01BCE0EB0EF11C0EC0628578
:1005D0007385C8010E949B0F8E3209F04FC0F7014E
:1005E000E080F180FEE0EF0EF11CB801CE01019633
:1005F0000E94260FB601CE0107960E94260F970192
:10060000AE014F5F5F4FBE01695F7F4FC5010E9422
:100610009C02CE0107960E948B0ECE0101962CC043
:10062000CE0107960E94260FB801CE0101960E94C6
:10063000260F80E190E00E94AD0F8C01BE01695F42
:100640007F4F0E94260FBE016F5F7F4FC801069645
:100650000E94260FD8011D961C921E921C971F9671
:100660001C921E921E97F70111830083CE01019602
:100670000E948B0ECE0107960E948B0E2C960FB611
:10068000F894DEBF0FBECDBFDF91CF911F910F91C8
:10069000FF90EF90DF90CF90BF90AF9008956F9252
:1006A0007F928F929F92AF92BF92CF92DF92EF9202
:1006B000FF920F931F93CF93DF93CDB7DEB7689769
:1006C0000FB6F894DEBF0FBECDBF8C014E0183E1A3
:1006D000880E911C67E672E0C4010E94F90E5E016B
:1006E0009DE0A90EB11C67E672E0C5010E94F90EFB
:1006F0007E01E7E0EE0EF11CB401C7010E94260F57
:10070000B501CE0101966C010E94260F80E190E0B8
:100710000E94AD0F3C01B7010E94260FB601C30134
:1007200006960E94260FF3011586148617861686F4
:10073000F80171826082C6010E948B0EC7010E947F
:100740008B0E6AE071E0C4010E942F0F60EC71E033
:10075000C5010E942F0FB501C6010E94260FB401EA
:10076000C7010E94260F9801A601B701C8010E9487
:100770009C02C7010E948B0EC6010E948B0E6CE08A
:1007800071E0C4010E942F0F6CE372E0C5010E946A
:100790002F0FB501C6010E94260FB401C7010E94A8
:1007A000260F9801A601B701C8010E949C02C7014B
:1007B0000E948B0EC6010E948B0E6EE071E0C40198
:1007C0000E942F0F64E472E0C5010E942F0FB50153
:1007D000C6010E94260FB401C7010E94260F98018E
:1007E000A601B701C8010E949C02C7010E948B0E9E
:1007F000C6010E948B0E69E472E0C4010E942F0FB3
:1008000065ED71E0C5010E942F0FB501C6010E9480
:10081000260FB401C7010E94260F9801A601B70157
:10082000C8010E949C02C7010E948B0EC6010E9453
:100830008B0E60E171E0C4010E942F0F62E171E054
:10084000C5010E942F0FB501C6010E94260FB401F9
:10085000C7010E94260F9801A601B701C8010E9496
:100860009C02C7010E948B0EC6010E948B0E68E19C
:1008700071E0C4010E942F0F6DED71E0C5010E946F
:100880002F0FB501C6010E94260FB401C7010E94B7
:10089000260F9801A601B701C8010E949C02C7015A
:1008A0000E948B0EC6010E948B0E6AE171E0C401AA
:1008B0000E942F0F64EE71E0C5010E942F0FB50159
:1008C000C6010E94260FB401C7010E94260F98019D
:1008D000A601B701C8010E949C02C7010E948B0EAD
:1008E000C6010E948B0E6CE171E0C4010E942F0FC3
:1008F0006FE171E0C5010E942F0FB501C6010E9492
:10090000260FB401C7010E94260F9801A601B70166
:10091000C8010E949C02C7010E948B0EC6010E9462
:100920008B0E67E672E0C4010E942F0F65E271E052
:10093000C5010E942F0FB501C6010E94260FB40108
:10094000C7010E94260F9801A601B701C8010E94A5
:100950009C02C7010E948B0EC6010E948B0E6CE2A6
:1009600071E0C4010E942F0F6EE271E0C5010E9488
:100970002F0FB501C6010E94260FB401C7010E94C6
:10098000260F9801A601B701C8010E949C02C70169
:100990000E948B0EC6010E948B0E66E371E0C401BB
:1009A0000E942F0F68E371E0C5010E942F0FB5016F
:1009B000C6010E94260FB401C7010E94260F9801AC
:1009C000A601B701C8010E949C02C7010E948B0EBC
:1009D000C6010E948B0E6EE371E0C4010E942F0FCE
:1009E00063E272E0C5010E942F0FB501C6010E94AB
:1009F000260FB401C7010E94260F9801A601B70176
:100A0000C8010E949C02C7010E948B0EC6010E9471
:100A10008B0E60E471E0C4010E942F0F6DE771E05E
:100A2000C5010E942F0FB501C6010E94260FB40117
:100A3000C7010E94260F9801A601B701C8010E94B4
:100A40009C02C7010E948B0EC6010E948B0E62E4BD
:100A500071E0C4010E942F0F66E271E0C5010E949F
:100A60002F0FB501C6010E94260FB401C7010E94D5
:100A7000260F9801A601B701C8010E949C02C70178
:100A80000E948B0EC6010E948B0E65E471E0C401CA
:100A90000E942F0F6BE272E0C5010E942F0FB5017B
:100AA000C6010E94260FB401C7010E94260F9801BB
:100AB000A601B701C8010E949C02C7010E948B0ECB
:100AC000C6010E948B0E68E471E0C4010E942F0FE2
:100AD0006BE471E0C5010E942F0FB501C6010E94B1
:100AE000260FB401C7010E94260F9801A601B70185
:100AF000C8010E949C02C7010E948B0EC6010E9481
:100B00008B0E61E571E0C4010E942F0F63E571E077
:100B1000C5010E942F0FB501C6010E94260FB40126
:100B2000C7010E94260F9801A601B701C8010E94C3
:100B30009C02C7010E948B0EC6010E948B0E6AE5C3
:100B400071E0C4010E942F0F6CE571E0C5010E94A5
:100B50002F0FB501C6010E94260FB401C7010E94E4
:100B6000260F9801A601B701C8010E949C02C70187
:100B70000E948B0EC6010E948B0E63E671E0C401D9
:100B80000E942F0F65E671E0C5010E942F0FB5018D
:100B9000C6010E94260FB401C7010E94260F9801CA
:100BA000A601B701C8010E949C02C7010E948B0EDA
:100BB000C6010E948B0E6BE671E0C4010E942F0FEC
:100BC00064E172E0C5010E942F0FB501C6010E94C9
:100BD000260FB401C7010E94260F9801A601B70194
:100BE000C8010E949C02C7010E948B0EC6010E9490
:100BF0008B0E6DE671E0C4010E942F0F6BE971E06E
:100C0000C5010E942F0FB501C6010E94260FB40135
:100C1000C7010E94260F9801A601B701C8010E94D2
:100C20009C02C7010E948B0EC6010E948B0E6FE6CC
:100C300071E0C4010E942F0F67E271E0C5010E94BC
:100C40002F0FB501C6010E94260FB401C7010E94F3
:100C5000260F9801A601B701C8010E949C02C70196
:100C60000E948B0EC6010E948B0E61E771E0C401E9
:100C70000E942F0F63E771E0C5010E942F0FB5019D
:100C8000C6010E94260FB401C7010E94260F9801D9
:100C9000A601B701C8010E949C02C7010E948B0EE9
:100CA000C6010E948B0E62E471E0C4010E942F0F06
:100CB00060E371E0C5010E942F0FB501C6010E94DB
:100CC000260FB401C7010E94260F9801A601B701A3
:100CD000C8010E949C02C7010E948B0EC6010E949F
:100CE0008B0E69E771E0C4010E942F0F6BE771E082
:100CF000C5010E942F0FB501C6010E94260FB40145
:100D0000C7010E94260F9801A601B701C8010E94E1
:100D10009C02C7010E948B0EC6010E948B0E62E8E6
:100D200071E0C4010E942F0F67E871E0C5010E94C5
:100D30002F0FB501C6010E94260FB401C7010E9402
:100D4000260F9801A601B701C8010E949C02C701A5
:100D50000E948B0EC6010E948B0E66E071E0C401FA
:100D60000E942F0F64EF71E0C5010E942F0FB501A3
:100D7000C6010E94260FB401C7010E94260F9801E8
:100D8000A601B701C8010E949C02C7010E948B0EF8
:100D9000C6010E948B0E60EC71E0C4010E942F0F0F
:100DA00065E871E0C5010E942F0FB501C6010E94E0
:100DB000260FB401C7010E94260F9801A601B701B2
:100DC000C8010E949C02C7010E948B0EC6010E94AE
:100DD0008B0E6CE871E0C4010E942F0F6FEF71E081
:100DE000C5010E942F0FB501C6010E94260FB40154
:100DF000C7010E94260F9801A601B701C8010E94F1
:100E00009C02C7010E948B0EC6010E948B0E6EE8E9
:100E100071E0C4010E942F0F69E072E0C5010E94D9
:100E20002F0FB501C6010E94260FB401C7010E9411
:100E3000260F9801A601B701C8010E949C02C701B4
:100E40000E948B0EC6010E948B0E60E971E0C40106
:100E50000E942F0F64E571E0C5010E942F0FB501BC
:100E6000C6010E94260FB401C7010E94260F9801F7
:100E7000A601B701C8010E949C02C7010E948B0E07
:100E8000C6010E948B0E63E971E0C4010E942F0F1E
:100E900061E172E0C5010E942F0FB501C6010E94F9
:100EA000260FB401C7010E94260F9801A601B701C1
:100EB000C8010E949C02C7010E948B0EC6010E94BD
:100EC0008B0E66E971E0C4010E942F0F68E971E0A2
:100ED000C5010E942F0FB501C6010E94260FB40163
:100EE000C7010E94260F9801A601B701C8010E9400
:100EF0009C02C7010E948B0EC6010E948B0E6FE9F7
:100F000071E0C4010E942F0F66E671E0C5010E94E6
:100F10002F0FB501C6010E94260FB401C7010E9420
:100F2000260F9801A601B701C8010E949C02C701C3
:100F30000E948B0EC6010E948B0E61EA71E0C40113
:100F40000E942F0F67EA71E0C5010E942F0FB501C3
:100F5000C6010E94260FB401C7010E94260F980106
:100F6000A601B701C8010E949C02C7010E948B0E16
:100F7000C6010E948B0E6DEA71E0C4010E942F0F22
:100F800061EB71E0C5010E942F0FB501C6010E94FF
:100F9000260FB401C7010E94260F9801A601B701D0
:100FA000C8010E949C02C7010E948B0EC6010E94CC
:100FB0008B0E67EB71E084E792E00E94790E68EC9B
:100FC00071E0C4010E942F0F6BEB71E0C5010E941C
:100FD0002F0FB501C6010E94260FB401C7010E9460
:100FE000260F9801A601B701C8010E949C02C70103
:100FF0000E948B0EC6010E948B0E62EC71E084E7AA
:1010000092E00E94790E6AEC71E0C4010E942F0FF9
:1010100063E572E0C5010E942F0FB501C6010E9471
:10102000260FB401C7010E94260F9801A601B7013F
:10103000C8010E949C02C7010E948B0EC6010E943B
:101040008B0E6CEC71E0C4010E942F0F6FEB71E00E
:10105000C5010E942F0FB501C6010E94260FB401E1
:10106000C7010E94260F9801A601B701C8010E947E
:101070009C02C7010E948B0EC6010E948B0E6EEC73
:1010800071E0C4010E942F0F6BE372E0C5010E9462
:101090002F0FB501C6010E94260FB401C7010E949F
:1010A000260F9801A601B701C8010E949C02C70142
:1010B0000E948B0EC6010E948B0E60ED71E0C40190
:1010C0000E942F0F63E472E0C5010E942F0FB5014B
:1010D000C6010E94260FB401C7010E94260F980185
:1010E000A601B701C8010E949C02C7010E948B0E95
:1010F000C6010E948B0E62ED71E0C4010E942F0FA9
:1011000064ED71E0C5010E942F0FB501C6010E9478
:10111000260FB401C7010E94260F9801A601B7014E
:10112000C8010E949C02C7010E948B0EC6010E944A
:101130008B0E6AED71E0C4010E942F0F6CED71E01F
:10114000C5010E942F0FB501C6010E94260FB401F0
:10115000C7010E94260F9801A601B701C8010E948D
:101160009C02C7010E948B0EC6010E948B0E6AED85
:1011700071E0C4010E942F0F63EE71E0C5010E946F
:101180002F0FB501C6010E94260FB401C7010E94AE
:10119000260F9801A601B701C8010E949C02C70151
:1011A0000E948B0EC6010E948B0E69EE71E0C40195
:1011B0000E942F0F62E272E0C5010E942F0FB5015D
:1011C000C6010E94260FB401C7010E94260F980194
:1011D000A601B701C8010E949C02C7010E948B0EA4
:1011E000C6010E948B0E6BEE71E0C4010E942F0FAE
:1011F0006CE771E0C5010E942F0FB501C6010E9486
:10120000260FB401C7010E94260F9801A601B7015D
:10121000C8010E949C02C7010E948B0EC6010E9459
:101220008B0E6DEE71E0C4010E942F0F63E172E03E
:10123000C5010E942F0FB501C6010E94260FB401FF
:10124000C7010E94260F9801A601B701C8010E949C
:101250009C02C7010E948B0EC6010E948B0E6FEE8E
:1012600071E0C4010E942F0F6AE971E0C5010E947C
:101270002F0FB501C6010E94260FB401C7010E94BD
:10128000260F9801A601B701C8010E949C02C70160
:101290000E948B0EC6010E948B0E67E672E0C401AD
:1012A0000E942F0F66E871E0C5010E942F0FB50163
:1012B000C6010E94260FB401C7010E94260F9801A3
:1012C000A601B701C8010E949C02C7010E948B0EB3
:1012D000C6010E948B0E61EF71E0C4010E942F0FC6
:1012E00063EF71E0C5010E942F0FB501C6010E9496
:1012F000260FB401C7010E94260F9801A601B7016D
:10130000C8010E949C02C7010E948B0EC6010E9468
:101310008B0E6AEF71E0C4010E942F0F6CEF71E039
:10132000C5010E942F0FB501C6010E94260FB4010E
:10133000C7010E94260F9801A601B701C8010E94AB
:101340009C02C7010E948B0EC6010E948B0E63E0B7
:1013500072E0C4010E942F0F6EEF71E0C5010E9480
:101360002F0FB501C6010E94260FB401C7010E94CC
:10137000260F9801A601B701C8010E949C02C7016F
:101380000E948B0EC6010E948B0E65E072E0C401C4
:101390000E942F0F68E072E0C5010E942F0FB50177
:1013A000C6010E94260FB401C7010E94260F9801B2
:1013B000A601B701C8010E949C02C7010E948B0EC2
:1013C000C6010E948B0E6EE072E0C4010E942F0FD6
:1013D00060E172E0C5010E942F0FB501C6010E94B5
:1013E000260FB401C7010E94260F9801A601B7017C
:1013F000C8010E949C02C7010E948B0EC6010E9478
:101400008B0E67E172E0C4010E942F0FB501C60187
:101410000E94260FB401C7010E94260F9801A60161
:10142000B701C8010E949C02C7010E948B0EC60131
:101430000E948B0E69E172E0C4010E942F0F62E5E9
:1014400072E0C5010E942F0FB501C6010E94260F50
:10145000B401C7010E94260F9801A601B701C80177
:101460000E949C02C7010E948B0EC6010E948B0E37
:101470006BE172E0C4010E942F0F6EEB71E0C501B9
:101480000E942F0FB501C6010E94260FB401C701AB
:101490000E94260F9801A601B701C8010E949C0274
:1014A000C7010E948B0EC6010E948B0E6DE172E097
:1014B000C4010E942F0F6AE372E0C5010E942F0F42
:1014C000B501C6010E94260FB401C7010E94260F74
:1014D0009801A601B701C8010E949C02C7010E94A1
:1014E0008B0EC6010E948B0E6FE172E0C4010E9458
:1014F0002F0F62E472E0C5010E942F0FB501C601F3
:101500000E94260FB401C7010E94260F9801A60170
:10151000B701C8010E949C02C7010E948B0EC60140
:101520000E948B0E67E672E0C4010E942F0F61E2F9
:1015300072E0C5010E942F0FB501C6010E94260F5F
:10154000B401C7010E94260F9801A601B701C80186
:101550000E949C02C7010E948B0EC6010E948B0E46
:1015600067E272E0C4010E942F0F69E272E0C501D8
:101570000E942F0FB501C6010E94260FB401C701BA
:101580000E94260F9801A601B701C8010E949C0283
:10159000C7010E948B0EC6010E948B0E60E372E0B1
:1015A000C4010E942F0F62E172E0C5010E942F0F5B
:1015B000B501C6010E94260FB401C7010E94260F83
:1015C0009801A601B701C8010E949C02C7010E94B0
:1015D0008B0EC6010E948B0E62E372E0C4010E9472
:1015E0002F0F61E572E0C5010E942F0FB501C60102
:1015F0000E94260FB401C7010E94260F9801A60180
:10160000B701C8010E949C02C7010E948B0EC6014F
:101610000E948B0E64E372E0C4010E942F0F6DEBF9
:1016200071E0C5010E942F0FBE01635F7F4FCE01A5
:1016300001960E94260FBE016D5E7F4FCE01079678
:101640000E94260F9801AE014F5F5F4FBE01695F98
:101650007F4FC8010E949C02CE0107960E948B0E0C
:10166000CE0101960E948B0E67E372E0CE01439695
:101670000E942F0F69E372E0CE010D960E942F0F9A
:10168000BE01635F7F4FCE0101960E94260FBE010F
:101690006D5E7F4FCE0107960E94260F9801AE0126
:1016A0004F5F5F4FBE01695F7F4FC8010E949C0280
:1016B000CE0107960E948B0ECE0101960E948B0EE2
:1016C0006FE372E0CE0143960E942F0F61E472E057
:1016D000CE010D960E942F0FBE01635F7F4FCE019A
:1016E00001960E94260FBE016D5E7F4FCE010796C8
:1016F0000E94260F9801AE014F5F5F4FBE01695FE8
:101700007F4FC8010E949C02CE0107960E948B0E5B
:10171000CE0101960E948B0E68E472E0CE014396E2
:101720000E942F0F60E572E0CE010D960E942F0FF0
:10173000BE01635F7F4FCE0101960E94260FBE015E
:101740006D5E7F4FCE0107960E94260F9801AE0175
:101750004F5F5F4FBE01695F7F4FC8010E949C02CF
:10176000CE0107960E948B0ECE0101960E948B0E31
:101770006BE472E0CE0143960E942F0F6CEB71E098
:10178000CE010D960E942F0FBE01635F7F4FCE01E9
:1017900001960E94260FBE016D5E7F4FCE01079617
:1017A0000E94260F9801AE014F5F5F4FBE01695F37
:1017B0007F4FC8010E949C02CE0107960E948B0EAB
:1017C000CE0101960E948B0E6DE472E0CE0143962D
:1017D0000E942F0F6FE472E0CE010D960E942F0F32
:1017E000BE01635F7F4FCE0101960E94260FBE01AE
:1017F0006D5E7F4FCE0107960E94260F9801AE01C5
:101800004F5F5F4FBE01695F7F4FC8010E949C021E
:10181000CE0107960E948B0ECE0101960E948B0E80
:10182000CE010D960E948B0ECE0143960E948B0E28
:1018300068960FB6F894DEBF0FBECDBFDF91CF9193
:101840001F910F91FF90EF90DF90CF90BF90AF90DE
:101850009F908F907F906F900895FC01818D228DD5
:1018600090E0805C9F4F821B91098F7399270895A8
:10187000FC01918D828D981731F0828DE80FF11D5A
:10188000858D90E008958FEF9FEF0895FC01918D75
:10189000828D981761F0828DDF01A80FB11D5D96D2
:1018A0008C91928D9F5F9F73928F90E008958FEF40
:1018B0009FEF08958AEC9DE0892B49F080E090E04D
:1018C000892B29F00E94CA0D81110C940000089503
:1018D000FC01848DDF01A80FB11DA35ABF4F2C91CD
:1018E000848D90E001968F739927848FA689B7899C
:1018F0002C93A089B1898C9180648C93938D848D75
:10190000981306C00288F389E02D80818F7D808343
:101910000895CF93DF93EC01888D8823C9F0EA897D
:10192000FB89808185FD05C0A889B9898C9186FDD8
:101930000FC00FB607FCF5CF808185FFF2CFA889D5
:10194000B9898C9185FFEDCFCE010E94680CE7CF5D
:10195000DF91CF910895CF92DF92FF920F931F9363
:10196000CF93DF931F92CDB7DEB76C0181E0D60134
:1019700058968C9358975B969C915B975C968C914C
:101980005C97981307C05096ED91FC915197808118
:1019900085FD2EC0F601038D10E00F5F1F4F0F7302
:1019A0001127F02EF601848DF81211C00FB607FC36
:1019B000F9CFD6015096ED91FC915197808185FF2A
:1019C000F1CFC60169830E94680C6981EBCF838DDA
:1019D000E80FF11DE35AFF4F6083D6015B960C932D
:1019E0005B975296ED91FC915397808180620CC079
:1019F000D6015696ED91FC91579760835096ED91E4
:101A0000FC91519780818064808381E090E00F9009
:101A1000DF91CF911F910F91FF90DF90CF900895AC
:101A2000BF92CF92DF92EF92FF92CF93DF93EC01C0
:101A30006A017B01B22EE889F98982E08083411531
:101A400081EE580761057105A1F060E079E08DE352
:101A500090E0A70196010E943610215031094109FA
:101A600051095695479537952795211580E13807F7
:101A700098F0E889F989108260E874E88EE190E0D6
:101A8000A70196010E9436102150310941095109E0
:101A90005695479537952795EC85FD853083EE85DE
:101AA000FF852083188EEC89FD89B082EA89FB8945
:101AB000808180618083EA89FB898081886080835E
:101AC000EA89FB89808180688083EA89FB8980813B
:101AD0008F7D8083DF91CF91FF90EF90DF90CF904B
:101AE000BF9008951F920F920FB60F9211242F935B
:101AF0008F939F93EF93FF93E0918402F09185027F
:101B00008081E0918A02F0918B0282FD12C0908167
:101B100080918D028F5F8F7320918E02821751F01A
:101B2000E0918D02F0E0EC58FD4F958F80938D028F
:101B300001C08081FF91EF919F918F912F910F9024
:101B40000FBE0F901F9018951F920F920FB60F9215
:101B500011242F933F934F935F936F937F938F93B2
:101B60009F93AF93BF93EF93FF9384E792E00E941C
:101B7000680CFF91EF91BF91AF919F918F917F91F1
:101B80006F915F914F913F912F910F900FBE0F90EA
:101B90001F90189584E792E00E942D0C21E0892B7C
:101BA00009F420E0822F08951092770210927602B5
:101BB00088EE93E0A0E0B0E0809378029093790201
:101BC000A0937A02B0937B0289E592E0909375022C
:101BD0008093740285EC90E0909381028093800260
:101BE00084EC90E0909383028093820280EC90E0FA
:101BF000909385028093840281EC90E09093870219
:101C00008093860282EC90E0909389028093880210
:101C100086EC90E090938B0280938A0210928D0262
:101C200010928E0210928F02109290020895CF921D
:101C3000DF92EF92FF920F931F93CF93DF936C018C
:101C40007A01EB01E60EF71E00E010E0CE15DF058D
:101C500061F06991D601ED91FC910190F081E02D48
:101C6000C6010995080F191FF1CFC801DF91CF9167
:101C70001F910F91FF90EF90DF90CF900895611525
:101C8000710581F0DB010D900020E9F7AD014150B5
:101C90005109461B570BDC01ED91FC910280F38149
:101CA000E02D099480E090E00895DC01ED91FC9135
:101CB000DB0114964D915C9115976D917C9102809A
:101CC000F381E02D099465E672E00C943F0E0F93CA
:101CD0001F93CF93DF93EC010E94550E8C01CE0130
:101CE0000E94630E800F911FDF91CF911F910F9182
:101CF00008950F931F93CF93DF93EC010E943F0E43
:101D00008C01CE010E94630E800F911FDF91CF9155
:101D10001F910F910895FC01808191810C94F61020
:101D2000CF93DF93EC0188819981009711F00E9495
:101D3000F610198218821D821C821B821A82DF9182
:101D4000CF9108950F931F93CF93DF93EC018B01F5
:101D50006F5F7F4F888199810E948511009731F0D4
:101D6000998388831B830A8381E001C080E0DF912F
:101D7000CF911F910F910895CF93DF93EC0188814C
:101D80009981892B29F08A819B818617970760F4B6
:101D9000CE010E94A20E882341F08C819D81892B67
:101DA00019F4E881F981108281E0DF91CF910895E3
:101DB000EF92FF920F931F93CF93DF93EC017B0180
:101DC0008A01BA010E94BC0E811104C0CE010E949A
:101DD000900E07C01D830C83B701888199810E94F2
:101DE0005812CE01DF91CF911F910F91FF90EF908C
:101DF0000895FC01118210821382128215821482CE
:101E00006115710559F0FB0101900020E9F7AF0160
:101E100041505109461B570B0C94D80E0895CF938F
:101E2000DF93EC01FB018617970761F060817181F8
:101E30006115710529F0448155810E94D80E02C0B8
:101E40000E94900ECE01DF91CF910895FC01118286
:101E5000108213821282158214820C940F0FCF937A
:101E6000DF93EC016115710561F0FB010190002029
:101E7000E9F7AF0141505109461B570B0E94D80E9C
:101E800002C00E94900ECE01DF91CF910895EF9293
:101E9000FF920F931F93CF93DF93EC017B010C8193
:101EA0001D816115710511F480E016C041155105C1
:101EB00091F0040F151FB8010E94BC0E8823A1F3F6
:101EC000288139818C819D81B701820F931F0E94E7
:101ED00058121D830C8381E0DF91CF911F910F91E8
:101EE000FF90EF900895FB014481558160817181DD
:101EF0000C94470F6115710559F0FB01019000200A
:101F0000E9F7AF0141505109461B570B0C94470F9D
:101F100080E00895FC01248135816217730748F43D
:101F200080819181009729F0FC01E60FF71F8081E5
:101F3000089580E008950C948A0F08950E94FB0F85
:101F40000E949D0F0E945F00CAE5DCE00E946800CD
:101F50002097E1F30E945A0CF9CF0C945E100C9478
:101F6000F6101F920F920FB60F9211242F933F93EA
:101F70008F939F93AF93BF9380911203909113031C
:101F8000A0911403B09115033091110323E0230FA6
:101F90002D3720F40196A11DB11D05C026E8230FA1
:101FA0000296A11DB11D20931103809312039093FB
:101FB0001303A0931403B09315038091160390911B
:101FC0001703A0911803B09119030196A11DB11D2B
:101FD0008093160390931703A0931803B0931903EB
:101FE000BF91AF919F918F913F912F910F900FBE15
:101FF0000F901F901895789484B5826084BD84B545
:10200000816084BD85B5826085BD85B5816085BDF3
:10201000EEE6F0E0808181608083E1E8F0E010820C
:10202000808182608083808181608083E0E8F0E04D
:10203000808181608083E1EBF0E080818460808337
:10204000E0EBF0E0808181608083EAE7F0E080816E
:1020500084608083808182608083808181608083CE
:102060008081806880831092C1000895A1E21A2EB9
:10207000AA1BBB1BFD010DC0AA1FBB1FEE1FFF1F2C
:10208000A217B307E407F50720F0A21BB30BE40B7C
:10209000F50B661F771F881F991F1A9469F76095C3
:1020A0007095809590959B01AC01BD01CF0108957D
:1020B000EE0FFF1F0590F491E02D0994CF93DF936D
:1020C0008230910510F482E090E0E0911C03F091E1
:1020D0001D0320E030E0A0E0B0E0309739F140810E
:1020E000518148175907B8F04817590771F4828190
:1020F0009381109729F013969C938E9312972CC07E
:1021000090931D0380931C0327C02115310531F0E6
:102110004217530718F0A901DB0101C0EF019A0132
:10212000BD01DF010280F381E02DD7CF21153105FC
:10213000F9F0281B390B2430310580F48A819B810A
:102140006115710521F0FB019383828304C0909394
:102150001D0380931C03FE01329644C0FE01E20F72
:10216000F31F8193919322503109398328833AC018
:1021700020911A0330911B03232B41F4209102017B
:102180003091030130931B0320931A032091000127
:10219000309101012115310541F42DB73EB7409131
:1021A000040150910501241B350BE0911A03F091B5
:1021B0001B03E217F307A0F42E1B3F0B2817390768
:1021C00078F0AC014E5F5F4F2417350748F04E0F93
:1021D0005F1F50931B0340931A038193919302C096
:1021E000E0E0F0E0CF01DF91CF910895CF93DF934E
:1021F000009709F487C0FC01329713821282C091C4
:102200001C03D0911D03209781F420813181280F78
:10221000391F80911A0390911B038217930779F558
:10222000F0931B03E0931A036DC0DE0120E030E061
:10223000AE17BF0750F412964D915C9113979D0114
:102240004115510509F1DA01F3CFB383A28340812F
:102250005181840F951F8A179B0771F48D919C9172
:102260001197840F951F02969183808312968D910A
:102270009C911397938382832115310529F4F09360
:102280001D03E0931C033EC0D9011396FC93EE930B
:1022900012974D915D91A40FB51FEA17FB0779F4D2
:1022A00080819181840F951F0296D90111969C938C
:1022B0008E938281938113969C938E931297E0E084
:1022C000F0E08A819B81009719F0FE01EC01F9CFC3
:1022D000CE01029628813981820F931F20911A0323
:1022E00030911B032817390769F4309729F41092AD
:1022F0001D0310921C0302C013821282D0931B0391
:10230000C0931A03DF91CF910895A0E0B0E0EBE80D
:10231000F1E10C946312EC01CB01209719F40E94B7
:102320005E10B8C0FE01E60FF71F9E012250310972
:10233000E217F30708F4ACC0D9010D911C91119775
:1023400006171707B8F00530110508F49FC0A8015B
:10235000445051094617570708F498C00250110914
:10236000061B170B019311936D937C93CF010E9471
:10237000F6108CC05B01A01AB10A4E01800E911EAE
:10238000A0911C03B0911D03612C712C60E070E0E2
:10239000109709F449C0A815B905C9F5ED90FC904E
:1023A0001197670142E0C40ED11CCA14DB0478F116
:1023B00047018A189B08640142E0C40ED11C1296A2
:1023C000BC9012971396AC91B5E0CB16D10440F0B7
:1023D000B282A38391828082D9018D939C9309C09C
:1023E0000E5F1F4F0E0D1F1DF90111830083EB2D92
:1023F000FA2F6115710531F0DB011396FC93EE9312
:10240000129744C0F0931D03E0931C033FC06D91ED
:102410007C9111976616770608F43B01BD01129670
:102420000D90BC91A02DB4CF60911A0370911B0345
:1024300068157905E9F468167906D0F44091000131
:10244000509101014115510541F44DB75EB76091BE
:10245000040170910501461B570BE417F507C0F402
:10246000F0931B03E0931A03F901918380830EC05C
:102470000E945E107C01009759F0A801BE010E94E5
:102480004F12CE010E94F610C70104C0CE0102C057
:1024900080E090E0CDB7DEB7EEE00C947F12FB0158
:1024A000DC0102C001900D9241505040D8F70895D0
:1024B000FB01DC0101900D920020E1F708952F92BD
:1024C0003F924F925F926F927F928F929F92AF92C4
:1024D000BF92CF92DF92EF92FF920F931F93CF9311
:1024E000DF93CDB7DEB7CA1BDB0B0FB6F894DEBFA8
:1024F0000FBECDBF09942A88398848885F846E84CE
:102500007D848C849B84AA84B984C884DF80EE8017
:10251000FD800C811B81AA81B981CE0FD11D0FB620
:10252000F894DEBF0FBECDBFED010895F894FFCF44
:1025300000001E0380002B002000450049005300CE
:1025400035002E2E2E2E2E0034005600C59C002E57
:102550002E2E2D2E002E2E2E2D2E2E0024002E2E31
:102560002E2D2E2E2D0033002E2E2E2D2D0055001B
:102570004600C38900C39C00C390002E2E2D2D2E33
:10258000003F002E2E2D2D2E2E005F002E2E2D2DE5
:102590002E2D0032002E2E2D2D2D00410052004CEC
:1025A0000026002E2D2E2E2E0022002E2D2E2E2D1A
:1025B0002E00C384002E2D2E2D2E2D0057005000EE
:1025C000C39E00C3810040002E2D2D2E2D2E004ACB
:1025D000006D696E7573002E2D2D2D2E006F6E65AA
:1025E000002E2D2D2D2D00416664002E2D2D2D2D1C
:1025F0002E00416464656420270054004E004400AE
:10260000420036002D2E2E2E2E003D002D2E2E2E79
:102610002E2D002D2E2E2E2D0058002F004B004366
:10262000003B002D2E2D2E2D2E0021002D2E2D2E87
:102630002D2D005900C4A4002D2E2D2D2E00280074
:102640002D2E2D2D2E2D0029004D0047005A00372C
:10265000002D2D2E2E2D002C002D2D2E2E2D2D005B
:1026600051004F00C3960038002D2D2D2E2E003A1C
:10267000002D2D2D2E2E2E00434800390030002D28
:102680002D2D2D2D0000000000AB0C170E2D0C463B
:102690000C380C890C0D0A006E616E00696E6600C4
:0426A0006F766600EB
:00000001FF
