:100000000C945D000C9485000C9485000C94850084
:100010000C9485000C9485000C9485000C9485004C
:100020000C9485000C9485000C9485000C94B2000F
:100030000C9485000C9485000C9485000C9485002C
:100040000C9490030C9485000C94B3020C94E5027C
:100050000C9485000C9485000C9485000C9485000C
:100060000C9485000C94850000000008000201003B
:100070000003040700000000000000000102040863
:100080001020408001020408102001020408102002
:10009000040404040404040402020202020203032E
:1000A0000303030300000000250028002B000000CC
:1000B0000000240027002A00150311241FBECFEFE3
:1000C000D8E0DEBFCDBF11E0A0E0B1E0E4E0FBE0AE
:1000D00002C005900D92A631B107D9F721E0A6E143
:1000E000B1E001C01D92A23EB207E1F710E0CAEBF9
:1000F000D0E004C02297FE010E947C05C83BD107D6
:10010000C9F70E9481030C9480050C94000026E03E
:1001100040E855E260E070E08CE391E00E9451021B
:1001200060E070E0809104010C946004CF93DF9351
:10013000C4E0D1E068E770E088810E9460046CED63
:1001400075E080E090E00E94FD0360E070E088814F
:100150000E9460046CED75E080E090E0DF91CF914B
:100160000C94FD031F920F920FB60F9211242F9340
:100170003F934F935F936F937F938F939F93AF932F
:10018000BF93EF93FF938091170187FF05C01092F3
:100190008500109284001AC020911701332727FD93
:1001A00030958091160190E0281739077CF48091F2
:1001B0001701992787FD9095FC01EE0FFF1FE80FAF
:1001C000F91FE85EFE4F808186FD15C08091170102
:1001D0008F5F8093170120911701332727FD3095FA
:1001E0008091160190E028173907BCF4809117011F
:1001F0008C305CF112C080911701992787FD909592
:10020000FC01EE0FFF1FE80FF91FE85EFE4F808133
:1002100060E08F730E942105D9CF80918400909176
:100220008500049680349C4918F480E49CE905C05C
:10023000809184009091850004969093890080932A
:1002400088008FEF8093170138C02091840030918F
:10025000850080911701992787FD9095FC01EE0F8D
:10026000FF1FE80FF91FE85EFE4F81819281820F28
:10027000931F90938900809388008091170199279C
:1002800087FD9095FC01EE0FFF1FE80FF91FE85E58
:10029000FE4F808186FF11C080911701992787FD4D
:1002A0009095FC01EE0FFF1FE80FF91FE85EFE4F6F
:1002B000808161E08F730E942105FF91EF91BF91D2
:1002C000AF919F918F917F916F915F914F913F91EE
:1002D0002F910F900FBE0F901F901895FC01818DEC
:1002E000228D90E0805C9F4F821B91098F7399272C
:1002F0000895FC01918D828D981731F0828DE80F61
:10030000F11D858D90E008958FEF9FEF0895FC011A
:10031000918D828D981761F0828DDF01A80FB11D3C
:100320005D968C91928D9F5F9F73928F90E0089560
:100330008FEF9FEF08958BE093E0892B49F080E0E9
:1003400090E0892B29F00E940B0381110C9400008E
:100350000895FC01848DDF01A80FB11DA35ABF4F82
:100360002C91848D90E001968F739927848FA689B4
:10037000B7892C93A089B1898C9180648C93938DDB
:10038000848D981306C00288F389E02D80818F7DCB
:1003900080830895CF93DF93EC01888D8823C9F083
:1003A000EA89FB89808185FD05C0A889B9898C917E
:1003B00086FD0FC00FB607FCF5CF808185FFF2CF19
:1003C000A889B9898C9185FFEDCFCE010E94A90142
:1003D000E7CFDF91CF910895CF92DF92FF920F93F5
:1003E0001F93CF93DF931F92CDB7DEB76C0181E0EF
:1003F000D60158968C9358975B969C915B975C9628
:100400008C915C97981307C05096ED91FC91519791
:10041000808185FD2EC0F601038D10E00F5F1F4F18
:100420000F731127F02EF601848DF81211C00FB64C
:1004300007FCF9CFD6015096ED91FC915197808140
:1004400085FFF1CFC60169830E94A9016981EBCFC5
:10045000838DE80FF11DE35AFF4F6083D6015B9651
:100460000C935B975296ED91FC915397808180623B
:100470000CC0D6015696ED91FC915797608350962B
:10048000ED91FC91519780818064808381E090E0C0
:100490000F90DF91CF911F910F91FF90DF90CF9040
:1004A0000895BF92CF92DF92EF92FF92CF93DF93A6
:1004B000EC016A017B01B22EE889F98982E0808330
:1004C000411581EE580761057105A1F060E079E002
:1004D0008DE390E0A70196010E9458052150310953
:1004E000410951095695479537952795211580E182
:1004F000380798F0E889F989108260E874E88EE19D
:1005000090E0A70196010E94580521503109410948
:1005100051095695479537952795EC85FD8530838C
:10052000EE85FF852083188EEC89FD89B082EA89EB
:10053000FB89808180618083EA89FB898081886072
:100540008083EA89FB89808180688083EA89FB89CE
:1005500080818F7D8083DF91CF91FF90EF90DF903E
:10056000CF90BF9008951F920F920FB60F92112453
:100570002F938F939F93EF93FF93E0914C01F09112
:100580004D018081E0915201F091530182FD12C032
:100590009081809155018F5F8F7320915601821752
:1005A00051F0E0915501F0E0E45CFE4F958F8093AF
:1005B000550101C08081FF91EF919F918F912F9103
:1005C0000F900FBE0F901F9018951F920F920FB6AD
:1005D0000F9211242F933F934F935F936F937F93C9
:1005E0008F939F93AF93BF93EF93FF938CE391E02F
:1005F0000E94A901FF91EF91BF91AF919F918F91BF
:100600007F916F915F914F913F912F910F900FBE0E
:100610000F901F9018958CE391E00E946E0121E0ED
:10062000892B09F420E0822F089510923F01109247
:100630003E0188EE93E0A0E0B0E08093400190930B
:100640004101A0934201B09343018AE091E090936D
:100650003D0180933C0185EC90E0909349018093AB
:10066000480184EC90E090934B0180934A0180EC28
:1006700090E090934D0180934C0181EC90E0909339
:100680004F0180934E0182EC90E090935101809352
:10069000500186EC90E090935301809352011092A8
:1006A0005501109256011092570110925801089569
:1006B000CF92DF92EF92FF920F931F93CF93DF932E
:1006C0006C017A01EB01E60EF71E00E010E0CE159A
:1006D000DF0561F06991D601ED91FC910190F08107
:1006E000E02DC6010995080F191FF1CFC801DF9150
:1006F000CF911F910F91FF90EF90DF90CF900895D1
:1007000008950E9425040E9480030E948700CBE97F
:10071000D1E00E9496002097E1F30E949B01F9CF5F
:100720001F920F920FB60F9211242F933F938F9326
:100730009F93AF93BF938091DA019091DB01A091D9
:10074000DC01B091DD013091D90123E0230F2D3779
:1007500020F40196A11DB11D05C026E8230F0296C5
:10076000A11DB11D2093D9018093DA019093DB0183
:10077000A093DC01B093DD018091DE019091DF0157
:10078000A091E001B091E1010196A11DB11D8093FE
:10079000DE019093DF01A093E001B093E101BF91EE
:1007A000AF919F918F913F912F910F900FBE0F901E
:1007B0001F9018953FB7F8948091DE019091DF016A
:1007C000A091E001B091E10126B5A89B05C02F3FA3
:1007D00019F00196A11DB11D3FBF6627782F892F03
:1007E0009A2F620F711D811D911D42E0660F771FC8
:1007F000881F991F4A95D1F70895CF92DF92EF9203
:10080000FF92CF93DF936B017C010E94DA03EB012F
:10081000C114D104E104F10489F00E9457050E943B
:10082000DA036C1B7D0B683E734090F381E0C81ABD
:10083000D108E108F108C851DC4FEACFDF91CF9130
:10084000FF90EF90DF90CF900895789484B5826008
:1008500084BD84B5816084BD85B5826085BD85B564
:10086000816085BDEEE6F0E0808181608083E1E813
:10087000F0E010828081826080838081816080834B
:10088000E0E8F0E0808181608083E1EBF0E080814E
:1008900084608083E0EBF0E0808181608083EAE720
:1008A000F0E08081846080838081826080838081A9
:1008B000816080838081806880831092C100089568
:1008C0001F93CF93DF93182FEB0161E00E94E804A0
:1008D000209711F460E004C0CF3FD10539F461E006
:1008E000812FDF91CF911F910C942105E12FF0E032
:1008F000E859FF4FE491E330F9F048F4E130B9F002
:10090000E230A1F584B5806284BDC8BD34C0E73053
:10091000E9F0E83019F1E43049F580918000806217
:1009200080938000D0938B00C0938A0024C084B54C
:10093000806884BDC7BD1FC080918000806880939F
:100940008000D0938900C093880015C08091B000CA
:1009500080688093B000C093B3000DC08091B00058
:1009600080628093B000C093B40005C0C038D10548
:100970000CF0B5CFAFCFDF91CF911F9108958330A9
:1009800081F028F4813099F08230A1F00895873009
:10099000A9F08830B9F08430D1F4809180008F7D47
:1009A00003C0809180008F7780938000089584B584
:1009B0008F7702C084B58F7D84BD08958091B0008B
:1009C0008F7703C08091B0008F7D8093B000089531
:1009D000CF93DF9390E0FC01E458FF4F2491FC019A
:1009E000E057FF4F8491882349F190E0880F991FC9
:1009F000FC01E255FF4FA591B4918C559F4FFC012E
:100A0000C591D4919FB7611108C0F8948C9120953D
:100A100082238C93888182230AC0623051F4F89437
:100A20008C91322F309583238C938881822B8883FD
:100A300004C0F8948C91822B8C939FBFDF91CF914F
:100A400008950F931F93CF93DF931F92CDB7DEB717
:100A5000282F30E0F901E859FF4F8491F901E4585B
:100A6000FF4F1491F901E057FF4F04910023C9F0A3
:100A7000882321F069830E94BF046981E02FF0E0A0
:100A8000EE0FFF1FEC55FF4FA591B4919FB7F8945F
:100A90008C91611103C01095812301C0812B8C932F
:100AA0009FBF0F90DF91CF911F910F9108950895EF
:100AB000A1E21A2EAA1BBB1BFD010DC0AA1FBB1F62
:100AC000EE1FFF1FA217B307E407F50720F0A21BD4
:100AD000B30BE40BF50B661F771F881F991F1A9441
:100AE00069F760957095809590959B01AC01BD016B
:100AF000CF010895EE0FFF1F0590F491E02D0994AA
:040B0000F894FFCF97
:100B0400010000000A0000000000EC0158036E011F
:060B140087017901CA010E
:00000001FF
