:100000000C9437000C945F000C945F000C945F001C
:100010000C945F000C945F000C945F000C945F00E4
:100020000C945F000C945F000C945F000C945F00D4
:100030000C945F000C945F000C945F000C945F00C4
:100040000C9482080C945F000C94AB060C94DD06B3
:100050000C945F000C945F000C945F000C945F00A4
:100060000C945F000C945F009F000D07A300112407
:100070001FBECFEFD8E0DEBFCDBF12E0A0E0B1E001
:10008000E8EEF6E102C005900D92AA31B107D9F76A
:1000900022E0AAE1B2E001C01D92A63CB207E1F75E
:1000A00010E0CCE6D0E004C02297FE010E942B09AC
:1000B000C836D107C9F70E946F080C94670B0C94DF
:1000C000000026E040E855E260E070E08CE192E05C
:1000D0000C944906CF93DF93CDB7DEB762970FB686
:1000E000F894DEBF0FBECDBF84E690E09A8389838B
:1000F0001C821B821E821D8218861F821A86198608
:100100001C861B86AE014F5F5F4F6AE172E0CE0135
:100110000D960E943301BE01635F7F4F8CE192E038
:100120000E94A007CE010D960E94B20762960FB6FC
:10013000F894DEBF0FBECDBFDF91CF9108958AE165
:1001400092E00C94D0018AE192E00C94C7000F93E6
:100150001F93CF93DF938C01EB01209799F06A896D
:100160007B890E94A7006C897D89C8010E94A70035
:10017000CE010E94B207CE01DF91CF911F910F9166
:100180000C948008DF91CF911F910F910895FC018D
:10019000608171810C94A7004F925F926F927F9261
:1001A0008F929F92AF92BF92CF92DF92EF92FF9287
:1001B0000F931F93CF93DF9300D000D000D0CDB723
:1001C000DEB76C014B018A0179014115510579F1C6
:1001D00039015A0129018CE0480E511CF30121918B
:1001E00031913F01F501868197812817390724F461
:1001F000F8014289538906C0821793076CF4F8010D
:10020000448955899701B401CE0101960E94CC0022
:10021000CE0101960E94B207F2E0AF0EB11C641449
:100220007504E1F6B801C6010E944D0804C06AE0F9
:1002300072E00E942008C60126960FB6F894DEBF31
:100240000FBECDBFDF91CF911F910F91FF90EF9027
:10025000DF90CF90BF90AF909F908F907F906F90E6
:100260005F904F900895CF93DF93EC019A01FB01CB
:10027000408151810E94CC00CE01DF91CF91089541
:100280002F923F924F925F926F927F928F929F92A6
:10029000AF92BF92CF92DF92EF92FF920F931F9394
:1002A000CF93DF9300D000D000D0CDB7DEB74C01A4
:1002B0006B018A0179012115310591F13A0159014A
:1002C0002A018CE0480E511CF301219131913F012C
:1002D000F501868197812817390724F4F7012288D0
:1002E000338806C082179307A4F4F7012488358861
:1002F000B601CE0101960E944D089101A801BE01F0
:100300006F5F7F4FC4010E944001CE0101960E94A1
:10031000B207F2E0AF0EB11C64147504A9F627C051
:10032000CE0101960E944D0886E190E00E947E0871
:100330007C01BE016F5F7F4F0E944D08F701138A59
:10034000128A158A148AF80180E090E02191319197
:10035000D701A80FB91F17963C932E9316970296B4
:100360008C30910599F7CE0101960E94B20726962E
:100370000FB6F894DEBF0FBECDBFDF91CF911F91B6
:100380000F91FF90EF90DF90CF90BF90AF909F9034
:100390008F907F906F905F904F903F902F90089537
:1003A000EF92FF920F931F93CF93DF93CDB7DEB7FA
:1003B000C05FD1090FB6F894DEBF0FBECDBF8C0170
:1003C00088EC90E0C752DF4F99838883C95DD040A5
:1003D000C552DF4F19821882CB5DD040C352DF4F28
:1003E00019821882CD5DD040C152DF4F1982188228
:1003F000CF5DD040CF51DF4F19821882C15ED0400F
:10040000CD51DF4F19821882C35ED0406AE072E09E
:10041000CE0101960E94200886E190E00E947E08AD
:100420007C01BE016F5F7F4F0E944D08F701138A68
:10043000128A158A148AC752DF4F88819981C95D53
:10044000D04097838683C552DF4F88819981CB5DE9
:10045000D04091878087C352DF4F88819981CD5DDD
:10046000D04093878287C152DF4F88819981CF5DC9
:10047000D04095878487CF51DF4F88819981C15EB5
:10048000D04097878687CD51DF4F88819981C35EA1
:10049000D040918B808BF801F182E082CE010196F1
:1004A0000E94B2076AE072E0CE0185519F4F0E9420
:1004B000200862ED71E0CE0185519F4F0E945608E1
:1004C00084E690E0C353DF4F99838883CD5CD040AE
:1004D000C153DF4F19821882CF5CD040CF52DF4F1B
:1004E00019821882C15DD040CD52DF4F1982188227
:1004F000C35DD040CB52DF4F19821882C55DD0401A
:10050000C952DF4F19821882C75DD040F801E080E0
:10051000F180BE0165517F4FCE0101960E944D08CA
:100520009701AE0143535F4FBE016F5F7F4FC8011C
:100530000E944001CE0101960E94B20764ED71E075
:10054000CE0185519F4F0E9456088CE0E6E0F1E015
:10055000DE01AF53BF4F01900D928A95E1F7F8018C
:10056000E080F180BE0165517F4FCE0101960E946F
:100570004D089701AE014F535F4FBE016F5F7F4F34
:10058000C8010E944001CE0101960E94B20766EDAB
:1005900071E0CE0185519F4F0E9456088CE0E2E148
:1005A000F1E0DE01AB54BF4F01900D928A95E1F767
:1005B000F801E080F180BE0165517F4FCE010196C8
:1005C0000E944D089701AE014B545F4FBE016F5F13
:1005D0007F4FC8010E944001CE0101960E94B207E0
:1005E00068ED71E0CE0185519F4F0E9456088CE066
:1005F000EEE1F1E0DE01A755BF4F01900D928A9523
:10060000E1F7F801E080F180BE0165517F4FCE0136
:1006100001960E944D089701AE0147555F4FBE01FC
:100620006F5F7F4FC8010E944001CE0101960E947A
:10063000B2076AED71E0CE0185519F4F0E945608C6
:100640008CE0EAE2F1E0DE01A356BF4F01900D928B
:100650008A95E1F7F801E080F180BE0165517F4F96
:10066000CE0101960E944D089701AE0143565F4F9F
:10067000BE016F5F7F4FC8010E944001CE0101960D
:100680000E94B2076CED71E0CE0185519F4F0E9430
:1006900056088CE0E6E3F1E0DE01AF56BF4F019073
:1006A0000D928A95E1F7F801E080F180BE01655175
:1006B0007F4FCE0101960E944D089701AE014F5623
:1006C0005F4FBE016F5F7F4FC8010E944001CE01A6
:1006D00001960E94B2076EED71E0CE0185519F4FE9
:1006E0000E9456088CE0E2E4F1E0DE01AB57BF4F18
:1006F00001900D928A95E1F7F801E080F180BE014A
:1007000065517F4FCE0101960E944D089701AE01C1
:100710004B575F4FBE016F5F7F4FC8010E94400182
:10072000CE0101960E94B20760EE71E0CE018551C4
:100730009F4F0E9456088CE0EEE4F1E0DE01A758DE
:10074000BF4F01900D928A95E1F7F801E080F180AA
:10075000BE0165517F4FCE0101960E944D08970161
:10076000AE0147585F4FBE016F5F7F4FC8010E94C7
:100770004001CE0101960E94B20763EE71E0CE0106
:1007800085519F4F0E9456088CE0EAE5F1E0DE01BA
:10079000A359BF4F01900D928A95E1F7F801E080CF
:1007A000F180BE0165517F4FCE0101960E944D0838
:1007B0009701AE0143595F4FBE016F5F7F4FC80184
:1007C0000E944001CE0101960E94B20765EE71E0E1
:1007D000CE0185519F4F0E9456088CE0E6E6F1E07D
:1007E000DE01AF59BF4F01900D928A95E1F7F801F4
:1007F000E080F180BE0165517F4FCE0101960E94DD
:100800004D089701AE014F595F4FBE016F5F7F4F9B
:10081000C8010E944001CE0101960E94B20767EE16
:1008200071E0CE0185519F4F0E9456088CE0E2E7AF
:10083000F1E0DE01AB5ABF4F01900D928A95E1F7CE
:10084000F801E080F180BE0165517F4FCE01019635
:100850000E944D089701AE014B5A5F4FBE016F5F7A
:100860007F4FC8010E944001CE0101960E94B2074D
:1008700069EE71E0CE0185519F4F0E9456088CE0D1
:10088000EEE7F1E0DE01A75BBF4F01900D928A9584
:10089000E1F7F801E080F180BE0165517F4FCE01A4
:1008A00001960E944D089701AE01475B5F4FBE0164
:1008B0006F5F7F4FC8010E944001CE0101960E94E8
:1008C000B2076CEE71E0CE0185519F4F0E94560831
:1008D0008CE0EAE8F1E0DE01DD9601900D928A9568
:1008E000E1F7F801E080F180BE0165517F4FCE0154
:1008F00001960E944D089701AE01435C5F4FBE0117
:100900006F5F7F4FC8010E944001CE0101960E9497
:10091000B2076FEE71E0CE0185519F4F0E945608DD
:100920008CE0E6E9F1E0DE01D19601900D928A9526
:10093000E1F7F801E080F180BE0165517F4FCE0103
:1009400001960E944D089701AE014F5C5F4FBE01BA
:100950006F5F7F4FC8010E944001CE0101960E9447
:10096000B2076FEE71E0CE0185519F4F0E9456088D
:100970008CE0E2EAF1E0DE01959601900D928A9515
:10098000E1F7F801E080F180BE0165517F4FCE01B3
:1009900001960E944D089701AE014B5D5F4FBE016D
:1009A0006F5F7F4FC8010E944001CE0101960E94F7
:1009B000B20762EF71E0CE0185519F4F0E94560849
:1009C0008CE0EEEAF1E0DE01599601900D928A95F5
:1009D000E1F7F801E080F180BE0165517F4FCE0163
:1009E00001960E944D089701AE01475E5F4FBE0120
:1009F0006F5F7F4FC8010E944001CE0101960E94A7
:100A0000B20764EF71E0CE0185519F4F0E945608F6
:100A10008CE0EAEBF1E0DE011D9601900D928A95E3
:100A2000E1F7F801E080F180BE0165517F4FCE0112
:100A300001960E944D089701AE01435F5F4FBE01D2
:100A40006F5F7F4FC8010E944001CE0101960E9456
:100A5000B20766EF71E0CE0185519F4F0E945608A4
:100A60008CE0E6ECF1E0DE01119601900D928A95A2
:100A7000E1F7F801E080F180BE0165517F4FCE01C2
:100A80008B519F4F0E944D089701AE014F5F5F4F02
:100A9000BE016B517F4FC8010E944001CE018B51B6
:100AA0009F4F0E94B207CE0185519F4F0E94B2070F
:100AB000C051DF4F0FB6F894DEBF0FBECDBFDF9140
:100AC000CF911F910F91FF90EF900895FC01818DC0
:100AD000228D90E0805C9F4F821B91098F73992734
:100AE0000895FC01918D828D981731F0828DE80F69
:100AF000F11D858D90E008958FEF9FEF0895FC0123
:100B0000918D828D981761F0828DDF01A80FB11D44
:100B10005D968C91928D9F5F9F73928F90E0089568
:100B20008FEF9FEF089583E097E0892B49F080E0F5
:100B300090E0892B29F00E94030781110C9400009A
:100B40000895FC01848DDF01A80FB11DA35ABF4F8A
:100B50002C91848D90E001968F739927848FA689BC
:100B6000B7892C93A089B1898C9180648C93938DE3
:100B7000848D981306C00288F389E02D80818F7DD3
:100B800080830895CF93DF93EC01888D8823C9F08B
:100B9000EA89FB89808185FD05C0A889B9898C9186
:100BA00086FD0FC00FB607FCF5CF808185FFF2CF21
:100BB000A889B9898C9185FFEDCFCE010E94A1054E
:100BC000E7CFDF91CF910895CF92DF92FF920F93FD
:100BD0001F93CF93DF931F92CDB7DEB76C0181E0F7
:100BE000D60158968C9358975B969C915B975C9630
:100BF0008C915C97981307C05096ED91FC9151979A
:100C0000808185FD2EC0F601038D10E00F5F1F4F20
:100C10000F731127F02EF601848DF81211C00FB654
:100C200007FCF9CFD6015096ED91FC915197808148
:100C300085FFF1CFC60169830E94A1056981EBCFD1
:100C4000838DE80FF11DE35AFF4F6083D6015B9659
:100C50000C935B975296ED91FC9153978081806243
:100C60000CC0D6015696ED91FC9157976083509633
:100C7000ED91FC91519780818064808381E090E0C8
:100C80000F90DF91CF911F910F91FF90DF90CF9048
:100C90000895BF92CF92DF92EF92FF92CF93DF93AE
:100CA000EC016A017B01B22EE889F98982E0808338
:100CB000411581EE580761057105A1F060E079E00A
:100CC0008DE390E0A70196010E94070921503109A8
:100CD000410951095695479537952795211580E18A
:100CE000380798F0E889F989108260E874E88EE1A5
:100CF00090E0A70196010E9407092150310941099E
:100D000051095695479537952795EC85FD85308394
:100D1000EE85FF852083188EEC89FD89B082EA89F3
:100D2000FB89808180618083EA89FB89808188607A
:100D30008083EA89FB89808180688083EA89FB89D6
:100D400080818F7D8083DF91CF91FF90EF90DF9046
:100D5000CF90BF9008951F920F920FB60F9211245B
:100D60002F938F939F93EF93FF93E0912C02F09139
:100D70002D028081E0913202F091330282FD12C097
:100D80009081809135028F5F8F7320913602821798
:100D900051F0E0913502F0E0E45EFD4F958F8093D5
:100DA000350201C08081FF91EF919F918F912F912A
:100DB0000F900FBE0F901F9018951F920F920FB6B5
:100DC0000F9211242F933F934F935F936F937F93D1
:100DD0008F939F93AF93BF93EF93FF938CE192E038
:100DE0000E94A105FF91EF91BF91AF919F918F91CB
:100DF0007F916F915F914F913F912F910F900FBE17
:100E00000F901F9018958CE192E00E94660521E0FA
:100E1000892B09F420E0822F089510921F0210926E
:100E20001E0288EE93E0A0E0B0E080932002909351
:100E30002102A0932202B09323028CEF91E09093C1
:100E40001D0280931C0285EC90E090932902809310
:100E5000280284EC90E090932B0280932A0280EC8D
:100E600090E090932D0280932C0281EC90E090937F
:100E70002F0280932E0282EC90E0909331028093B7
:100E8000300286EC90E0909333028093320210920D
:100E900035021092360210923702109238020895ED
:100EA000CF92DF92EF92FF920F931F93CF93DF9336
:100EB0006C017A01EB01E60EF71E00E010E0CE15A2
:100EC000DF0561F06991D601ED91FC910190F0810F
:100ED000E02DC6010995080F191FF1CFC801DF9158
:100EE000CF911F910F91FF90EF90DF90CF900895D9
:100EF0006115710581F0DB010D900020E9F7AD016E
:100F000041505109461B570BDC01ED91FC910280C9
:100F1000F381E02D099480E090E00895DC01ED91EB
:100F2000FC91DB0114964D915C9115976D917C912C
:100F30000280F381E02D099468E072E00C94780758
:100F40000F931F93CF93DF93EC010E948E078C01C8
:100F5000CE010E949C07800F911FDF91CF911F91BE
:100F60000F910895FC01808191810C94C709CF9362
:100F7000DF93EC0188819981009711F00E94C709E5
:100F8000198218821D821C821B821A82DF91CF91E6
:100F900008950F931F93CF93DF93EC018B016F5F45
:100FA0007F4F888199810E94560A009731F099837A
:100FB00088831B830A8381E001C080E0DF91CF91A9
:100FC0001F910F910895CF93DF93EC018881998150
:100FD000892B29F08A819B818617970760F4CE01BF
:100FE0000E94C907882341F08C819D81892B19F4C7
:100FF000E881F981108281E0DF91CF910895EF922D
:10100000FF920F931F93CF93DF93EC017B018A0133
:10101000BA010E94E307811104C0CE010E94B70704
:1010200007C01D830C83B701888199810E94290B19
:10103000CE01DF91CF911F910F91FF90EF90089516
:10104000FC011182108213821282158214826115B2
:10105000710559F0FB0101900020E9F7AF01415003
:101060005109461B570B0C94FF070895CF93DF934C
:10107000EC01FB018617970761F0608171816115B2
:10108000710529F0448155810E94FF0702C00E942A
:10109000B707CE01DF91CF910895FC011182108234
:1010A00013821282158214820C943608CF93DF9338
:1010B000EC016115710561F0FB0101900020E9F779
:1010C000AF0141505109461B570B0E94FF0702C058
:1010D0000E94B707CE01DF91CF91089508950E9435
:1010E000CC080E946E080E946100C3E9D5E00E940E
:1010F0006A002097E1F30E949305F9CF0C942F0921
:101100000C94C7091F920F920FB60F9211242F93C0
:101110003F938F939F93AF93BF938091BA02909127
:10112000BB02A091BC02B091BD023091B90223E094
:10113000230F2D3720F40196A11DB11D05C026E80F
:10114000230F0296A11DB11D2093B9028093BA020C
:101150009093BB02A093BC02B093BD028091BE02EB
:101160009091BF02A091C002B091C1020196A11D51
:10117000B11D8093BE029093BF02A093C002B093B2
:10118000C102BF91AF919F918F913F912F910F908D
:101190000FBE0F901F901895789484B5826084BD1F
:1011A00084B5816084BD85B5826085BD85B581606B
:1011B00085BDEEE6F0E0808181608083E1E8F0E0CB
:1011C0001082808182608083808181608083E0E8FA
:1011D000F0E0808181608083E1EBF0E080818460D9
:1011E0008083E0EBF0E0808181608083EAE7F0E0DB
:1011F000808184608083808182608083808181603F
:1012000080838081806880831092C1000895A1E26C
:101210001A2EAA1BBB1BFD010DC0AA1FBB1FEE1F70
:10122000FF1FA217B307E407F50720F0A21BB30BBB
:10123000E40BF50B661F771F881F991F1A9469F737
:1012400060957095809590959B01AC01BD01CF0193
:101250000895EE0FFF1F0590F491E02D0994CF93B0
:10126000DF938230910510F482E090E0E091C402B7
:10127000F091C50220E030E0A0E0B0E0309739F115
:101280004081518148175907B8F04817590771F440
:1012900082819381109729F013969C938E931297D5
:1012A0002CC09093C5028093C40227C0211531053C
:1012B00031F04217530718F0A901DB0101C0EF011B
:1012C0009A01BD01DF010280F381E02DD7CF211506
:1012D0003105F9F0281B390B2430310580F48A815F
:1012E0009B816115710521F0FB019383828304C00A
:1012F0009093C5028093C402FE01329644C0FE0161
:10130000E20FF31F8193919322503109398328838F
:101310003AC02091C2023091C302232B41F42091A4
:101320000201309103013093C3022093C202209145
:101330000001309101012115310541F42DB73EB76F
:101340004091040150910501241B350BE091C2022C
:10135000F091C302E217F307A0F42E1B3F0B2817EE
:10136000390778F0AC014E5F5F4F2417350748F01E
:101370004E0F5F1F5093C3024093C202819391931B
:1013800002C0E0E0F0E0CF01DF91CF910895CF936C
:10139000DF93009709F487C0FC0132971382128211
:1013A000C091C402D091C502209781F4208131817F
:1013B000280F391F8091C2029091C30282179307B0
:1013C00079F5F093C302E093C2026DC0DE0120E024
:1013D00030E0AE17BF0750F412964D915C91139711
:1013E0009D014115510509F1DA01F3CFB383A283C1
:1013F00040815181840F951F8A179B0771F48D914D
:101400009C911197840F951F029691838083129669
:101410008D919C911397938382832115310529F433
:10142000F093C502E093C4023EC0D9011396FC9329
:10143000EE9312974D915D91A40FB51FEA17FB072C
:1014400079F480819181840F951F0296D9011196BC
:101450009C938E938281938113969C938E93129783
:10146000E0E0F0E08A819B81009719F0FE01EC0139
:10147000F9CFCE01029628813981820F931F2091E6
:10148000C2023091C3022817390769F4309729F452
:101490001092C5021092C40202C013821282D0932D
:1014A000C302C093C202DF91CF910895A0E0B0E0E3
:1014B000ECE5FAE00C94340BEC01CB01209719F425
:1014C0000E942F09B8C0FE01E60FF71F9E012250AF
:1014D0003109E217F30708F4ACC0D9010D911C9152
:1014E000119706171707B8F00530110508F49FC0CB
:1014F000A801445051094617570708F498C00250F4
:101500001109061B170B019311936D937C93CF0167
:101510000E94C7098CC05B01A01AB10A4E01800E5F
:10152000911EA091C402B091C502612C712C60E0A3
:1015300070E0109709F449C0A815B905C9F5ED90F8
:10154000FC901197670142E0C40ED11CCA14DB0461
:1015500078F147018A189B08640142E0C40ED11C4F
:101560001296BC9012971396AC91B5E0CB16D104AD
:1015700040F0B282A38391828082D9018D939C93A3
:1015800009C00E5F1F4F0E0D1F1DF901118300834F
:10159000EB2DFA2F6115710531F0DB011396FC93E9
:1015A000EE93129744C0F093C502E093C4023FC08B
:1015B0006D917C9111976616770608F43B01BD0189
:1015C00012960D90BC91A02DB4CF6091C202709183
:1015D000C30268157905E9F468167906D0F44091DC
:1015E0000001509101014115510541F44DB75EB71D
:1015F0006091040170910501461B570BE417F50734
:10160000C0F4F093C302E093C202F9019183808396
:101610000EC00E942F097C01009759F0A801BE015D
:101620000E94200BCE010E94C709C70104C0CE0151
:1016300002C080E090E0CDB7DEB7EEE00C94500B36
:10164000FB01DC0102C001900D9241505040D8F7DF
:101650000895FB01DC0101900D920020E1F708954F
:101660002F923F924F925F926F927F928F929F92B2
:10167000AF92BF92CF92DF92EF92FF920F931F93A0
:10168000CF93DF93CDB7DEB7CA1BDB0B0FB6F89451
:10169000DEBF0FBECDBF09942A88398848885F8491
:1016A0006E847D848C849B84AA84B984C884DF8002
:1016B000EE80FD800C811B81AA81B981CE0FD11DE6
:1016C0000FB6F894DEBF0FBECDBFED01089510E058
:1016D000CCE6D0E004C0FE010E942B092296CE3653
:0816E000D107C9F7F894FFCF10
:1016E8000000C602800064006400000000000000E2
:1016F8000000640064006400000000000000640052
:101708006400640064000000000064006400640079
:1017180064006400000064006400640064002C013C
:1017280000006400640064002C01000000006400F4
:10173800640064002C01640000006400640064001C
:101748002C012C010000640064002C010000000042
:101758000000640064002C016400000000006400C4
:1017680064002C01640064000000640064002C0123
:101778002C0100000000640064002C012C016400AE
:101788000000640064002C012C0164006400640003
:1017980064002C012C0164002C0164002C01000061
:1017A8000000000000002C016400640064000000D8
:1017B8000000450049005300480035003400560039
:1017C800C59C00330055004600C38900C39C00C374
:1017D80090005F004100420000000000E40550074F
:1017E80066057F057105C2050D0A006E616E006908
:0A17F8006E66006F7666002E00009A
:00000001FF
