:100000000C946E000C9496000C9496000C94960040
:100010000C9496000C9496000C9496000C94960008
:100020000C9496000C9496000C9496000C949600F8
:100030000C9496000C9496000C9496000C949600E8
:100040000C94CA0E0C9496000C94F40B0C94260C91
:100050000C9496000C9496000C9496000C949600C8
:100060000C94E3030C949600072C7AA5BA6CC59007
:10007000DA3B9365FC8BBC53F810FD3C5692834DE4
:10008000BD879D3AB63DCBC9BF5BBE73DA0FC93F92
:100090000000000800020100000304070000000047
:1000A0000000000001020408102040800102040842
:1000B00010200102040810200404040404040404B1
:1000C0000202020202020303030303030000000012
:1000D000250028002B00A802E105560C11241FBEA4
:1000E000CFEFD8E0DEBFCDBF11E0A0E0B1E0E2E4A9
:1000F000F6E202C005900D92AE3EB107D9F723E0BB
:10010000AEEEB1E001C01D92A439B207E1F710E0F4
:10011000CCEDD0E004C02297FE010E941613C63D2C
:10012000D107C9F70E94BB0E0C941F130C9400005A
:100130004F925F926F927F928F929F92AF92BF92F7
:10014000CF92DF92EF92FF92CF93DF9300D000D057
:10015000CDB7DEB720E032E042E052E064E072E08A
:100160008FE192E00E94FF05609104027091050208
:10017000882777FD8095982F0E9440112B013C0124
:100180006091020270910302882777FD8095982F75
:100190000E9440114B015C016091000270910102CC
:1001A000882777FD8095982F0E94401169837A8374
:1001B0008B839C83A3019201C301B2010E9434127C
:1001C0006B017C01A5019401C501B4010E943412A8
:1001D0009B01AC01C701B6010E943D106B017C017F
:1001E00029813A814B815C81CA01B9010E94341294
:1001F0009B01AC01C701B6010E943D100E949B12F9
:100200006B017C016093FC017093FD018093FE0102
:100210009093FF019B01AC01C301B2010E94A510A4
:100220000E942E1020E030E044E353E40E94341298
:100230002BED3FE049E450E40E94A5106093F801E3
:100240007093F9018093FA019093FB01A701960145
:10025000C501B4010E94A5100E942E1020E030E0DC
:1002600044E353E40E9434122BED3FE049E450E4B0
:100270000E94A5106093F4017093F5018093F6013C
:100280009093F701A701960169817A818B819C8106
:100290000E94A5100E942E1020E030E044E353E4B9
:1002A0000E9434122BED3FE049E450E40E94A51077
:1002B0006093F0017093F1018093F2019093F30148
:1002C0006AE071E08EEE92E00E94D70C4091FC0152
:1002D0005091FD016091FE017091FF0122E030E03C
:1002E0008EEE92E00E94A60E69E071E08EEE92E042
:1002F0000E94D70C4091F8015091F9016091FA01E8
:100300007091FB0122E030E08EEE92E00E94A60E9A
:100310006EE071E08EEE92E00E94D70C4091F40105
:100320005091F5016091F6017091F70122E030E003
:100330008EEE92E00E94A60E63E171E08EEE92E0F6
:100340000E94D70C4091F0015091F1016091F201AF
:100350007091F30122E030E08EEE92E00E94A60E52
:1003600061EE71E08EEE92E00E94E40C40E060E00D
:1003700086E092E00E940A0769E071E086E092E080
:100380000E94D70C20E030E040E05FE36091F8018C
:100390007091F9018091FA019091FB010E943D104A
:1003A0000E940D114AE050E086E092E00E94990D13
:1003B00068E171E086E092E00E94D70C40E069E0DD
:1003C00086E092E00E940A076EE071E086E092E02B
:1003D0000E94D70C20E030E040E05FE36091F40140
:1003E0007091F5018091F6019091F7010E943D1006
:1003F0000E940D114AE050E086E092E00E94990DC3
:1004000068E171E086E092E00E94D70C41E060E094
:1004100086E092E00E940A0763E171E086E092E0E4
:100420000E94D70C20E030E040E05FE36091F001F3
:100430007091F1018091F2019091F3010E943D10C1
:100440000E940D114AE050E086E092E00E94990D72
:1004500068E171E086E092E00E94D70C8091EE01A5
:100460000E94B10F7C016BE171E08EEE92E00E9480
:10047000D70C4AE050E0B7018EEE92E00E94A10D49
:10048000B701605A7109882777FD8095982F0E94DF
:10049000401120E030E044E353E40E94341220E0B5
:1004A00030EC42E354E40E94A51020E030E044EB3D
:1004B00052E40E943C106B017C0120E030E0A90175
:1004C0000E94A11087FF0AC020E030E044EB53E413
:1004D000C701B6010E943D106B017C0168E271E02A
:1004E0008EEE92E00E94D70C22E030E0B701A60128
:1004F0008EEE92E00E94A60E68E271E086E092E045
:100500000E94D70C22E030E0B701A60186E092E01D
:100510000E94A40E68E171E086E092E00E94D70C90
:1005200064E670E080E090E00F900F900F900F90E5
:10053000DF91CF91FF90EF90DF90CF90BF90AF9081
:100540009F908F907F906F905F904F900C94430F8F
:100550008F92AF92CF92EF920F938FE192E00E9431
:10056000E5051F921F9283E08F9387E0882E96E027
:10057000A92E25E0C22E34E0E32E00E021E042E087
:1005800067E286E092E00E9450080F900F900F9073
:100590000F91EF90CF90AF908F9008958CE992E0FB
:1005A0000E94A70526E040E855E260E070E08EEE8C
:1005B00092E00E94920B20E042E060E186E092E04F
:1005C0000E94DE0886E092E00E94030765E671E083
:1005D0008EEE92E00E94E40C8FE192E00E945106C0
:1005E00061E871E08EEE92E00E94E40C8FE192E00F
:1005F0000E948106882319F06DE271E002C06BE46D
:1006000071E08EEE92E00C94E40C10929B0281E07B
:10061000809399021092980261E082E10E94F70FA4
:1006200061E083E10E94F70FE9EBF0E080818E7FCB
:10063000808380818D7F808388E48093B80085E407
:100640008093BC000895413208F03FC090919B0216
:100650009111FCCF91E090939B02209399022FEF90
:1006600020932E0210927302240F20937202909313
:100670009A0290919A02880F892B80939A02809116
:100680009802813041F41092980280919A028093EE
:10069000BB0085EC01C085EE8093BC0080919B027D
:1006A0008130E1F380917302841710F4409173025A
:1006B00024E732E0FB01D9018A2F821B841718F44A
:1006C0008D918193F9CF842F089580E008950F9341
:1006D000413208F046C090919B029111FCCF92E00C
:1006E00090939B02009399029FEF90932E02109299
:1006F000730240937202FB0164E772E0DB019A2F00
:10070000961B941718F491919D93F9CF10929A0229
:1007100090919A02880F892B80939A028091980277
:10072000813041F41092980280919A028093BB002C
:1007300085EC01C085EE8093BC00222321F08091DE
:100740009B028230E1F380912E028F3F61F0809115
:100750002E02803251F080912E02803341F483E0EA
:1007600007C081E005C080E003C082E001C084E0F2
:100770000F910895613298F420919B02243089F4FE
:1007800060935002FC0182E592E0DC012A2F281BD5
:10079000261718F421912D93F9CF80E0089581E078
:1007A000089582E0089585ED8093BC008091BC009F
:1007B00084FDFCCF10929B02089585EC8093BC00D1
:1007C00010929B0208951F920F920FB60F92112460
:1007D0002F933F934F935F936F937F938F939F9349
:1007E000AF93BF93EF93FF938091B900887F8036DA
:1007F00009F49CC068F5883209F45BC090F480313C
:1008000009F454C038F4882309F4F5C0883009F499
:100810004DC0F5C0883109F44CC0803209F45DC088
:10082000EEC0803409F468C048F4803309F455C040
:10083000883309F0E4C080932E02A8C0803509F403
:100840004FC0883509F45DC0883409F0D8C0D5C0E0
:10085000883909F4C6C0A8F4883709F467C038F4A9
:10086000883609F463C0803709F460C0C8C088388E
:1008700009F4B7C0803909F45FC0803809F0BFC0FF
:100880005BC0803B09F485C038F4803A09F466C047
:10089000883A09F47EC0B3C0803C09F4A6C0883C05
:1008A00009F4A3C0883B09F489C0A9C080919A02C9
:1008B00010C09091730280917202981770F5E091C8
:1008C000730281E08E0F80937302F0E0EC58FD4FCD
:1008D00080818093BB0085EC85C080932E028DC003
:1008E000E091730281E08E0F809373028091BB00D0
:1008F000F0E0EC58FD4F808390917302809172027A
:100900006DC0E091730281E08E0F8093730280913D
:10091000BB00F0E0EC58FD4F80838091990281117B
:100920006CC081E08093980284EA60C083E0809389
:100930009B0210922F02CFCF80912F02803208F0BD
:1009400050C0E0912F0281E08E0F80932F028091A2
:10095000BB00F0E0E05DFD4F8083BDCF80912F02B2
:10096000803230F4E0912F02F0E0E05DFD4F108224
:100970000E94D30360912F0270E0E0919402F09105
:10098000950280E392E0099510922F020E94DD0308
:1009900036C084E080939B02109251021092500264
:1009A000E0919602F0919702099580915002811191
:1009B00005C081E08093500210925202E0915102F2
:1009C00081E08E0F80935102F0E0EE5AFD4F80815E
:1009D0008093BB009091510280915002981708F4C7
:1009E0007ACF85E88093BC000AC085EC8093BC0078
:1009F00010929B0204C010922E020E94D303FF911A
:100A0000EF91BF91AF919F918F917F916F915F9186
:100A10004F913F912F910F900FBE0F901F901895FF
:100A20008091CC0290E02091CD02821B9109089523
:100A30002091CD028091CC02281750F4E22FF0E0F3
:100A4000E253FD4F808190E02F5F2093CD02089507
:100A50008FEF9FEF0895E091CD028091CC02E817CF
:100A600030F4F0E0E253FD4F808190E008958FEF85
:100A70009FEF08950895CF92DF92EF92FF920F9328
:100A80001F93CF93DF937C01CB018A012091A802B1
:100A9000222389F0EB016B01C40ED51ECC15DD05B8
:100AA00069F06991D701ED91FC910190F081E02D01
:100AB000C7010995F3CF642F0E94BA03C801DF91E3
:100AC000CF911F910F91FF90EF90DF90CF900895FD
:100AD000CF93DF931F92CDB7DEB769832091A80231
:100AE0002223D1F02091A902203240F021E030E011
:100AF000FC013383228380E090E015C08091AA023C
:100B0000E82FF0E0E555FD4F998190838F5F80934A
:100B1000AA028093A90205C061E0CE0101960E945D
:100B2000BA0381E090E00F90DF91CF910895FC012E
:100B30001382128248EE53E060E070E044835583F4
:100B40006683778383EA91E091838083089510928E
:100B5000CD021092CC021092AA021092A9020C941B
:100B60000503862F413208F040E26EEC72E00E94ED
:100B700023031092CD028093CC02089521E00C94BF
:100B8000B10581E08093A8026093CB021092AA0283
:100B90001092A90208950F93062F21E04091A90217
:100BA0006BEA72E08091CB020E9467031092AA0266
:100BB0001092A9021092A8020F91089561E00C947E
:100BC000CB058CE992E00C94970528E6FC01208384
:100BD00008950F93062F22E044E06BE1FC01808131
:100BE0000E94690A0F9108950F93062F22E044E0B6
:100BF0006CE1FC0180810E94690A0F910895AF9217
:100C0000BF92CF92DF92EF92FF920F931F93CF93F9
:100C1000DF93EC017B015A016901009106011091FB
:100C200007019C012F5F3F4F46E06BE388810E94E4
:100C30004209898190E0982F88272A81822BF70129
:100C4000918380838B8190E0982F88272C81822B41
:100C5000F501918380838D8190E0982F88272E81E4
:100C6000822BF60191838083DF91CF911F910F91A9
:100C7000FF90EF90DF90CF90BF90AF900895262F18
:100C800046E06BE6FC0180810C94360A0F93062F38
:100C900023E042E06BE6FC0180810E94690A0F912B
:100CA0000895CF93DF93EC0161E00E94460660E077
:100CB000CE010E94E90560E0CE010E94F40560E0EB
:100CC000CE01DF91CF910C943F06EF92FF920F93EC
:100CD0001F93CF93DF93EC01E0900601F0900701A2
:100CE0008C010F5F1F4F26E046E065E788810E9478
:100CF000F9098981DF91CF911F910F91FF90EF90BA
:100D000008950E94650691E0843309F090E0892FF0
:100D10000895FC0112828FEF81831082138208955F
:100D2000FC018381882331F0611103C08FEF81833F
:100D3000089511820895CF93DF93EC016A838CE9C3
:100D400092E00E94A70541E06A818CE992E00E944E
:100D5000BE0591E0811101C090E09B838CE992E097
:100D60000E94180588838B8190E0DF91CF910895D0
:100D7000CF93DF93EC018B818823A9F08981809543
:100D8000862388836A818CE992E00E94C10568818C
:100D90008CE992E00E9468058CE992E00E94DE05F1
:100DA000282F30E002C020E030E081E090E0232BEB
:100DB00011F080E090E0DF91CF91089508950895BB
:100DC000DC01ED91FC910284F385E02D41E0099571
:100DD00081E090E00895FC011382128223EB31E060
:100DE000318320830895DC01ED91FC910084F1852D
:100DF000E02D6FEF0994DC01ED91FC910284F38505
:100E0000E02D40E0099461E00E94FB0680ED97E050
:100E10000C946B0FCF93DF93CDB7DEB728970FB647
:100E2000F894DEBF0FBECDBF1D8220E42E8334E1D7
:100E30003F8334E5388719822A8320E12B8320E51C
:100E40002C83FC012781421710F04FEF420FFC0169
:100E5000308550E0FE01E40FF51F303121F42430DD
:100E600011F4218101C02581260F2068622F289668
:100E70000FB6F894DEBF0FBECDBFDF91CF910C94BB
:100E8000FB06FC016581262F246025836C600C9491
:100E9000FB06CF93DF93EC01423018F08C81886021
:100EA0008C834F836887222329F0413019F48C8189
:100EB00084608C8364E670E080E090E00E94430FE1
:100EC0006C8164FD31C0E881F9810284F385E02DF5
:100ED00042E063E0CE01099584E991E10E946B0F45
:100EE000E881F9810284F385E02D42E063E0CE01E0
:100EF000099584E991E10E946B0FE881F9810284F0
:100F0000F385E02D42E063E0CE01099586E990E0AB
:100F10000E946B0FE881F9810284F385E02D42E0A5
:100F200062E0CE01099516C06062CE010E94FB0608
:100F300084E991E10E946B0F6C816062CE010E9496
:100F4000FB0686E990E00E946B0F6C816062CE0127
:100F50000E94FB066C816062CE010E94FB0684E069
:100F60008D83CE010E944107CE010E94030782E0DB
:100F70008E8366E0CE010E94FB06CE01DF91CF9109
:100F80000C94F30621E001C0220F6A95EAF7DC0118
:100F90001C962C931C971A965C934E931997ED917F
:100FA000FC910084F185E02D60E00994FC0124852A
:100FB000222399F081859285009719F4611105C06B
:100FC00006C0019721F4611102C0258701C0158672
:100FD0006585CF010E960C94B80608950F931F9364
:100FE000CF93DF93EC018C01025F1F4F6B85C8012B
:100FF0000E949B06019761F461E0C8010E9490067F
:101000001C8260E0C8010E94B80681E090E002C046
:1010100080E090E0DF91CF911F910F9108958F9222
:10102000AF92CF92EF920F93CF93DF93CDB7DEB70E
:10103000FC016387148615861286118681E0982F3D
:1010400001C0990F4A95EAF7928B982F01C0990F2A
:101050002A95EAF7938B982F01C0990F0A95EAF722
:10106000948B982F01C0990FEA94EAF7958B982FEB
:1010700001C0990FCA94EAF7968B982F01C0990F77
:10108000AA94EAF7978B01C0880F8A94EAF7808FB9
:10109000DF91CF910F91EF90CF90AF908F90089507
:1010A0004F925F926F927F928F92AF92CF92EF9218
:1010B0000F931F93CF93DF9300D01F92CDB7DEB76E
:1010C0003C011A894B885C882B834A8369830E9480
:1010D000EB0683EC91E0F30191838083C3010E96CC
:1010E0000E9489062B814A816981C3010E940F08F1
:1010F000A201612FC3010F900F900F90DF91CF914C
:101100001F910F91EF90CF90AF908F907F906F9045
:101110005F904F900C94C207FF920F931F93CF9351
:10112000DF93EC01F62E8C01025F1F4F6A896F2955
:10113000C8010E94B8066A8960956F21C801DF91D5
:10114000CF911F910F91FF900C94B80620E030E0F2
:1011500050E060FF05C0FC01E20FF31F7589572BBB
:1011600066952F5F3F4F2430310599F7413011F4D8
:10117000FC014489FC016585652B642B0C948C086B
:101180000F931F93CF93DF93EC01142F062F0F7053
:10119000423011F440E00AC070E084E07595679534
:1011A0008A95E1F7CE010E94A608412F602FCE015B
:1011B000DF91CF911F910F910C94A6080F931F936D
:1011C000CF93DF9300D01F92CDB7DEB78C012B8376
:1011D0004A8369830E94EE072B814A816981C80195
:1011E0000F900F900F90DF91CF911F910F910C9462
:1011F0004907EF92FF920F931F93CF93DF9300D095
:10120000CDB7DEB7062F142F682F8CE992E0298323
:101210003A830E94C105602F8CE992E00E94680524
:101220002981022FE22E3A81F32E8E2D801B811709
:1012300040F4F70161917F018CE992E00E9468051A
:10124000F4CF8CE992E00E94DE0591E0811190E0FC
:10125000892F0F900F90DF91CF911F910F91FF90E9
:10126000EF900895CF93DF931F92CDB7DEB74983F8
:101270009E012F5F3F4F41E00E94F9080F90DF91E0
:10128000CF9108953F924F925F926F927F928F928B
:101290009F92AF92BF92CF92DF92EF92FF920F9305
:1012A0001F93CF93DF9300D000D000D0CDB7DEB72F
:1012B000682E562E742E3A8329830E94140F6B01D8
:1012C0007C01312C412C872D90E09C838B8348013D
:1012D000A12CB12C3714B0F5662D8CE992E00E9458
:1012E000C105652D8CE992E00E9468058CE992E0C9
:1012F0000E94DE05662D8CE992E00E94C1054B81BB
:101300005C81431951094132510514F040E250E02B
:10131000662D8CE992E00E94BE058CE992E00E9465
:101320001005892B59F10115110579F10E94140F4F
:101330006C197D098E099F09681579058A059B0539
:1013400020F11CC00115110589F10E94140F6C19C0
:101350007D098E099F0920E030E060177107820740
:10136000930720F1872D90E0242D332727FD30951A
:1013700028173907DCF444244A9418C0872D90E2DA
:10138000971508F480E2380EA5CFE981FA81E40DC3
:10139000F11D47FCFA95FE83ED838CE992E00E94F3
:1013A0001805ED81FE8180834394B7CF842D269666
:1013B0000FB6F894DEBF0FBECDBFDF91CF911F9166
:1013C0000F91FF90EF90DF90CF90BF90AF909F90E4
:1013D0008F907F906F905F904F903F9008950F9304
:1013E0001F9389019A0141E00E9442091F910F91C8
:1013F0000895CF92DF92EF92FF920F931F93CF93B6
:10140000DF931F92CDB7DEB7C42ED22E9701AE0167
:101410004F5F5F4F0E94EF098823F1F04C2D50E0A1
:101420004D1951094F5F5F4F61E070E002C0660FD8
:10143000771FDA94E2F761507109042E01C0660F3C
:101440000A94EAF72981262330E002C035952795D2
:101450004A95E2F7F80120830F90DF91CF911F9119
:101460000F91FF90EF90DF90CF900895EF92FF9251
:101470000F931F93CF93DF931F92CDB7DEB7182F33
:10148000062FF42EE22E2091060130910701AE01C5
:101490004F5F5F4F0E94EF09898121E030E00F2C00
:1014A00001C0220F0A94EAF7EE2019F0482F422BD0
:1014B00003C0422F409548234983602F812F0E940B
:1014C00032090F90DF91CF911F910F91FF90EF9014
:1014D0000895DF92EF92FF920F931F93CF93DF93C4
:1014E0001F92CDB7DEB7F82EE62ED42E122F209104
:1014F000060130910701AE014F5F5F4F0E94EF0977
:10150000882319F14D2D50E0411B51094F5F5F4F6A
:10151000E1E0F0E002C0EE0FFF1F1A95E2F731970D
:10152000042E01C0EE0F0A94EAF701C0000F4A959D
:10153000EAF74E2F409589814823E0234E2B4983BB
:101540006E2D8F2D0E94320901C080E00F90DF9137
:10155000CF911F910F91FF90EF90DF900895FC01C4
:10156000818D228D90E0805C9F4F821B91098F734B
:1015700099270895FC01918D828D981731F0828D05
:10158000E80FF11D858D90E008958FEF9FEF08958E
:10159000FC01918D828D981761F0828DDF01A80F7B
:1015A000B11D5D968C91928D9F5F9F73928F90E09D
:1015B00008958FEF9FEF08958CE49CE0892B49F00C
:1015C00080E090E0892B29F00E944C0C81110C9452
:1015D00000000895FC01848DDF01A80FB11DA35AFE
:1015E000BF4F2C91848D90E001968F739927848F43
:1015F000A689B7892C93A089B1898C9180648C933A
:10160000938D848D981306C00288F389E02D808124
:101610008F7D80830895CF93DF93EC01888D88239D
:10162000C9F0EA89FB89808185FD05C0A889B9894F
:101630008C9186FD0FC00FB607FCF5CF808185FF2A
:10164000F2CFA889B9898C9185FFEDCFCE010E9498
:10165000EA0AE7CFDF91CF910895CF92DF92FF9210
:101660000F931F93CF93DF931F92CDB7DEB76C011B
:1016700081E0D60158968C9358975B969C915B9726
:101680005C968C915C97981307C05096ED91FC91F5
:101690005197808185FD2EC0F601038D10E00F5F0C
:1016A0001F4F0F731127F02EF601848DF81211C011
:1016B0000FB607FCF9CFD6015096ED91FC915197EA
:1016C000808185FFF1CFC60169830E94EA0A6981A2
:1016D000EBCF838DE80FF11DE35AFF4F6083D601F6
:1016E0005B960C935B975296ED91FC91539780819A
:1016F00080620CC0D6015696ED91FC91579760839D
:101700005096ED91FC91519780818064808381E0B7
:1017100090E00F90DF91CF911F910F91FF90DF909C
:10172000CF900895BF92CF92DF92EF92FF92CF9326
:10173000DF93EC016A017B01B22EE889F98982E02E
:101740008083411581EE580761057105A1F060E0C5
:1017500079E08DE390E0A70196010E94F2122150FA
:101760003109410951095695479537952795211516
:1017700080E1380798F0E889F989108260E874E818
:101780008EE190E0A70196010E94F21221503109EA
:10179000410951095695479537952795EC85FD8563
:1017A0003083EE85FF852083188EEC89FD89B08219
:1017B000EA89FB89808180618083EA89FB89808155
:1017C00088608083EA89FB89808180688083EA89D8
:1017D000FB8980818F7D8083DF91CF91FF90EF9097
:1017E000DF90CF90BF9008951F920F920FB60F9287
:1017F00011242F938F939F93EF93FF93E091FE0219
:10180000F091FF028081E0910403F091050382FDD5
:1018100012C09081809107038F5F8F73209108031E
:10182000821751F0E0910703F0E0E251FD4F958FF0
:101830008093070301C08081FF91EF919F918F9169
:101840002F910F900FBE0F901F9018951F920F921F
:101850000FB60F9211242F933F934F935F936F9383
:101860007F938F939F93AF93BF93EF93FF938EEEEE
:1018700092E00E94EA0AFF91EF91BF91AF919F9190
:101880008F917F916F915F914F913F912F910F9029
:101890000FBE0F901F9018958EEE92E00E94AF0A37
:1018A00021E0892B09F420E0822F08951092F102A3
:1018B0001092F00288EE93E0A0E0B0E08093F20294
:1018C0009093F302A093F402B093F50283ED91E0BC
:1018D0009093EF028093EE0285EC90E09093FB02F0
:1018E0008093FA0284EC90E09093FD028093FC02D6
:1018F00080EC90E09093FF028093FE0281EC90E0F8
:10190000909301038093000382EC90E09093030393
:101910008093020386EC90E0909305038093040388
:1019200010920703109208031092090310920A0301
:101930000895CF92DF92EF92FF920F931F93CF9370
:10194000DF936C017A01EB01E60EF71E00E010E078
:10195000CE15DF0561F06991D601ED91FC91019002
:10196000F081E02DC6010995080F191FF1CFC801BC
:10197000DF91CF911F910F91FF90EF90DF90CF906B
:1019800008956115710581F0DB010D900020E9F7E4
:10199000AD0141505109461B570BDC01ED91FC9103
:1019A0000280F381E02D099480E090E008950C948A
:1019B000C10CDC01ED91FC910190F081E02D0994C6
:1019C0006FED71E00C94C10C0F931F93CF93DF93D5
:1019D000EC010E94C10C8C01CE010E94E00C800F32
:1019E000911FDF91CF911F910F9108958F929F9238
:1019F000AF92BF92CF92DF92EF92FF920F931F931D
:101A0000CF93DF93CDB7DEB7A1970FB6F894DEBFC3
:101A10000FBECDBF7C01C42EE52FCB01D22E19A263
:101A200021E02D1510F02AE0D22E8E010F5D1F4F00
:101A30008D2C912CA12CB12C6C2D7E2FA501940105
:101A40000E94F2128C2DD29E80191124015011098E
:101A50008A3014F4805D01C0895CF801808321150F
:101A600031054105510521F0C22EE32FCA01E4CF13
:101A7000B801C7010E94C10CA1960FB6F894DEBF51
:101A80000FBECDBFDF91CF911F910F91FF90EF90CF
:101A9000DF90CF90BF90AF909F908F900895CF929E
:101AA000DF92EF92FF920F931F93CF93DF93EC019E
:101AB0006A017B012115310579F4E881F9810190F2
:101AC000F081E02D642FDF91CF911F910F91FF9056
:101AD000EF90DF90CF9009942A303105E9F477FF39
:101AE0001AC06DE20E94D90C8C0144275527BA0117
:101AF0004C195D096E097F092AE0CE010E94F60C9F
:101B0000800F911FDF91CF911F910F91FF90EF9068
:101B1000DF90CF9008952AE0B701A601CE01DF91B2
:101B2000CF911F910F91FF90EF90DF90CF900C9489
:101B3000F60C9A01AB01662757FD6095762F0C9441
:101B40004F0D0F931F93CF93DF93EC019A01AB01DD
:101B5000662757FD6095762F0E944F0D8C01CE01B0
:101B60000E94E00C800F911FDF91CF911F910F9188
:101B700008954F925F926F927F928F929F92AF9251
:101B8000BF92CF92DF92EF92FF920F931F93CF936A
:101B9000DF93EC016A017B01B22E9A01AB01C70110
:101BA000B6010E94D912882319F062EE71E027C0B5
:101BB00026013701E89477F82FEF3FEF4FE75FE713
:101BC000C301B2010E94D91281110DC02FEF3FEF66
:101BD0004FE75FE7C301B2010E94A11018161CF481
:101BE00066EE71E00CC02FEF3FEF4FE75FE4C701F7
:101BF000B6010E9430121816ACF46AEE71E0CE0104
:101C0000DF91CF911F910F91FF90EF90DF90CF90D8
:101C1000BF90AF909F908F907F906F905F904F900C
:101C20000C94C10C2FEF3FEF4FE75FECC701B601FB
:101C30000E94A11087FDE1CF20E030E0A901C7019B
:101C4000B6010E94A11087FF0AC06DE2CE010E947A
:101C5000D90C8C01F7FAF094F7F8F09402C000E088
:101C600010E0A12C60E070E080E09FE3AB1441F055
:101C700020E030E040E251E40E94A510A394F6CFAA
:101C80009B01AC01C701B6010E943D106B017C01B4
:101C90000E9412112B013C010E943E119B01AC01DC
:101CA000C701B6010E943C106B017C012AE0B30120
:101CB000A201CE010E94F60C080F191FBB2039F0BB
:101CC0006FE771E0CE010E94C10C080F191F7B2C39
:101CD000772041F120E030E040E251E4C701B60155
:101CE0000E9434126B017C010E940D114B01AA2449
:101CF00097FCA094BA2C2AE030E0B501A401CE01F3
:101D00000E944F0D080F191FC501B4010E94401118
:101D10009B01AC01C701B6010E943C106B017C0124
:101D20007A94D6CFC801DF91CF911F910F91FF9088
:101D3000EF90DF90CF90BF90AF909F908F907F906B
:101D40006F905F904F9008950C94B90D0F931F936F
:101D5000CF93DF93EC010E94B90D8C01CE010E945C
:101D6000E00C800F911FDF91CF911F910F9108958B
:101D70000E941A1308950E94760F0E94BA0E0E94C4
:101D8000CE02CCEDDAE00E9498002097E1F30E94A9
:101D9000DC0AF9CF1F920F920FB60F9211242F93E6
:101DA0003F938F939F93AF93BF9380918C039091B8
:101DB0008D03A0918E03B0918F0330918B0323E0AC
:101DC000230F2D3720F40196A11DB11D05C026E873
:101DD000230F0296A11DB11D20938B0380938C03CA
:101DE00090938D03A0938E03B0938F038091900303
:101DF00090919103A0919203B09193030196A11D3C
:101E0000B11D8093900390939103A0939203B0939C
:101E10009303BF91AF919F918F913F912F910F901D
:101E20000FBE0F901F9018952FB7F89460918C03F8
:101E300070918D0380918E0390918F032FBF089531
:101E40003FB7F8948091900390919103A0919203F1
:101E5000B091930326B5A89B05C02F3F19F00196BA
:101E6000A11DB11D3FBF6627782F892F9A2F620FC2
:101E7000711D811D911D42E0660F771F881F991FFC
:101E80004A95D1F70895CF92DF92EF92FF92CF93C8
:101E9000DF936B017C010E94200FEB01C114D10480
:101EA000E104F10489F00E942D100E94200F6C1BA8
:101EB0007D0B683E734090F381E0C81AD108E108B9
:101EC000F108C851DC4FEACFDF91CF91FF90EF903E
:101ED000DF90CF9008958230910538F0880F991FD8
:101EE000880F991F05970197F1F70895789484B5A5
:101EF000826084BD84B5816084BD85B5826085BD06
:101F000085B5816085BDEEE6F0E0808181608083EB
:101F1000E1E8F0E0108280818260808380818160CE
:101F20008083E0E8F0E0808181608083E1EBF0E095
:101F3000808184608083E0EBF0E080818160808339
:101F4000EAE7F0E080818460808380818260808322
:101F50008081816080838081806880831092C1004D
:101F600008958E3008F08E5087702091080190E41B
:101F7000299F90011124822B80937C0080917A000C
:101F8000806480937A0080917A0086FDFCCF8091F6
:101F900078002091790090E0922B0895833081F0B1
:101FA00028F4813099F08230A1F008958730A9F0AB
:101FB0008830B9F08430D1F4809180008F7D03C0E7
:101FC000809180008F7780938000089584B58F770B
:101FD00002C084B58F7D84BD08958091B0008F7755
:101FE00003C08091B0008F7D8093B00008950F935F
:101FF0001F93CF93DF931F92CDB7DEB7282F30E02A
:10200000F901E057FF4F8491F901EC55FF4F14910E
:10201000F901E854FF4F04910023C9F0882321F00F
:1020200069830E94CE0F6981E02FF0E0EE0FFF1F61
:10203000E453FF4FA591B4919FB7F8948C9161112F
:1020400003C01095812301C0812B8C939FBF0F90FB
:10205000DF91CF911F910F91089508959F939F77DE
:102060004AD10F9000203AF49058A2EA2AED3FE0BE
:1020700049E450E413D0BAC15058BB27AA270ED068
:10208000B5C1A6D130F0ABD120F031F49F3F11F4AF
:102090001EF476C10EF4E095E7FB6CC1E92FB7D1D1
:1020A00080F3BA17620773078407950718F071F475
:1020B0009EF5CFC10EF4E0950B2EBA2FA02D0B018B
:1020C000B90190010C01CA01A0011124FF27591B7D
:1020D00099F0593F50F4503E68F11A16F040A22F83
:1020E000232F342F4427585FF3CF469537952795F4
:1020F000A795F0405395C9F77EF41F16BA0B620BF3
:10210000730B840BBAF09150A1F0FF0FBB1F661F39
:10211000771F881FC2F70EC0BA0F621F731F841F7C
:1021200048F4879577956795B795F7959E3F08F0A2
:10213000B3CF9395880F08F09927EE0F9795879561
:102140000895F4D008F481E008950CD04FC147D130
:1021500040F03ED130F021F45F3F19F00BC1511136
:1021600079C10EC154D198F39923C9F35523B1F322
:10217000951B550BBB27AA2762177307840738F0F6
:102180009F5F5F4F220F331F441FAA1FA9F333D055
:102190000E2E3AF0E0E830D091505040E695001C09
:1021A000CAF729D0FE2F27D0660F771F881FBB1FC5
:1021B000261737074807AB07B0E809F0BB0B802D9F
:1021C000BF01FF2793585F4F2AF09E3F510568F0EB
:1021D000D1C040C15F3FECF3983EDCF38695779524
:1021E0006795B795F7959F5FC9F7880F911D9695ED
:1021F000879597F90895E1E0660F771F881FBB1F49
:10220000621773078407BA0720F0621B730B840BF5
:10221000BA0BEE1F88F7E095089504D06894B111C9
:1022200019C10895FCD088F09F5790F0B92F9927D5
:10223000B751A0F0D1F0660F771F881F991F1AF0D1
:10224000BA95C9F712C0B13081F003D1B1E0089559
:1022500000C1672F782F8827B85F39F0B93FCCF3DA
:10226000869577956795B395D9F73EF490958095C7
:10227000709561957F4F8F4F9F4F0895E89409C0E7
:1022800097FB3EF490958095709561957F4F8F4FA9
:102290009F4F9923A9F0F92F96E9BB279395F695BF
:1022A000879577956795B795F111F8CFFAF4BB0F3D
:1022B00011F460FF1BC06F5F7F4F8F4F9F4F16C0A1
:1022C000882311F096E911C0772321F09EE8872F2B
:1022D000762F05C0662371F096E8862F70E060E0E7
:1022E0002AF09A95660F771F881FDAF7880F969560
:1022F000879597F90895DF93CF931F930F938B01E1
:10230000EC01E8E6F0E03FD071D09801AE018B011E
:10231000EC0160E070E080E89FE3AEDE0CD1980154
:10232000AE010F911F91CF91DF91AAC0990F0008C4
:10233000550FAA0BE0E8FEEF16161706E807F90797
:10234000C0F012161306E407F50798F0621B730B32
:10235000840B950B39F40A2661F0232B242B252BB3
:1023600021F408950A2609F4A140A6958FEF811D56
:10237000811D089597F99F6780E870E060E00895F7
:102380009FEF80EC0895DF93CF931F930F93FF92FD
:10239000EF92DF927B018C01689405C0DA2EEF0189
:1023A0006FD0FE01E894A591259135914591559105
:1023B000AEF3EF0173DEFE019701A801DA9479F71D
:1023C000DF90EF90FF900F911F91CF91DF910895D3
:1023D00000240A9416161706180609060895002404
:1023E0000A9412161306140605060895092E03947E
:1023F000000C11F4882352F0BB0F40F4BF2B11F4F2
:1024000060FF04C06F5F7F4F8F4F9F4F089557FD50
:102410009058440F551F59F05F3F71F04795880F52
:1024200097FB991F61F09F3F79F0879508951216E9
:1024300013061406551FF2CF4695F1DF08C0161695
:1024400017061806991FF1CF869571056105089446
:102450000895E894BB2766277727CB0197F908955D
:1024600065DF08F48FEF08950BD0C0CFB1DF28F0FF
:10247000B6DF18F0952309F07DCF82CF1124EACF83
:10248000C6DFA0F3959FD1F3950F50E0551F629FD3
:10249000F001729FBB27F00DB11D639FAA27F00DBD
:1024A000B11DAA1F649F6627B00DA11D661F829FE4
:1024B0002227B00DA11D621F739FB00DA11D621FC9
:1024C000839FA00D611D221F749F3327A00D611DE6
:1024D000231F849F600D211D822F762F6A2F1124C8
:1024E0009F5750408AF0E1F088234AF0EE0FFF1F1B
:1024F000BB1F661F771F881F91505040A9F79E3F52
:10250000510570F037CFA6CF5F3FECF3983EDCF378
:10251000869577956795B795F795E7959F5FC1F78E
:10252000FE2B880F911D9695879597F9089511F4C4
:102530000EF426CF42C073DFD0F39923D9F3CEF344
:102540009F57550B87FF47D00024A0E640EA900133
:1025500080585695979528F4805C660F771F881FE2
:1025600020F026173707480730F4621B730B840BE3
:10257000202931294A2BA695179407942025312527
:102580004A2758F7660F771F881F20F0261737074E
:10259000480730F4620B730B840B200D311D411D75
:1025A000A09581F7B901842F9158880F969587954A
:1025B0000895BCDE880B990B08959F3F31F0915030
:1025C00020F4879577956795B795880F911D969517
:1025D000879597F9089591505040660F771F881F8F
:1025E000D2F70895A1E21A2EAA1BBB1BFD010DC054
:1025F000AA1FBB1FEE1FFF1FA217B307E407F507B3
:1026000020F0A21BB30BE40BF50B661F771F881F8E
:10261000991F1A9469F760957095809590959B0124
:10262000AC01BD01CF010895EE0FFF1F0590F4919D
:10263000E02D099481E090E0F8940C941F13F89435
:02264000FFCFCA
:10264200000094038000E8030178673A200079676C
:102652003A20007A673A2000202000616E616C6F98
:10266200672076616C3A200072643A20004D505522
:102672003630353020636F6E6E656374696F6E201D
:102682007375636365737366756C004D50553630B0
:10269200353020636F6E6E656374696F6E2066619C
:1026A200696C656400496E697469616C697A696E06
:1026B200672049324320646576696365732E2E2E46
:1026C2000054657374696E6720646576696365207A
:1026D200636F6E6E656374696F6E732E2E2E0000CB
:1026E20000000068053B05100518052B053A05009A
:1026F200000000E006990C4907DE06DF06B80E006E
:10270200000000E006990CDE08C207D607C00800E8
:102712000000002D0B990CAF0AC80ABA0A0B0B0D68
:0E2722000A006E616E00696E66006F766600DA
:00000001FF
