:100000000C945A000C9482000C9482000C94820090
:100010000C9482000C9482000C9482000C94820058
:100020000C9482000C9482000C9482000C94820048
:100030000C9482000C9482000C9482000C94820038
:100040000C946A0A0C9482000C94B0070C94E2079A
:100050000C9482000C9482000C9482000C94820018
:100060000C94F9010C9482000000000800020100C9
:100070000003040700000000000000000102040863
:100080001020408001020408102001020408102002
:10009000040404040404040402020202020203032E
:1000A0000303030300000000250028002B00E500E7
:1000B000F703120811241FBECFEFD8E0DEBFCDBF7B
:1000C00011E0A0E0B1E0E0E2FCE102C005900D9299
:1000D000A235B107D9F722E0A2E5B1E001C01D9237
:1000E000A33DB207E1F710E0C4EBD0E004C02297D3
:1000F000FE010E94050ECE3AD107C9F70E945B0AA5
:100100000C940E0E0C940000CF92DF92EF92FF92AF
:1001100080916B010E94450B4AE050E0BC018DE2EA
:1001200092E00E94410980916B010E94450B805A28
:100130009109BC01882777FD8095982F0E94C60CF5
:1001400020E030E044E353E40E947A0D20E030ECFC
:1001500042E354E40E942B0C20E030E044EB52E4F4
:100160000E94C20B6B017C0120E030E0A9010E94DB
:10017000270C87FF0AC020E030E044EB53E4C701BE
:10018000B6010E94C30B6B017C0122E030E0B70195
:10019000A6018DE292E00E94460A22E030E0B7011B
:1001A000A60182E591E00E94440A64EF71E080E0DC
:1001B00090E00E94D70A40E060E082E591E0FF9085
:1001C000EF90DF90CF900C947C048F92AF92CF92FF
:1001D000EF920F931F921F9283E08F9387E0882EF8
:1001E00096E0A92E25E0C22E34E0E32E00E021E0C7
:1001F00042E067E282E591E00E94C2050F900F9015
:100200000F900F91EF90CF90AF908F90089526E0D0
:1002100040E855E260E070E08DE292E00E944E0717
:1002200020E042E060E182E591E00E94500682E534
:1002300091E00C9475041092DA0181E08093D8016A
:100240001092D70161E082E10E948B0B61E083E1B3
:100250000E948B0BE9EBF0E080818E7F80838081B0
:100260008D7F808388E48093B80085E48093BC0010
:100270000895413208F03FC09091DA019111FCCF0E
:1002800091E09093DA012093D8012FEF20936D0134
:100290001092B201240F2093B1019093D901909153
:1002A000D901880F892B8093D9018091D7018130A2
:1002B00041F41092D7018091D9018093BB0085EC65
:1002C00001C085EE8093BC008091DA018130E1F3BA
:1002D0008091B201841710F44091B20123EB31E018
:1002E000FB01D9018A2F821B841718F48D91819309
:1002F000F9CF842F089580E008950F93413208F0DC
:1003000046C09091DA019111FCCF92E09093DA010E
:100310000093D8019FEF90936D011092B20140932A
:10032000B101FB0163EB71E0DB019A2F961B94177F
:1003300018F491919D93F9CF1092D9019091D90120
:10034000880F892B8093D9018091D701813041F4A6
:100350001092D7018091D9018093BB0085EC01C038
:1003600085EE8093BC00222321F08091DA01823057
:10037000E1F380916D018F3F61F080916D018032DA
:1003800051F080916D01803341F483E007C081E03A
:1003900005C080E003C082E001C084E00F910895B1
:1003A000613298F42091DA01243089F460938F014E
:1003B000FC0181E991E0DC012A2F281B261718F4A3
:1003C00021912D93F9CF80E0089581E0089582E096
:1003D000089585ED8093BC008091BC0084FDFCCF26
:1003E0001092DA01089585EC8093BC001092DA0136
:1003F00008951F920F920FB60F9211242F933F93DF
:100400004F935F936F937F938F939F93AF93BF931C
:10041000EF93FF938091B900887F803609F49CC0E8
:1004200068F5883209F45BC090F4803109F454C057
:1004300038F4882309F4F5C0883009F44DC0F5C0BC
:10044000883109F44CC0803209F45DC0EEC08034BC
:1004500009F468C048F4803309F455C0883309F0C2
:10046000E4C080936D01A8C0803509F44FC0883581
:1004700009F45DC0883409F0D8C0D5C0883909F4C2
:10048000C6C0A8F4883709F467C038F4883609F480
:1004900063C0803709F460C0C8C0883809F4B7C0A9
:1004A000803909F45FC0803809F0BFC05BC0803B71
:1004B00009F485C038F4803A09F466C0883A09F432
:1004C0007EC0B3C0803C09F4A6C0883C09F4A3C038
:1004D000883B09F489C0A9C08091D90110C09091CE
:1004E000B2018091B101981770F5E091B20181E0FD
:1004F0008E0F8093B201F0E0ED54FE4F8081809327
:10050000BB0085EC85C080936D018DC0E091B20188
:1005100081E08E0F8093B2018091BB00F0E0ED543A
:10052000FE4F80839091B2018091B1016DC0E09146
:10053000B20181E08E0F8093B2018091BB00F0E0A8
:10054000ED54FE4F80838091D80181116CC081E011
:100550008093D70184EA60C083E08093DA0110922F
:100560006E01CFCF80916E01803208F050C0E091D3
:100570006E0181E08E0F80936E018091BB00F0E0F0
:10058000E159FE4F8083BDCF80916E01803230F4FF
:10059000E0916E01F0E0E159FE4F10820E94E90106
:1005A00060916E0170E0E091D301F091D4018FE68B
:1005B00091E0099510926E010E94F30136C084E02B
:1005C0008093DA011092900110928F01E091D50191
:1005D000F091D601099580918F01811105C081E0CC
:1005E00080938F0110929101E091900181E08E0F34
:1005F00080939001F0E0EF56FE4F80818093BB0026
:100600009091900180918F01981708F47ACF85E836
:100610008093BC000AC085EC8093BC001092DA0184
:1006200004C010926D010E94E901FF91EF91BF910A
:10063000AF919F918F917F916F915F914F913F917A
:100640002F910F900FBE0F901F90189580910B0265
:1006500090E020910C02821B9109089520910C02D8
:1006600080910B02281750F4E22FF0E0E35FFD4F7A
:10067000808190E02F5F20930C0208958FEF9FEF11
:100680000895E0910C0280910B02E81730F4F0E03D
:10069000E35FFD4F808190E008958FEF9FEF089515
:1006A0000895CF92DF92EF92FF920F931F93CF9313
:1006B000DF937C01CB018A012091E701222389F09D
:1006C000EB016B01C40ED51ECC15DD0569F06991F7
:1006D000D701ED91FC910190F081E02DC7010995C2
:1006E000F3CF642F0E94D001C801DF91CF911F91F9
:1006F0000F91FF90EF90DF90CF900895CF93DF930D
:100700001F92CDB7DEB769832091E7012223D1F094
:100710002091E801203240F021E030E0FC013383F9
:10072000228380E090E015C08091E901E82FF0E09D
:10073000E651FE4F998190838F5F8093E90180930A
:10074000E80105C061E0CE0101960E94D00181E080
:1007500090E00F90DF91CF910895FC0113821282F7
:1007600048EE53E060E070E044835583668377830E
:1007700085E091E091838083089510920C0210929D
:100780000B021092E9011092E8010C941B01862FD4
:10079000413208F040E26DE072E00E9439011092AF
:1007A0000C0280930B02089521E00C94C70381E0B2
:1007B0008093E70160930A021092E9011092E80128
:1007C00008950F93062F21E04091E8016AEE71E051
:1007D00080910A020E947D011092E9011092E801C5
:1007E0001092E7010F91089561E00C94E1038BED05
:1007F00091E00C94AD03FC0112828FEF8183108293
:1008000013820895FC018381882331F0611103C0B4
:100810008FEF8183089511820895CF93DF93EC01C8
:100820006A838BED91E00E94BD0341E06A818BED0C
:1008300091E00E94D40391E0811101C090E09B837C
:100840008BED91E00E942E0388838B8190E0DF91F5
:10085000CF910895CF93DF93EC018B818823A9F08A
:1008600089818095862388836A818BED91E00E943F
:10087000D70368818BED91E00E947E038BED91E0C0
:100880000E94F403282F30E002C020E030E081E035
:1008900090E0232B11F080E090E0DF91CF9108955C
:1008A00008950895DC01ED91FC910284F385E02D1B
:1008B00041E0099581E090E00895FC0113821282E5
:1008C00025E131E0318320830895DC01ED91FC9135
:1008D0000084F185E02D6FEF0994DC01ED91FC912E
:1008E0000284F385E02D40E0099461E00E946D04EC
:1008F00080ED97E00C94FF0ACF93DF93CDB7DEB77E
:1009000028970FB6F894DEBF0FBECDBF1D8220E43E
:100910002E8334E13F8334E5388719822A8320E12E
:100920002B8320E52C83FC012781421710F04FEF29
:10093000420FFC01308550E0FE01E40FF51F30311D
:1009400021F4243011F4218101C02581260F206873
:10095000622F28960FB6F894DEBF0FBECDBFDF9191
:10096000CF910C946D04FC016581262F24602583B2
:100970006C600C946D04CF93DF93EC01423018F05F
:100980008C8188608C834F836887222329F04130D3
:1009900019F48C8184608C8364E670E080E090E0E0
:1009A0000E94D70A6C8164FD31C0E881F98102841C
:1009B000F385E02D42E063E0CE01099584E991E101
:1009C0000E94FF0AE881F9810284F385E02D42E06C
:1009D00063E0CE01099584E991E10E94FF0AE88174
:1009E000F9810284F385E02D42E063E0CE010995B0
:1009F00086E990E00E94FF0AE881F9810284F3858C
:100A0000E02D42E062E0CE01099516C06062CE01A1
:100A10000E946D0484E991E10E94FF0A6C8160628A
:100A2000CE010E946D0486E990E00E94FF0A6C816D
:100A30006062CE010E946D046C816062CE010E94F2
:100A40006D0484E08D83CE010E94B304CE010E9428
:100A5000750482E08E8366E0CE010E946D04CE01B3
:100A6000DF91CF910C94650421E001C0220F6A95BB
:100A7000EAF7DC011C962C931C971A965C934E9314
:100A80001997ED91FC910084F185E02D60E00994C7
:100A9000FC012485222399F081859285009719F421
:100AA000611105C006C0019721F4611102C02587BC
:100AB00001C015866585CF010E960C942A04089511
:100AC0000F931F93CF93DF93EC018C01025F1F4FB5
:100AD0006B85C8010E940D04019761F461E0C801B3
:100AE0000E9402041C8260E0C8010E942A0481E086
:100AF00090E002C080E090E0DF91CF911F910F91D4
:100B000008958F92AF92CF92EF920F93CF93DF938E
:100B1000CDB7DEB7FC016387148615861286118671
:100B200081E0982F01C0990F4A95EAF7928B982F90
:100B300001C0990F2A95EAF7938B982F01C0990F5E
:100B40000A95EAF7948B982F01C0990FEA94EAF777
:100B5000958B982F01C0990FCA94EAF7968B982F1E
:100B600001C0990FAA94EAF7978B01C0880F8A9465
:100B7000EAF7808FDF91CF910F91EF90CF90AF90F8
:100B80008F9008954F925F926F927F928F92AF9263
:100B9000CF92EF920F931F93CF93DF9300D01F92CA
:100BA000CDB7DEB73C011A894B885C882B834A831A
:100BB00069830E945D0485E291E0F3019183808363
:100BC000C3010E960E94FB032B814A816981C301F8
:100BD0000E948105A201612FC3010F900F900F9019
:100BE000DF91CF911F910F91EF90CF90AF908F90A9
:100BF0007F906F905F904F900C943405FF920F930D
:100C00001F93CF93DF93EC01F62E8C01025F1F4FF1
:100C10006A896F29C8010E942A046A8960956F2138
:100C2000C801DF91CF911F910F91FF900C942A047E
:100C300020E030E050E060FF05C0FC01E20FF31F50
:100C40007589572B66952F5F3F4F2430310599F7F3
:100C5000413011F4FC014489FC016585652B642B4E
:100C60000C94FE050F931F93CF93DF93EC01142F89
:100C7000062F0F70423011F440E00AC070E084E0AB
:100C8000759567958A95E1F7CE010E941806412F68
:100C9000602FCE01DF91CF911F910F910C94180618
:100CA0000F931F93CF93DF9300D01F92CDB7DEB782
:100CB0008C012B834A8369830E9460052B814A81C2
:100CC0006981C8010F900F900F90DF91CF911F9114
:100CD0000F910C94BB04FC01818D228D90E0805C0F
:100CE0009F4F821B91098F7399270895FC01918D65
:100CF000828D981731F0828DE80FF11D858D90E07F
:100D000008958FEF9FEF0895FC01918D828D9817C4
:100D100061F0828DDF01A80FB11D5D968C91928DDF
:100D20009F5F9F73928F90E008958FEF9FEF0895DC
:100D300088E098E0892B49F080E090E0892B29F049
:100D40000E94080881110C9400000895FC01848D14
:100D5000DF01A80FB11DA35ABF4F2C91848D90E0E5
:100D600001968F739927848FA689B7892C93A089C0
:100D7000B1898C9180648C93938D848D981306C077
:100D80000288F389E02D80818F7D80830895CF9341
:100D9000DF93EC01888D8823C9F0EA89FB89808183
:100DA00085FD05C0A889B9898C9186FD0FC00FB655
:100DB00007FCF5CF808185FFF2CFA889B9898C9196
:100DC00085FFEDCFCE010E94A606E7CFDF91CF9140
:100DD0000895CF92DF92FF920F931F93CF93DF93EB
:100DE0001F92CDB7DEB76C0181E0D60158968C9387
:100DF00058975B969C915B975C968C915C97981347
:100E000007C05096ED91FC915197808185FD2EC0D1
:100E1000F601038D10E00F5F1F4F0F731127F02EA7
:100E2000F601848DF81211C00FB607FCF9CFD60178
:100E30005096ED91FC915197808185FFF1CFC601CD
:100E400069830E94A6066981EBCF838DE80FF11DAF
:100E5000E35AFF4F6083D6015B960C935B975296E3
:100E6000ED91FC915397808180620CC0D60156961B
:100E7000ED91FC91579760835096ED91FC915197BD
:100E800080818064808381E090E00F90DF91CF913A
:100E90001F910F91FF90DF90CF900895BF92CF9256
:100EA000DF92EF92FF92CF93DF93EC016A017B0117
:100EB000B22EE889F98982E08083411581EE5807D6
:100EC00061057105A1F060E079E08DE390E0A70194
:100ED00096010E94E10D21503109410951095695B1
:100EE000479537952795211580E1380798F0E889CF
:100EF000F989108260E874E88EE190E0A70196011C
:100F00000E94E10D2150310941095109569547953B
:100F100037952795EC85FD853083EE85FF85208309
:100F2000188EEC89FD89B082EA89FB898081806115
:100F30008083EA89FB89808188608083EA89FB89D4
:100F4000808180688083EA89FB8980818F7D8083AE
:100F5000DF91CF91FF90EF90DF90CF90BF900895F9
:100F60001F920F920FB60F9211242F938F939F937E
:100F7000EF93FF93E0913D02F0913E028081E0917A
:100F80004302F091440282FD12C09081809146029A
:100F90008F5F8F7320914702821751F0E0914602D4
:100FA000F0E0E35DFD4F958F8093460201C08081A4
:100FB000FF91EF919F918F912F910F900FBE0F9006
:100FC0001F9018951F920F920FB60F9211242F9316
:100FD0003F934F935F936F937F938F939F93AF93C1
:100FE000BF93EF93FF938DE292E00E94A606FF91DC
:100FF000EF91BF91AF919F918F917F916F915F9191
:101000004F913F912F910F900FBE0F901F90189509
:101010008DE292E00E946B0621E0892B09F420E02A
:10102000822F08951092300210922F0288EE93E0E2
:10103000A0E0B0E08093310290933202A09333029B
:10104000B093340285E391E090932E0280932D02B9
:1010500085EC90E090933A028093390284EC90E022
:1010600090933C0280933B0280EC90E090933E0290
:1010700080933D0281EC90E09093400280933F0288
:1010800082EC90E0909342028093410286EC90E0E3
:1010900090934402809343021092460210924702BA
:1010A00010924802109249020895CF92DF92EF9277
:1010B000FF920F931F93CF93DF936C017A01EB01A3
:1010C000E60EF71E00E010E0CE15DF0561F0699135
:1010D000D601ED91FC910190F081E02DC6010995BA
:1010E000080F191FF1CFC801DF91CF911F910F9108
:1010F000FF90EF90DF90CF9008956115710581F01A
:10110000DB010D900020E9F7AD0141505109461B6C
:10111000570BDC01ED91FC910280F381E02D0994E5
:1011200080E090E00895DC01ED91FC910190F08168
:10113000E02D099461E471E00C947D088F929F92F8
:10114000AF92BF92CF92DF92EF92FF920F931F93D5
:10115000CF93DF93CDB7DEB7A1970FB6F894DEBF7C
:101160000FBECDBF7C01C42EE52FCB01D22E19A21C
:1011700021E02D1510F02AE0D22E8E010F5D1F4FB9
:101180008D2C912CA12CB12C6C2D7E2FA5019401BE
:101190000E94E10D8C2DD29E80191124015011095D
:1011A0008A3014F4805D01C0895CF80180832115C8
:1011B00031054105510521F0C22EE32FCA01E4CFCC
:1011C000B801C7010E947D08A1960FB6F894DEBF52
:1011D0000FBECDBFDF91CF911F910F91FF90EF9088
:1011E000DF90CF90BF90AF909F908F900895CF9257
:1011F000DF92EF92FF920F931F93CF93DF93EC0157
:101200006A017B012115310579F4E881F9810190AA
:10121000F081E02D642FDF91CF911F910F91FF900E
:10122000EF90DF90CF9009942A303105E9F477FFF1
:101230001AC06DE20E9493088C0144275527BA0119
:101240004C195D096E097F092AE0CE010E949E08B3
:10125000800F911FDF91CF911F910F91FF90EF9021
:10126000DF90CF9008952AE0B701A601CE01DF916B
:10127000CF911F910F91FF90EF90DF90CF900C9442
:101280009E080F931F93CF93DF93EC019A01AB015C
:10129000662757FD6095762F0E94F7088C01CE01D6
:1012A0000E949A08800F911FDF91CF911F910F919B
:1012B00008954F925F926F927F928F929F92AF921A
:1012C000BF92CF92DF92EF92FF920F931F93CF9333
:1012D000DF93EC016A017B01B22E9A01AB01C701D9
:1012E000B6010E94DD0D882319F064E471E027C087
:1012F00026013701E89477F82FEF3FEF4FE75FE7DC
:10130000C301B2010E94DD0D81110DC02FEF3FEF2F
:101310004FE75FE7C301B2010E94270C18161CF4C7
:1013200068E471E00CC02FEF3FEF4FE75FE4C701C7
:10133000B6010E94760D1816ACF46CE471E0CE0193
:10134000DF91CF911F910F91FF90EF90DF90CF90A1
:10135000BF90AF909F908F907F906F905F904F90D5
:101360000C947D082FEF3FEF4FE75FECC701B6010C
:101370000E94270C87FDE1CF20E030E0A901C701E2
:10138000B6010E94270C87FF0AC06DE2CE010E94C1
:1013900093088C01F7FAF094F7F8F09402C000E09B
:1013A00010E0A12C60E070E080E09FE3AB1441F01E
:1013B00020E030E040E251E40E942B0CA394F6CFF1
:1013C0009B01AC01C701B6010E94C30B6B017C01FC
:1013D0000E94980C2B013C010E94C40C9B01AC01A3
:1013E000C701B6010E94C20B6B017C012AE0B30168
:1013F000A201CE010E949E08080F191FBB2039F0E0
:1014000060E571E0CE010E947D08080F191F7B2C5A
:10141000772041F120E030E040E251E4C701B6011D
:101420000E947A0D6B017C010E94930C4B01AA244F
:1014300097FCA094BA2C2AE030E0B501A401CE01BB
:101440000E94F708080F191FC501B4010E94C60CBD
:101450009B01AC01C701B6010E94C20B6B017C016C
:101460007A94D6CFC801DF91CF911F910F91FF9051
:10147000EF90DF90CF90BF90AF909F908F907F9034
:101480006F905F904F9008950C9459090F931F939C
:10149000CF93DF93EC010E9459098C01CE010E9489
:1014A0009A08800F911FDF91CF911F910F9108959E
:1014B0000E94090E08950E940A0B0E945A0A0E9477
:1014C0000701C8E9D6E00E9484002097E1F30E945A
:1014D0009806F9CF1F920F920FB60F9211242F93F7
:1014E0003F938F939F93AF93BF938091CB02909143
:1014F000CC02A091CD02B091CE023091CA0223E07D
:10150000230F2D3720F40196A11DB11D05C026E83B
:10151000230F0296A11DB11D2093CA028093CB0216
:101520009093CC02A093CD02B093CE028091CF02D3
:101530009091D002A091D102B091D2020196A11D4A
:10154000B11D8093CF029093D002A093D102B093AB
:10155000D202BF91AF919F918F913F912F910F90A8
:101560000FBE0F901F9018953FB7F8948091CF024F
:101570009091D002A091D102B091D20226B5A89B41
:1015800005C02F3F19F00196A11DB11D3FBF662771
:10159000782F892F9A2F620F711D811D911D42E0B6
:1015A000660F771F881F991F4A95D1F70895CF922C
:1015B000DF92EF92FF92CF93DF936B017C010E9449
:1015C000B40AEB01C114D104E104F10489F00E94D2
:1015D000C10B0E94B40A6C1B7D0B683E734090F3F4
:1015E00081E0C81AD108E108F108C851DC4FEACF00
:1015F000DF91CF91FF90EF90DF90CF9008958230F0
:10160000910538F0880F991F880F991F059701974A
:10161000F1F70895789484B5826084BD84B58160C3
:1016200084BD85B5826085BD85B5816085BDEEE6EA
:10163000F0E0808181608083E1E8F0E010828081C9
:1016400082608083808181608083E0E8F0E0808137
:1016500081608083E1EBF0E0808184608083E0EB57
:10166000F0E0808181608083EAE7F0E0808184603F
:10167000808380818260808380818160808380819B
:10168000806880831092C10008958E3008F08E50DB
:1016900087702091000190E4299F90011124822BF2
:1016A00080937C0080917A00806480937A0080919E
:1016B0007A0086FDFCCF809178002091790090E03F
:1016C000922B0895833081F028F4813099F0823094
:1016D000A1F008958730A9F08830B9F08430D1F4B2
:1016E000809180008F7D03C0809180008F778093F0
:1016F0008000089584B58F7702C084B58F7D84BD46
:1017000008958091B0008F7703C08091B0008F7DE5
:101710008093B00008950F931F93CF93DF931F9290
:10172000CDB7DEB7282F30E0F901E859FF4F84919B
:10173000F901E458FF4F1491F901E057FF4F04916C
:101740000023C9F0882321F069830E94620B69811C
:10175000E02FF0E0EE0FFF1FEC55FF4FA591B49185
:101760009FB7F8948C91611103C01095812301C03B
:10177000812B8C939FBF0F90DF91CF911F910F9181
:10178000089508955058BB27AA270ED075C166D179
:1017900030F06BD120F031F49F3F11F41EF45BC1A7
:1017A0000EF4E095E7FB51C1E92F77D180F3BA172A
:1017B000620773078407950718F071F49EF58FC1CF
:1017C0000EF4E0950B2EBA2FA02D0B01B90190015C
:1017D0000C01CA01A0011124FF27591B99F0593FA0
:1017E00050F4503E68F11A16F040A22F232F342FE8
:1017F0004427585FF3CF469537952795A795F04036
:101800005395C9F77EF41F16BA0B620B730B840B4A
:10181000BAF09150A1F0FF0FBB1F661F771F881F02
:10182000C2F70EC0BA0F621F731F841F48F487955A
:1018300077956795B795F7959E3F08F0B3CF939549
:10184000880F08F09927EE0F979587950895D9D0BE
:1018500008F481E008950CD00FC107D140F0FED00C
:1018600030F021F45F3F19F0F0C0511139C1F3C0DD
:1018700014D198F39923C9F35523B1F3951B550B54
:10188000BB27AA2762177307840738F09F5F5F4F53
:10189000220F331F441FAA1FA9F333D00E2E3AF094
:1018A000E0E830D091505040E695001CCAF729D0AE
:1018B000FE2F27D0660F771F881FBB1F26173707FD
:1018C0004807AB07B0E809F0BB0B802DBF01FF272D
:1018D00093585F4F2AF09E3F510568F0B6C000C193
:1018E0005F3FECF3983EDCF3869577956795B79567
:1018F000F7959F5FC9F7880F911D9695879597F982
:101900000895E1E0660F771F881FBB1F62177307FA
:101910008407BA0720F0621B730B840BBA0BEE1F0F
:1019200088F7E095089504D06894B111D9C008955E
:10193000BCD088F09F5790F0B92F9927B751A0F0ED
:10194000D1F0660F771F881F991F1AF0BA95C9F753
:1019500012C0B13081F0C3D0B1E00895C0C0672F8C
:10196000782F8827B85F39F0B93FCCF38695779503
:101970006795B395D9F73EF49095809570956195EC
:101980007F4F8F4F9F4F0895E89409C097FB3EF417
:1019900090958095709561957F4F8F4F9F4F9923BC
:1019A000A9F0F92F96E9BB279395F695879577953A
:1019B0006795B795F111F8CFFAF4BB0F11F460FFFA
:1019C0001BC06F5F7F4F8F4F9F4F16C0882311F052
:1019D00096E911C0772321F09EE8872F762F05C066
:1019E000662371F096E8862F70E060E02AF09A9501
:1019F000660F771F881FDAF7880F9695879597F9F6
:101A00000895990F0008550FAA0BE0E8FEEF16168F
:101A10001706E807F907C0F012161306E407F507E2
:101A200098F0621B730B840B950B39F40A2661F056
:101A3000232B242B252B21F408950A2609F4A140F9
:101A4000A6958FEF811D811D089597F99F6780E806
:101A500070E060E008959FEF80EC089500240A9400
:101A60001616170618060906089500240A94121679
:101A70001306140605060895092E0394000C11F4AC
:101A8000882352F0BB0F40F4BF2B11F460FF04C059
:101A90006F5F7F4F8F4F9F4F089557FD9058440FB2
:101AA000551F59F05F3F71F04795880F97FB991FBD
:101AB00061F09F3F79F0879508951216130614067A
:101AC000551FF2CF4695F1DF08C016161706180607
:101AD000991FF1CF86957105610508940895E894E2
:101AE000BB2766277727CB0197F908958ADF08F48B
:101AF0008FEF08950BD0C0CFB1DF28F0B6DF18F01C
:101B0000952309F0A2CFA7CF1124EACFC6DFA0F317
:101B1000959FD1F3950F50E0551F629FF001729F82
:101B2000BB27F00DB11D639FAA27F00DB11DAA1FA1
:101B3000649F6627B00DA11D661F829F2227B00DEE
:101B4000A11D621F739FB00DA11D621F839FA00D79
:101B5000611D221F749F3327A00D611D231F849FC9
:101B6000600D211D822F762F6A2F11249F57504020
:101B70008AF0E1F088234AF0EE0FFF1FBB1F661FBB
:101B8000771F881F91505040A9F79E3F510570F074
:101B90005CCFA6CF5F3FECF3983EDCF3869577955C
:101BA0006795B795F795E7959F5FC1F7FE2B880F6F
:101BB000911D9695879597F9089523DF880B990BCA
:101BC0000895A1E21A2EAA1BBB1BFD010DC0AA1F7E
:101BD000BB1FEE1FFF1FA217B307E407F50720F096
:101BE000A21BB30BE40BF50B661F771F881F991F11
:101BF0001A9469F760957095809590959B01AC015A
:101C0000BD01CF010895EE0FFF1F0590F491E02D67
:101C1000099481E090E0F8940C940E0EF894FFCFB4
:101C200001000000007E03510326032E03410350F0
:101C3000030000000052045508BB0450045104582E
:101C40000A000000005204550850063405480532C9
:101C50000600000000E90655086B0684067606C7F4
:101C6000060D0A006E616E00696E66006F76660092
:021C70002E0044
:00000001FF
