:100000000C9464000C948C000C948C000C948C0068
:100010000C948C000C948C000C948C000C948C0030
:100020000C948C000C948C000C948C000C948C0020
:100030000C948C000C948C000C948C000C948C0010
:100040000C94E2080C948C000C9489060C94BB066A
:100050000C948C000C948C000C948C000C948C00F0
:100060000C948C000C948C0000000008000201002D
:100070000003040700000000000000000102040863
:100080001020408001020408102001020408102002
:10009000040404040404040402020202020203032E
:1000A00003030303000000002300260029000000D2
:1000B0000000250028002B0000000000240027007D
:1000C0002A009502EB06590311241FBECFEFD8E09A
:1000D000DEBFCDBF12E0A0E0B1E0E8EAF9E102C086
:1000E00005900D92A23DB107D9F725E0A2EDB2E04F
:1000F00001C01D92A433B207E1F710E0C6ECD0E0D6
:1001000004C02297FE010E948B0AC23CD107C9F7A6
:100110000E94D3080C94C70C0C940000CF93DF937B
:10012000EC016FE671E00E94BC0861E571E0CE0170
:1001300006960E94BC086DE971E0CE010C960E9403
:10014000BC0860E371E0CE0142960E94BC086BE5FA
:1001500071E0CE0148960E94BC0864E771E0CE01D0
:100160004E960E94BC0869E571E0CE0184960E941B
:10017000BC0869E271E0CE018A960E94BC0861E386
:1001800071E0CE01C0960E94BC0867E171E0CE012B
:10019000C6960E94BC086EE671E0CE01CC960E9425
:1001A000BC086FE871E0CE018E5B9F4F0E94BC08D7
:1001B00067E371E0CE01885B9F4F0E94BC086AE54F
:1001C00071E0CE01825B9F4F0E94BC0866E371E044
:1001D000CE018C5A9F4F0E94BC0866E071E0CE01B0
:1001E000865A9F4F0E94BC086DE671E0CE01805A8E
:1001F0009F4F0E94BC086EE971E0CE018A599F4F63
:100200000E94BC0862E571E0CE0184599F4F0E94B4
:10021000BC0868E371E0CE018E589F4F0E94BC0875
:100220006CE071E0CE0188589F4F0E94BC086AE7DD
:1002300071E0CE0182589F4F0E94BC0869E871E0CE
:10024000CE018C579F4F0E94BC086BE071E0CE013D
:1002500086579F4F0E94BC0868E871E0CE01805726
:100260009F4F0E94BC086FE271E0CE018A569F4FFB
:100270000E94BC0860E171E0CE0184569F4F0E944D
:10028000BC0866E171E0CE018E559F4F0E94BC080C
:100290006CE171E0CE0188559F4F0E94BC086EE56D
:1002A00071E0CE0182559F4F0E94BC0862E271E06E
:1002B000CE018C549F4F0E94BC0868E271E0CE01D1
:1002C00086549F4F0E94BC0860E571E0CE018054C7
:1002D0009F4F0E94BC086EE271E0CE018A539F4F8F
:1002E0000E94BC0867E571E0CE0184539F4F0E94D5
:1002F000BC0864E371E0CE018E529F4F0E94BC089F
:100300006AE371E0CE0188529F4F0E94BC0861E40D
:1003100071E0CE0182529F4F0E94BC0868E471E0F8
:10032000CE018C519F4F0E94BC086FE471E0CE015A
:1003300086519F4F0E94BC0866E571E0CE01805156
:100340009F4F0E94BC086DE571E0CE018A509F4F1F
:100350000E94BC0863E771E0CE0184509F4F0E9469
:10036000BC0864E671E0CE018E5F9E4F0E94BC081F
:100370006BE671E0CE01885F9E4F0E94BC0862E789
:1003800071E0CE01825F9E4F0E94BC0869E771E078
:10039000CE018C5E9E4F0E94BC086FE771E0CE01DB
:1003A000865E9E4F0E94BC0866E871E0CE01805ECA
:1003B0009E4F0E94BC086DE871E0CE018A5D9E4FA1
:1003C0000E94BC0865E971E0CE01845D9E4F0E94E9
:1003D000BC0864E971E0CE018E5C9E4F0E94BC08AF
:1003E0006BE971E0CE01885C9E4F0E94BC0862EA16
:1003F00071E0CE01825C9E4F0E94BC0869EA71E008
:10040000CE018C5B9E4F0E94BC0865EC72E0CE0171
:10041000865B9E4F0E94BC08C05BDE4F198218822B
:10042000DF91CF9108950F931F93CF93DF93EC014A
:100430008B0160EE71E08AE894E00E9479072097D2
:1004400019F460EF71E022C06FE072E08AE894E096
:100450000E94790724E62C9FC0012D9F900D112446
:10046000B8010E943F0A6232710544F46FE272E003
:100470008AE894E00E947907CE010DC06C32714089
:100480001CF067E472E002C060E672E08AE894E083
:100490000E947907C801DF91CF911F910F910895B4
:1004A000CF93DF9366E470E08EE190E00E94130248
:1004B000EC014AE050E0BC0180E293E00E942E088B
:1004C0006EE972E080E293E00E946C074AE050E03F
:1004D000BE018AE894E00E94360840E060E080E2D5
:1004E00093E0DF91CF910C94430480E293E00E946B
:1004F0003C0420E041E060E180E293E00E945D0482
:1005000040E060E080E293E00C94430426E040E8A1
:1005100055E260E070E08AE894E00E94270682E1FC
:1005200093E00E9474030C947502CF92EF920F93A4
:10053000CF93DF9388E393E00E948E0082E0C82E81
:1005400093E0E92E04E025E04BE06CE080E293E0EC
:100550000E941805109212031092130310921403B4
:100560001092150389E090E090931703809316038F
:10057000109219031092180310921B0310921A0381
:100580000E942C0960931C0370931D0380931E032B
:1005900090931F03AAE0B0E0B093D302A093D202DD
:1005A00021E030E03093E1022093E00263E070E06C
:1005B0007093E3026093E20244E050E05093E5025E
:1005C0004093E4021092E7021092E6028FEF9FEF51
:1005D0009093E9028093E80282E090E09093EB022E
:1005E0008093EA02E5E0F0E0F093ED02E093EC02A4
:1005F000C8E0D0E0D093EF02C093EE027093F10216
:100600006093F0025093F3024093F2027093F5026C
:100610006093F4025093F7024093F60247E050E0F3
:100620005093F9024093F8024EE050E05093FB02E1
:100630004093FA0246E150E05093FD024093FC02E1
:1006400047E150E05093FF024093FE02B093010354
:10065000A09300034BE050E0509303034093020348
:1006600090930503809304033093070320930603BC
:1006700045E150E0509309034093080330930B0386
:1006800020930A0390930D0380930C0386E090E07F
:1006900090930F0380930E03F0931103E0931003E4
:1006A00082ED92E0DF91CF910F91EF90CF900C947B
:1006B0008303CF93DF9382E894E00E944E088CE797
:1006C00094E00E944E08CCE7D4E02697CE010E9429
:1006D0004E0883E0C833D807C1F7DF91CF91089562
:1006E000FC0184810C94160ACF93DF93EC0160E047
:1006F0008C810E94A709CE010E9470039F838E8384
:10070000DF91CF910895CF93DF93EC0160E0888172
:100710000E94A7098CA99DA99B878A87198618869C
:10072000DF91CF910895CF93DF93EC0160E08E814C
:100730000E94E00981E090E00E94380961E08E812A
:100740000E94E00981E090E00E94380960E08E811B
:100750000E94E00984E690E0DF91CF910C94380983
:10076000CF92DF92EF92FF920F931F93CF93DF937D
:100770007C01C0E0D0E0C62ED12C87010C0F1D1FDC
:1007800061E0F80187810E94A709B6010C2E02C022
:10079000759567950A94E2F76170F80187810E9468
:1007A000E0092196C430D10541F7C701DF91CF910F
:1007B0001F910F91FF90EF90DF90CF900C949303D7
:1007C000CF92DF92EF92FF920F931F93CF93DF931D
:1007D0007C01C0E0D0E0C62ED12C87010C0F1D1F7C
:1007E00061E0F80187810E94A709B6010C2E02C0C2
:1007F000759567950A94E2F76170F80187810E9408
:10080000E0092196C830D10541F7C701DF91CF91AA
:100810001F910F91FF90EF90DF90CF900C94930376
:100820001F93CF93DF93EC01162F642F8C810E94CE
:10083000E0098D818F3F19F060E00E94E0098F850B
:10084000612F84FF06C0CE01DF91CF911F910C94E0
:10085000E00370E084E0759567958A95E1F7CE0135
:100860000E94B003612FCE01DF91CF911F910C94B4
:10087000B00340E00C94100461E00E94390480ED64
:1008800097E00C943809443008F043E0FC012389D8
:10089000421710F04FEF420FFC01E40FF11D2489C5
:1008A000260F2068622F0C943904FC016089262FE2
:1008B0002460208B6C600C943904CF93DF93EC019F
:1008C000423018F08F8588608F874B8B1C8A80E4BC
:1008D0008D8B6E8B70E0605C7F4F6F8B222329F0D5
:1008E000413019F48F8584608F8780E593EC0E94F6
:1008F000380960E08C810E94E00960E08E810E94EE
:10090000E0098D818F3F19F060E00E94E0096F855A
:1009100064FD1DC063E0CE010E94B00384E991E153
:100920000E94380963E0CE010E94B00384E991E19E
:100930000E94380963E0CE010E94B00386E990E08E
:100940000E94380962E0CE010E94B00316C06062C6
:10095000CE010E94390484E991E10E9438096F8533
:100960006062CE010E94390486E990E00E94380955
:100970006F856062CE010E9439046F856062CE018E
:100980000E94390484E0888BCE010E945504CE0178
:100990000E943C0482E0898B66E0CE01DF91CF911A
:1009A0000C9439046F927F928F92AF92CF92EF9214
:1009B0000F931F93CF93DF93CDB7DEB73C01162F74
:1009C000842F5D854E853F859889F3018483258337
:1009D0000683E782C086A18682865387448735874F
:1009E000968761E00E94A709F30185818F3F19F086
:1009F00061E00E94A70961E0F30186810E94A709D6
:100A0000112319F0F301178603C080E1F3018787F2
:100A100020E041E060E1C301DF91CF911F910F9190
:100A2000EF90CF90AF908F907F906F900C945D047B
:100A30008F92AF92CF92EF920F93DC0113961C929C
:100A40001E921297EFEAF2E0ED93FC931F921F9231
:100A50001F921F928C2CAE2CC02EE22E042F2FEF53
:100A6000462F61E00E94D2040F900F900F900F90DC
:100A70000F91EF90CF90AF908F90089541E00E943A
:100A8000100481E090E00895FC01818D228D90E0BA
:100A9000805C9F4F821B91098F7399270895FC01F9
:100AA000918D828D981731F0828DE80FF11D858D23
:100AB00090E008958FEF9FEF0895FC01918D828D56
:100AC000981761F0828DDF01A80FB11D5D968C91A2
:100AD000928D9F5F9F73928F90E008958FEF9FEFAD
:100AE000089581EE96E0892B49F080E090E0892B13
:100AF00029F00E94E10681110C9400000895FC0188
:100B0000848DDF01A80FB11DA35ABF4F2C91848D96
:100B100090E001968F739927848FA689B7892C93CB
:100B2000A089B1898C9180648C93938D848D981366
:100B300006C00288F389E02D80818F7D808308952F
:100B4000CF93DF93EC01888D8823C9F0EA89FB8974
:100B5000808185FD05C0A889B9898C9186FD0FC06B
:100B60000FB607FCF5CF808185FFF2CFA889B98940
:100B70008C9185FFEDCFCE010E947F05E7CFDF91FD
:100B8000CF910895CF92DF92FF920F931F93CF934F
:100B9000DF931F92CDB7DEB76C0181E0D601589686
:100BA0008C9358975B969C915B975C968C915C9725
:100BB000981307C05096ED91FC915197808185FD67
:100BC0002EC0F601038D10E00F5F1F4F0F7311272A
:100BD000F02EF601848DF81211C00FB607FCF9CF84
:100BE000D6015096ED91FC915197808185FFF1CF10
:100BF000C60169830E947F056981EBCF838DE80F71
:100C0000F11DE35AFF4F6083D6015B960C935B970F
:100C10005296ED91FC915397808180620CC0D60171
:100C20005696ED91FC91579760835096ED91FC910B
:100C3000519780818064808381E090E00F90DF9104
:100C4000CF911F910F91FF90DF90CF900895BF92A9
:100C5000CF92DF92EF92FF92CF93DF93EC016A0184
:100C60007B01B22EE889F98982E08083411581EE0B
:100C7000580761057105A1F060E079E08DE390E02F
:100C8000A70196010E94530A2150310941095109D7
:100C90005695479537952795211580E1380798F0A7
:100CA000E889F989108260E874E88EE190E0A70194
:100CB00096010E94530A2150310941095109569564
:100CC000479537952795EC85FD853083EE85FF8523
:100CD0002083188EEC89FD89B082EA89FB898081A6
:100CE00080618083EA89FB89808188608083EA89CA
:100CF000FB89808180688083EA89FB8980818F7D80
:100D00008083DF91CF91FF90EF90DF90CF90BF90E5
:100D100008951F920F920FB60F9211242F938F9365
:100D20009F93EF93FF93E0919A04F0919B0480814D
:100D3000E091A004F091A10482FD12C09081809105
:100D4000A3048F5F8F732091A404821751F0E09168
:100D5000A304F0E0E657FB4F958F8093A30401C0F6
:100D60008081FF91EF919F918F912F910F900FBEF6
:100D70000F901F9018951F920F920FB60F9211248B
:100D80002F933F934F935F936F937F938F939F9393
:100D9000AF93BF93EF93FF938AE894E00E947F059F
:100DA000FF91EF91BF91AF919F918F917F916F9143
:100DB0005F914F913F912F910F900FBE0F901F9019
:100DC00018958AE894E00E94440521E0892B09F4F3
:100DD00020E0822F089510928D0410928C0488EEEA
:100DE00093E0A0E0B0E080938E0490938F04A093F2
:100DF0009004B093910487EB92E090938B048093DE
:100E00008A0485EC90E0909397048093960484EC98
:100E100090E0909399048093980480EC90E09093F4
:100E20009B0480939A0481EC90E090939D048093BE
:100E30009C0482EC90E090939F0480939E0486EC47
:100E400090E09093A1048093A0041092A3041092C8
:100E5000A4041092A5041092A6040895CF92DF92E4
:100E6000EF92FF920F931F93CF93DF936C017A0160
:100E7000EB01E60EF71E00E010E0CE15DF0561F095
:100E80006991D601ED91FC910190F081E02DC601B0
:100E90000995080F191FF1CFC801DF91CF911F915C
:100EA0000F91FF90EF90DF90CF900895611571053D
:100EB00081F0DB010D900020E9F7AD0141505109AF
:100EC000461B570BDC01ED91FC910280F381E02D74
:100ED000099480E090E008950C945607DC01ED91B0
:100EE000FC910190F081E02D099463EC72E00C9488
:100EF00056070F931F93CF93DF93EC010E94560781
:100F00008C01CE010E947507800F911FDF91CF9158
:100F10001F910F9108958F929F92AF92BF92CF929F
:100F2000DF92EF92FF920F931F93CF93DF93CDB792
:100F3000DEB7A1970FB6F894DEBF0FBECDBF7C0120
:100F4000C42EE52FCB01D22E19A221E02D1510F0D1
:100F50002AE0D22E8E010F5D1F4F8D2C912CA12CDB
:100F6000B12C6C2D7E2FA50194010E94530A8C2D6B
:100F7000D29E80191124015011098A3014F4805D29
:100F800001C0895CF80180832115310541055105B7
:100F900021F0C22EE32FCA01E4CFB801C7010E949D
:100FA0005607A1960FB6F894DEBF0FBECDBFDF91F6
:100FB000CF911F910F91FF90EF90DF90CF90BF9056
:100FC000AF909F908F900895CF92DF92EF92FF9213
:100FD0000F931F93CF93DF93EC016A017B012115DF
:100FE000310579F4E881F9810190F081E02D642FD9
:100FF000DF91CF911F910F91FF90EF90DF90CF90F5
:1010000009942A303105E9F477FF1AC06DE20E9495
:101010006E078C0144275527BA014C195D096E09EA
:101020007F092AE0CE010E948B07800F911FDF917C
:10103000CF911F910F91FF90EF90DF90CF90089587
:101040002AE0B701A601CE01DF91CF911F910F9148
:10105000FF90EF90DF90CF900C948B079A01AB013B
:10106000662757FD6095762F0C94E4070F931F9326
:10107000CF93DF93EC019A01AB01662757FD609592
:10108000762F0E94E4078C01CE010E947507800F25
:10109000911FDF91CF911F910F910895FC018081E5
:1010A00091810C94270BCF93DF93EC018881998178
:1010B000009711F00E94270B198218821D821C8252
:1010C0001B821A82DF91CF9108950F931F93CF93C4
:1010D000DF93EC018B016F5F7F4F888199810E94C4
:1010E000B60B009731F0998388831B830A8381E0D4
:1010F00001C080E0DF91CF911F910F910895CF93B0
:10110000DF93EC0188819981892B29F08A819B8169
:101110008617970760F4CE010E946508882341F086
:101120008C819D81892B19F4E881F981108281E0FD
:10113000DF91CF910895EF92FF920F931F93CF937A
:10114000DF93EC017B018A01BA010E947F088111C3
:1011500004C0CE010E94530807C01D830C83B70151
:10116000888199810E94890CCE01DF91CF911F91D6
:101170000F91FF90EF900895FC011182108213826D
:101180001282158214826115710559F0FB010190DC
:101190000020E9F7AF0141505109461B570B0C9451
:1011A0009B08089508950E9443090E94D2080E9456
:1011B0008602C1E7D5E00E9450022097E1F30E9429
:1011C0007105F9CF1F920F920FB60F9211242F9332
:1011D0003F938F939F93AF93BF93809128059091F6
:1011E0002905A0912A05B0912B053091270523E010
:1011F000230F2D3720F40196A11DB11D05C026E84F
:10120000230F0296A11DB11D209327058093280569
:1012100090932905A0932A05B0932B0580912C0566
:1012200090912D05A0912E05B0912F050196A11D3D
:10123000B11D80932C0590932D05A0932E05B0939E
:101240002F05BF91AF919F918F913F912F910F905B
:101250000FBE0F901F9018952FB7F8946091280536
:101260007091290580912A0590912B052FBF089533
:101270008230910538F0880F991F880F991F0597C4
:101280000197F1F70895789484B5826084BD84B5A0
:10129000816084BD85B5826085BD85B5816085BD71
:1012A000EEE6F0E0808181608083E1E8F0E010828A
:1012B000808182608083808181608083E0E8F0E0CB
:1012C000808181608083E1EBF0E0808184608083B5
:1012D000E0EBF0E0808181608083EAE7F0E08081EC
:1012E000846080838081826080838081816080834C
:1012F0008081806880831092C1000895833081F0DE
:1013000028F4813099F08230A1F008958730A9F057
:101310008830B9F08430D1F4809180008F7D03C093
:10132000809180008F7780938000089584B58F77B7
:1013300002C084B58F7D84BD08958091B0008F7701
:1013400003C08091B0008F7D8093B0000895CF934B
:10135000DF9390E0FC01E458FF4F2491FC01E0573B
:10136000FF4F8491882349F190E0880F991FFC0179
:10137000E854FF4FA591B49182559F4FFC01C59150
:10138000D4919FB7611108C0F8948C912095822365
:101390008C93888182230AC0623051F4F8948C9136
:1013A000322F309583238C938881822B888304C0CD
:1013B000F8948C91822B8C939FBFDF91CF910895ED
:1013C0000F931F93CF93DF931F92CDB7DEB7282FD4
:1013D00030E0F901E859FF4F8491F901E458FF4FDB
:1013E0001491F901E057FF4F04910023C9F08823BD
:1013F00021F069830E947E096981E02FF0E0EE0F01
:10140000FF1FE255FF4FA591B4919FB7F8948C91BF
:10141000611103C01095812301C0812B8C939FBF64
:101420000F90DF91CF911F910F910895CF93DF938C
:10143000282F30E0F901E859FF4F8491F901E45871
:10144000FF4FD491F901E057FF4FC491CC2391F0A5
:1014500081110E947E09EC2FF0E0EE0FFF1FEC558A
:10146000FF4FA591B4912C912D2381E090E021F4C0
:1014700080E002C080E090E0DF91CF91089597FB7B
:10148000072E16F4009407D077FD09D00E94750A44
:1014900007FC05D03EF4909581959F4F0895709577
:1014A00061957F4F0895A1E21A2EAA1BBB1BFD0177
:1014B0000DC0AA1FBB1FEE1FFF1FA217B307E40733
:1014C000F50720F0A21BB30BE40BF50B661F771F8B
:1014D000881F991F1A9469F760957095809590956B
:1014E0009B01AC01BD01CF010895AA1BBB1B51E1BB
:1014F00007C0AA1FBB1FA617B70710F0A61BB70B84
:10150000881F991F5A95A9F780959095BC01CD0128
:101510000895EE0FFF1F0590F491E02D0994CF93ED
:10152000DF938230910510F482E090E0E091320583
:10153000F091330520E030E0A0E0B0E0309739F1E1
:101540004081518148175907B8F04817590771F47D
:1015500082819381109729F013969C938E93129712
:101560002CC0909333058093320527C02115310597
:1015700031F04217530718F0A901DB0101C0EF0158
:101580009A01BD01DF010280F381E02DD7CF211543
:101590003105F9F0281B390B2430310580F48A819C
:1015A0009B816115710521F0FB019383828304C047
:1015B0009093330580933205FE01329644C0FE01BC
:1015C000E20FF31F819391932250310939832883CD
:1015D0003AC02091300530913105232B41F4209100
:1015E00002013091030130933105209330052091A1
:1015F0000001309101012115310541F42DB73EB7AD
:101600004091040150910501241B350BE0913005F8
:10161000F0913105E217F307A0F42E1B3F0B2817BA
:10162000390778F0AC014E5F5F4F2417350748F05B
:101630004E0F5F1F50933105409330058193919376
:1016400002C0E0E0F0E0CF01DF91CF910895CF93A9
:10165000DF93009709F487C0FC013297138212824E
:10166000C0913205D0913305209781F420813181DA
:10167000280F391F8091300590913105821793070B
:1016800079F5F0933105E09330056DC0DE0120E07F
:1016900030E0AE17BF0750F412964D915C9113974E
:1016A0009D014115510509F1DA01F3CFB383A283FE
:1016B00040815181840F951F8A179B0771F48D918A
:1016C0009C911197840F951F0296918380831296A7
:1016D0008D919C911397938382832115310529F471
:1016E000F0933305E09332053EC0D9011396FC9385
:1016F000EE9312974D915D91A40FB51FEA17FB076A
:1017000079F480819181840F951F0296D9011196F9
:101710009C938E938281938113969C938E931297C0
:10172000E0E0F0E08A819B81009719F0FE01EC0176
:10173000F9CFCE01029628813981820F931F209123
:101740003005309131052817390769F4309729F4AD
:10175000109233051092320502C013821282D09388
:101760003105C0933005DF91CF910895A0E0B0E03E
:10177000ECEBFBE00C94940CEC01CB01209719F4FA
:101780000E948F0AB8C0FE01E60FF71F9E0122508B
:101790003109E217F30708F4ACC0D9010D911C918F
:1017A000119706171707B8F00530110508F49FC008
:1017B000A801445051094617570708F498C0025031
:1017C0001109061B170B019311936D937C93CF01A5
:1017D0000E94270B8CC05B01A01AB10A4E01800E3B
:1017E000911EA0913205B0913305612C712C60E0FF
:1017F00070E0109709F449C0A815B905C9F5ED9036
:10180000FC901197670142E0C40ED11CCA14DB049E
:1018100078F147018A189B08640142E0C40ED11C8C
:101820001296BC9012971396AC91B5E0CB16D104EA
:1018300040F0B282A38391828082D9018D939C93E0
:1018400009C00E5F1F4F0E0D1F1DF901118300838C
:10185000EB2DFA2F6115710531F0DB011396FC9326
:10186000EE93129744C0F0933305E09332053FC0E6
:101870006D917C9111976616770608F43B01BD01C6
:1018800012960D90BC91A02DB4CF6091300570914F
:10189000310568157905E9F468167906D0F44091A8
:1018A0000001509101014115510541F44DB75EB75A
:1018B0006091040170910501461B570BE417F50771
:1018C000C0F4F0933105E0933005F90191838083F2
:1018D0000EC00E948F0A7C01009759F0A801BE013A
:1018E0000E94800CCE010E94270BC70104C0CE01CC
:1018F00002C080E090E0CDB7DEB7EEE00C94B00C13
:10190000FB01DC0102C001900D9241505040D8F71C
:101910000895FB01DC0101900D920020E1F708958C
:101920002F923F924F925F926F927F928F929F92EF
:10193000AF92BF92CF92DF92EF92FF920F931F93DD
:10194000CF93DF93CDB7DEB7CA1BDB0B0FB6F8948E
:10195000DEBF0FBECDBF09942A88398848885F84CE
:101960006E847D848C849B84AA84B984C884DF803F
:10197000EE80FD800C811B81AA81B981CE0FD11D23
:101980000FB6F894DEBF0FBECDBFED01089510E095
:10199000C6ECD0E004C0FE010E948B0A2296C83C2F
:0819A000D107C9F7F894FFCF4D
:1019A8000000340580002E2D2D2E002D2E2E2D000A
:1019B8002E2D2D2D2D002E2E2D2D2D002E2E2E2DA3
:1019C8002D002E2E2E2E2E002D2E2E2E2E002D2DBD
:1019D8002D2E2E002D2D2D2D2D002E2E2D2D2E2E83
:1019E800002E2D2E2D2E2D002D2D2E2E2D2D002DA1
:1019F8002D2D2E2E2E002E2D2D2D2D2E002D2E2E62
:101A08002E2E2D002D2E2D2D2E2E002D2E2D2D2E51
:101A18002D002E2D2E2E2D2E002D2E2E2E2D002D6E
:101A28002E2D2E2D2D002E2D2D2E2D2D002E2D2E32
:101A38002D2E2E002D2E2D2E2D2E002E2D2D2E2D21
:101A48002E002E2E2D2D2E2D004142434445464773
:101A580048494A4B4C4D4E4F505152535455565786
:101A680058595A313233343536373839303F2E2CBD
:101A78003A272D2F2829223D2124262B3B405F0081
:101A88005465737443616C6962726174696F6E0046
:101A98005365742066697273742064656C74612080
:101AA80061732070756C736520776964746800537E
:101AB8006574207365636F6E642064656C7461205F
:101AC80061732070756C736520776964746800466B
:101AD800697273742064656C746120697320646F23
:101AE800742074696D65005365636F6E6420646566
:101AF8006C746120697320646F742074696D65006B
:101B080046697273742064656C746120736574200F
:101B18006173207365636F6E642064656C74612003
:101B2800696E207072657065726174696F6E206687
:101B38006F72206E6578742070756C736500202054
:101B48002020202020202020202000000000003E0F
:101B5800052E0700000000C2052E0744055D054F4D
:101B680005A0050D0A006E616E00696E66006F764D
:021B7800660005
:00000001FF
