:100000000C9468000C9490000C9490000C94900058
:100010000C9490000C9490000C9490000C94900020
:100020000C9490000C9490000C9490000C94900010
:100030000C9490000C9490000C9490000C94900000
:100040000C94A60B0C9490000C94CC080C94FE0815
:100050000C9490000C9490000C9490000C949000E0
:100060000C94F4030C949000370339033C033E03D3
:10007000400348034A034C0300000008000201004B
:100080000003040700000000000000000102040853
:1000900010204080010204081020010204081020F2
:1000A000040404040404040402020202020203031E
:1000B0000303030300000000250028002B000000BC
:1000C0000000240027002A003F02D2052E095D020D
:1000D00011241FBECFEFD8E0DEBFCDBF11E0A0E0FE
:1000E000B1E0E0E2FFE102C005900D92A43EB1074D
:1000F000D9F723E0A4EEB1E001C01D92AF37B207FB
:10010000E1F710E0CEECD0E004C02297FE010E949F
:100110003E0DC83CD107C9F70E94970B0C94830F82
:100120000C9400008EEF91E00E947F0684EE91E037
:100130000E945D038630910541F088309105A1F061
:100140000597A9F466E071E014C06BE071E08EEFF2
:1001500091E00E94BD0941E060E08EEF91E00E94D5
:10016000860664E171E005C06BE171E002C060E207
:1001700071E08EEF91E00C94BD098EEF91E00E944A
:100180007F0620E042E060E18EEF91E00E94A00651
:1001900040E060E08EEF91E00E94860626E040E8B5
:1001A00055E260E070E085ED92E00E946A0868E048
:1001B00070E084EE91E00E9459030E94920084E86E
:1001C00092E00C94B80563E271E082EF91E00E9446
:1001D000770B8823C9F06DE271E088EF91E00E940F
:1001E000770B882319F060E070E002C065E070E0F2
:1001F00084EE91E00E94590364ED71E088EF91E094
:100200000E94200B0C94920064E371E082EF91E075
:100210000E94770B882319F06BE371E0DECF63E473
:1002200071E082EF91E00E94770B882319F06AE475
:1002300071E0D3CF63E571E082EF91E00E94770B2C
:100240008823A1F263E571E0C8CF68EF71E08EEF1B
:1002500091E00E94AF0941E060E08EEF91E00E94E2
:10026000860662EF71E08EEF91E00E94AF096CEDBF
:1002700075E080E090E00E94130C60E070E084EE96
:1002800091E00C94590368EF71E08EEF91E00E94C9
:10029000AF0941E060E08EEF91E00E94860669E5DB
:1002A00071E08EEF91E00E94BD096CED75E080E099
:1002B00090E00E94130C60E070E084EE91E00C94FA
:1002C00059036EE571E088EF91E00E94770B882377
:1002D00019F060E070E020C062E671E088EF91E024
:1002E0000E94770B882319F061E070E015C067E683
:1002F00071E088EF91E00E94770B882319F062E0AB
:1003000070E00AC06EE671E088EF91E00E94770B22
:10031000882331F063E070E084EE91E00E94610395
:1003200060E070E084EE91E00E9459030E94920028
:1003300064ED71E088EF91E00C94200B68EF71E0C0
:100340008EEF91E00E94AF0941E060E08EEF91E016
:100350000E94860684EE91E00E946503813091053B
:1003600071F02CF4892BA1F46EE571E00DC08230A0
:10037000910541F0039761F46EE671E005C062E615
:1003800071E002C067E671E08EEF91E00E94BD0966
:100390006CED75E080E090E00C94130C63E771E085
:1003A00088EF91E00E94770B882319F064E070E0F9
:1003B00020C06AE771E088EF91E00E94770B882304
:1003C00019F00E94250153C061E871E088EF91E0C7
:1003D0000E94770B882319F00E94430148C06DE00A
:1003E00071E088EF91E00E94770B882339F066E096
:1003F00070E084EE91E00E94590339C066E871E034
:1004000088EF91E00E94770B882319F00E949E01EB
:100410002EC06BE171E088EF91E00E94770B88239A
:1004200019F068E070E0E5CF6DE871E088EF91E0E9
:100430000E94770B882319F065E070E0DACF68EF4F
:1004400071E08EEF91E00E94AF0964E971E08EEFF8
:1004500091E00E94BD0960E070E084EE91E00E94AE
:10046000590368EE73E080E090E00E94130C64EDA5
:1004700071E088EF91E00E94200B0C949200CF92E3
:10048000EF920F9382E0C82E93E0E92E04E025E07E
:100490004BE06CE08EEF91E00E945B0764ED71E051
:1004A00088EF91E00E94F30A64ED71E082EF91E041
:1004B0000F91EF90CF900C94F30A82EF91E00E949D
:1004C000850A88EF91E00C94850A0F931F93CF93D0
:1004D000DF93C1E0D0E044E050E0BE0184E892E068
:1004E0000E94CF0584E892E00E942105049771F0F4
:1004F0002196C630D10579F768EE73E080E090E090
:10050000DF91CF911F910F910C94130C0AEE11E023
:1005100084E892E00E942905F801819391938F016C
:10052000F1E0023F1F07A1F70AEE11E0F801619127
:1005300071918F014AE050E085ED92E00E946D0AD2
:10054000F1E0023F1F0791F7D3CF85ED92E00E94C3
:100550008707892B89F185ED92E00E94A0078A30F8
:1005600029F568EF71E082EF91E00E94090B64EDDC
:1005700071E088EF91E00E94200B62E070E084EE71
:1005800091E00E94590362EF71E08EEF91E00E94CA
:10059000AF0941E060E08EEF91E00E94860665EAD7
:1005A00071E08EEF91E00E94BD09CFCF682F88EFF8
:1005B00091E00E94640BC9CF089585ED92E00E94FE
:1005C0008707892B99F085ED92E00E94A0078A3079
:1005D00039F463E070E084EE91E00E945903EDCFBE
:1005E000682F88EF91E00E94640BE7CF089585EDB6
:1005F00092E00E948707892B99F085ED92E00E9496
:10060000A0078A3039F461E070E084EE91E00E9446
:100610005903EDCF682F88EF91E00E94640BE7CF7C
:10062000089585ED92E00E948707892B99F085ED6A
:1006300092E00E94A0078A3039F467E070E084EE0F
:1006400091E00E945903EDCF682F88EF91E00E945E
:10065000640BE7CF089584EE91E00E945D0388303B
:100660009105E0F4FC01EC5CFF4F0C943C0D0C9404
:10067000F7020E94CE010AC00C94DD020C94E30044
:1006800065E070E084EE91E00E9459030C949200C2
:100690000C94A5020C9411030C946101089584EE4E
:1006A00091E00E945D03089711F00C942B030C94C9
:1006B0006502FC01718360830895FC018081918152
:1006C0000895FC01758364830895FC0184819581FC
:1006D00008951092830281E080938102109280023B
:1006E00061E082E10E94E30C61E083E10E94E30C9F
:1006F000E9EBF0E080818E7F808380818D7F808335
:1007000088E48093B80085E48093BC00089541326A
:1007100008F03FC0909183029111FCCF91E090933B
:100720008302209381022FEF2093160210925B0226
:10073000240F20935A029093820290918202880F94
:10074000892B8093820280918002813041F4109243
:100750008002809182028093BB0085EC01C085EE0F
:100760008093BC00809183028130E1F380915B0231
:10077000841710F440915B022CE532E0FB01D901B3
:100780008A2F821B841718F48D918193F9CF842FBF
:10079000089580E00895613298F420918302243016
:1007A00089F460933802FC018AE392E0DC012A2F8D
:1007B000281B261718F421912D93F9CF80E0089576
:1007C00081E0089582E0089585ED8093BC008091DA
:1007D000BC0084FDFCCF10928302089585EC8093C9
:1007E000BC001092830208951F920F920FB60F92D1
:1007F00011242F933F934F935F936F937F938F9326
:100800009F93AF93BF93EF93FF938091B900887F3D
:10081000803609F49CC068F5883209F45BC090F416
:10082000803109F454C038F4882309F4F5C08830C5
:1008300009F44DC0F5C0883109F44CC0803209F488
:100840005DC0EEC0803409F468C048F4803309F418
:1008500055C0883309F0E4C080931602A8C08035E3
:1008600009F44FC0883509F45DC0883409F0D8C058
:10087000D5C0883909F4C6C0A8F4883709F467C020
:1008800038F4883609F463C0803709F460C0C8C002
:10089000883809F4B7C0803909F45FC0803809F09E
:1008A000BFC05BC0803B09F485C038F4803A09F4CE
:1008B00066C0883A09F47EC0B3C0803C09F4A6C083
:1008C000883C09F4A3C0883B09F489C0A9C0809181
:1008D000820210C090915B0280915A02981770F5C5
:1008E000E0915B0281E08E0F80935B02F0E0E45ABE
:1008F000FD4F80818093BB0085EC85C080931602FC
:100900008DC0E0915B0281E08E0F80935B0280914D
:10091000BB00F0E0E45AFD4F808390915B02809130
:100920005A026DC0E0915B0281E08E0F80935B0202
:100930008091BB00F0E0E45AFD4F808380918102FA
:1009400081116CC081E08093800284EA60C083E002
:100950008093830210921702CFCF809117028032CA
:1009600008F050C0E091170281E08E0F80931702CB
:100970008091BB00F0E0E85EFD4F8083BDCF8091A9
:100980001702803230F4E0911702F0E0E85EFD4F8C
:1009900010820E94E4036091170270E0E0917C02F3
:1009A000F0917D0288E192E00995109217020E9471
:1009B000EE0336C084E080938302109239021092D5
:1009C0003802E0917E02F0917F0209958091380211
:1009D000811105C081E08093380210923A02E091C3
:1009E000390281E08E0F80933902F0E0E65CFD4F22
:1009F00080818093BB0090913902809138029817D2
:100A000008F47ACF85E88093BC000AC085EC809317
:100A1000BC001092830204C0109216020E94E403EC
:100A2000FF91EF91BF91AF919F918F917F916F91C6
:100A30005F914F913F912F910F900FBE0F901F909C
:100A400018958091B30290E02091B402821B910925
:100A500008952091B4028091B302281750F4E22F38
:100A6000F0E0EB54FD4F808190E02F5F2093B402C3
:100A700008958FEF9FEF0895E091B4028091B30243
:100A8000E81730F4F0E0EB54FD4F808190E00895DA
:100A90008FEF9FEF08950895CF92DF92EF92FF922C
:100AA0000F931F93CF93DF937C01CB018A01209199
:100AB0009002222389F0EB016B01C40ED51ECC15E8
:100AC000DD0569F06991D701ED91FC910190F0810C
:100AD000E02DC7010995F3CF642F0E94CB03C80115
:100AE000DF91CF911F910F91FF90EF90DF90CF900A
:100AF0000895CF93DF931F92CDB7DEB7698320911E
:100B000090022223D1F020919102203240F021E086
:100B100030E0FC013383228380E090E015C08091B7
:100B20009202E82FF0E0ED56FD4F998190838F5FA0
:100B3000809392028093910205C061E0CE010196FC
:100B40000E94CB0381E090E00F90DF91CF91089558
:100B5000FC011382128248EE53E060E070E04483AF
:100B60005583668377838EEA91E09183808308952D
:100B70001092B4021092B30210929202109291025B
:100B80000C946903862F413208F040E265EB72E075
:100B90000E9487031092B4028093B302089521E06B
:100BA0000C94C20584E892E00C94A805CF93DF93DF
:100BB000EC0160E08E810E94E30C81E090E00E94F5
:100BC0003B0C61E08E810E94E30C81E090E00E948A
:100BD0003B0C60E08E810E94E30C84E690E0DF91A4
:100BE000CF910C943B0CCF92DF92EF92FF920F9338
:100BF0001F93CF93DF937C01C0E0D0E0C62ED12CB1
:100C000087010C0F1D1F61E0F80187810E94AA0C6B
:100C1000B6010C2E02C0759567950A94E2F76170D3
:100C2000F80187810E94E30C2196C430D10541F779
:100C3000C701DF91CF911F910F91FF90EF90DF904F
:100C4000CF900C94D605CF92DF92EF92FF920F9344
:100C50001F93CF93DF937C01C0E0D0E0C62ED12C50
:100C600087010C0F1D1F61E0F80187810E94AA0C0B
:100C7000B6010C2E02C0759567950A94E2F7617073
:100C8000F80187810E94E30C2196C830D10541F715
:100C9000C701DF91CF911F910F91FF90EF90DF90EF
:100CA000CF900C94D6051F93CF93DF93EC01162FB2
:100CB000642F8C810E94E30C8D818F3F19F060E0DE
:100CC0000E94E30C8F85612F84FF06C0CE01DF9167
:100CD000CF911F910C94230670E084E07595679581
:100CE0008A95E1F7CE010E94F305612FCE01DF91D5
:100CF000CF911F910C94F30540E00C94530661E0F2
:100D00000E947C0680ED97E00C943B0C443008F088
:100D100043E0FC012389421710F04FEF420FFC0122
:100D2000E40FF11D2489260F2068622F0C947C06A5
:100D3000FC016089262F2460208B6C600C947C065B
:100D4000CF93DF93EC01423018F08F8588608F8756
:100D50004B8B1C8A80E48D8B6E8B70E0605C7F4FC8
:100D60006F8B222329F0413019F48F8584608F879F
:100D700080E593EC0E943B0C60E08C810E94E30CC8
:100D800060E08E810E94E30C8D818F3F19F060E05E
:100D90000E94E30C6F8564FD1DC063E0CE010E94DC
:100DA000F30584E991E10E943B0C63E0CE010E94CF
:100DB000F30584E991E10E943B0C63E0CE010E94BF
:100DC000F30586E990E00E943B0C62E0CE010E94B0
:100DD000F30516C06062CE010E947C0684E991E1B1
:100DE0000E943B0C6F856062CE010E947C0686E902
:100DF00090E00E943B0C6F856062CE010E947C06F1
:100E00006F856062CE010E947C0684E0888BCE01F3
:100E10000E949806CE010E947F0682E0898B66E0E0
:100E2000CE01DF91CF910C947C066F927F928F92CE
:100E3000AF92CF92EF920F931F93CF93DF93CDB7E3
:100E4000DEB73C01162F842F5D854E853F8598893E
:100E5000F301848325830683E782C086A186828688
:100E6000538744873587968761E00E94AA0CF30177
:100E700085818F3F19F061E00E94AA0C61E0F301C7
:100E800086810E94AA0C112319F0F301178603C072
:100E900080E1F301878720E041E060E1C301DF9159
:100EA000CF911F910F91EF90CF90AF908F907F9047
:100EB0006F900C94A0068F92AF92CF92EF920F9307
:100EC000DC0113961C921E921297EEEBF1E0ED936B
:100ED000FC931F921F921F921F928C2CAE2CC02E3F
:100EE000E22E042F2FEF462F61E00E9415070F908E
:100EF0000F900F900F900F91EF90CF90AF908F9039
:100F0000089541E00E94530681E090E00895FC01BD
:100F1000818D228D90E0805C9F4F821B91098F73A1
:100F200099270895FC01918D828D981731F0828D5B
:100F3000E80FF11D858D90E008958FEF9FEF0895E4
:100F4000FC01918D828D981761F0828DDF01A80FD1
:100F5000B11D5D968C91928D9F5F9F73928F90E0F3
:100F600008958FEF9FEF089584E299E0892B49F06F
:100F700080E090E0892B29F00E94240981110C94D3
:100F800000000895FC01848DDF01A80FB11DA35A54
:100F9000BF4F2C91848D90E001968F739927848F99
:100FA000A689B7892C93A089B1898C9180648C9390
:100FB000938D848D981306C00288F389E02D80817B
:100FC0008F7D80830895CF93DF93EC01888D8823F4
:100FD000C9F0EA89FB89808185FD05C0A889B989A6
:100FE0008C9186FD0FC00FB607FCF5CF808185FF81
:100FF000F2CFA889B9898C9185FFEDCFCE010E94EF
:10100000C207E7CFDF91CF910895CF92DF92FF9291
:101010000F931F93CF93DF931F92CDB7DEB76C0171
:1010200081E0D60158968C9358975B969C915B977C
:101030005C968C915C97981307C05096ED91FC914B
:101040005197808185FD2EC0F601038D10E00F5F62
:101050001F4F0F731127F02EF601848DF81211C067
:101060000FB607FCF9CFD6015096ED91FC91519740
:10107000808185FFF1CFC60169830E94C207698123
:10108000EBCF838DE80FF11DE35AFF4F6083D6014C
:101090005B960C935B975296ED91FC9153978081F0
:1010A00080620CC0D6015696ED91FC9157976083F3
:1010B0005096ED91FC91519780818064808381E00E
:1010C00090E00F90DF91CF911F910F91FF90DF90F3
:1010D000CF900895BF92CF92DF92EF92FF92CF937D
:1010E000DF93EC016A017B01B22EE889F98982E085
:1010F0008083411581EE580761057105A1F060E01C
:1011000079E08DE390E0A70196010E941A0D21502D
:10111000310941095109569547953795279521156C
:1011200080E1380798F0E889F989108260E874E86E
:101130008EE190E0A70196010E941A0D215031091D
:10114000410951095695479537952795EC85FD85B9
:101150003083EE85FF852083188EEC89FD89B0826F
:10116000EA89FB89808180618083EA89FB898081AB
:1011700088608083EA89FB89808180688083EA892E
:10118000FB8980818F7D8083DF91CF91FF90EF90ED
:10119000DF90CF90BF9008951F920F920FB60F92DD
:1011A00011242F938F939F93EF93FF93E091E50288
:1011B000F091E6028081E091EB02F091EC0282FD79
:1011C00012C090818091EE028F5F8F732091EF02A9
:1011D000821751F0E091EE02F0E0EB52FD4F958F57
:1011E0008093EE0201C08081FF91EF919F918F91DA
:1011F0002F910F900FBE0F901F9018951F920F9276
:101200000FB60F9211242F933F934F935F936F93D9
:101210007F938F939F93AF93BF93EF93FF9385ED4E
:1012200092E00E94C207FF91EF91BF91AF919F9111
:101230008F917F916F915F914F913F912F910F907F
:101240000FBE0F901F90189585ED92E00E948707C2
:1012500021E0892B09F420E0822F08951092D80212
:101260001092D70288EE93E0A0E0B0E08093D9021C
:101270009093DA02A093DB02B093DC0286EC91E05B
:101280009093D6028093D50285EC90E09093E20291
:101290008093E10284EC90E09093E4028093E30277
:1012A00080EC90E09093E6028093E50281EC90E080
:1012B0009093E8028093E70282EC90E09093EA0238
:1012C0008093E90286EC90E09093EC028093EB022D
:1012D0001092EE021092EF021092F0021092F102C0
:1012E0000895CF92DF92EF92FF920F931F93CF93C7
:1012F000DF936C017A01EB01E60EF71E00E010E0CF
:10130000CE15DF0561F06991D601ED91FC91019058
:10131000F081E02DC6010995080F191FF1CFC80112
:10132000DF91CF911F910F91FF90EF90DF90CF90C1
:1013300008956115710581F0DB010D900020E9F73A
:10134000AD0141505109461B570BDC01ED91FC9159
:101350000280F381E02D099480E090E00895DC01A3
:10136000ED91FC91DB0114964D915C9115976D9177
:101370007C910280F381E02D09940C949909DC01A1
:10138000ED91FC910190F081E02D099462ED71E006
:101390000C9499098F929F92AF92BF92CF92DF9255
:1013A000EF92FF920F931F93CF93DF93CDB7DEB7EA
:1013B000A1970FB6F894DEBF0FBECDBF7C01C42E3F
:1013C000E52FCB01D22E19A221E02D1510F02AE035
:1013D000D22E8E010F5D1F4F8D2C912CA12CB12C84
:1013E0006C2D7E2FA50194010E941A0D8C2DD29E8A
:1013F00080191124015011098A3014F4805D01C054
:10140000895CF8018083211531054105510521F0E2
:10141000C22EE32FCA01E4CFB801C7010E94990987
:10142000A1960FB6F894DEBF0FBECDBFDF91CF916E
:101430001F910F91FF90EF90DF90CF90BF90AF90F2
:101440009F908F900895CF92DF92EF92FF920F932B
:101450001F93CF93DF93EC016A017B0121153105C6
:1014600079F4E881F9810190F081E02D642FDF911A
:10147000CF911F910F91FF90EF90DF90CF90099443
:101480002A303105E9F477FF1AC06DE20E94BF09E6
:101490008C0144275527BA014C195D096E097F0953
:1014A0002AE0CE010E94CA09800F911FDF91CF91DF
:1014B0001F910F91FF90EF90DF90CF9008952AE059
:1014C000B701A601CE01DF91CF911F910F91FF903F
:1014D000EF90DF90CF900C94CA090F931F93CF9396
:1014E000DF93EC019A01AB01662757FD6095762FDB
:1014F0000E94230A8C01CE010E94C609800F911F11
:10150000DF91CF911F910F910895FC01808191810E
:101510000C94DA0DCF93DF93EC01888199810097C9
:1015200011F00E94DA0D198218821D821C821B8222
:101530001A82DF91CF9108950F931F93CF93DF937A
:10154000EC018B016F5F7F4F888199810E94690E4A
:10155000009731F0998388831B830A8381E001C05F
:1015600080E0DF91CF911F910F910895CF93DF938A
:10157000EC0188819981892B29F08A819B818617CA
:10158000970760F4CE010E949C0A882341F08C8169
:101590009D81892B19F4E881F981108281E0DF9126
:1015A000CF910895EF92FF920F931F93CF93DF9304
:1015B000EC017B018A01BA010E94B60A811104C0C4
:1015C000CE010E948A0A07C01D830C83B70188815F
:1015D00099810E94450FCE01DF91CF911F910F910C
:1015E000FF90EF900895FC01118210821382128205
:1015F000158214826115710559F0FB0101900020DC
:10160000E9F7AF0141505109461B570B0C94D20A20
:101610000895CF93DF93EC01FB018617970761F0E4
:10162000608171816115710529F0448155810E94A5
:10163000D20A02C00E948A0ACE01DF91CF9108959A
:10164000CF93DF93EC016115710561F0FB0101900F
:101650000020E9F7AF0141505109461B570B0E948A
:10166000D20A02C00E948A0ACE01DF91CF9108956A
:10167000EF92FF920F931F93CF93DF93EC017B01C7
:101680000C811D816115710511F480E016C04115B2
:10169000510591F0040F151FB8010E94B60A882366
:1016A000A1F3288139818C819D81B701820F931F1D
:1016B0000E94450F1D830C8381E0DF91CF911F9124
:1016C0000F91FF90EF900895CF93DF9300D0CDB7A7
:1016D000DEB769831A8241E050E0BE016F5F7F4F41
:1016E0000E94380B0F900F90DF91CF910895FC016D
:1016F00024813581232B31F421E061157105A1F09E
:10170000FB0108C0FC01808191816115710531F4F4
:1017100021E0FC018081882339F005C00E943C0F44
:1017200021E0892B09F020E0822F089508950E947E
:10173000460C0E94960B0E94BD00C4EBD7E00E94AD
:101740004F032097E1F30E94B407F9CF1F920F9245
:101750000FB60F9211242F933F938F939F93AF93C4
:10176000BF938091730390917403A0917503B0911E
:1017700076033091720323E0230F2D3720F4019676
:10178000A11DB11D05C026E8230F0296A11DB11DA4
:10179000209372038093730390937403A093750353
:1017A000B09376038091770390917803A0917903A9
:1017B000B0917A030196A11DB11D80937703909398
:1017C0007803A0937903B0937A03BF91AF919F916F
:1017D0008F913F912F910F900FBE0F901F901895F2
:1017E0003FB7F8948091770390917803A0917903A3
:1017F000B0917A0326B5A89B05C02F3F19F001963A
:10180000A11DB11D3FBF6627782F892F9A2F620F28
:10181000711D811D911D42E0660F771F881F991F62
:101820004A95D1F70895CF92DF92EF92FF92CF932E
:10183000DF936B017C010E94F00BEB01C114D1041A
:10184000E104F10489F00E94190D0E94F00B6C1B59
:101850007D0B683E734090F381E0C81AD108E1081F
:10186000F108C851DC4FEACFDF91CF91FF90EF90A4
:10187000DF90CF9008958230910538F0880F991F3E
:10188000880F991F05970197F1F70895789484B50B
:10189000826084BD84B5816084BD85B5826085BD6C
:1018A00085B5816085BDEEE6F0E080818160808352
:1018B000E1E8F0E010828081826080838081816035
:1018C0008083E0E8F0E0808181608083E1EBF0E0FC
:1018D000808184608083E0EBF0E0808181608083A0
:1018E000EAE7F0E080818460808380818260808389
:1018F0008081816080838081806880831092C100B4
:101900000895833081F028F4813099F08230A1F07D
:1019100008958730A9F08830B9F08430D1F48091EF
:1019200080008F7D03C0809180008F77809380003E
:10193000089584B58F7702C084B58F7D84BD0895E6
:101940008091B0008F7703C08091B0008F7D80932D
:10195000B0000895CF93DF9390E0FC01E457FF4F70
:101960002491FC01E056FF4F8491882349F190E0D7
:10197000880F991FFC01E254FF4FA591B4918C543C
:101980009F4FFC01C591D4919FB7611108C0F89495
:101990008C91209582238C93888182230AC06230A7
:1019A00051F4F8948C91322F309583238C93888155
:1019B000822B888304C0F8948C91822B8C939FBFD8
:1019C000DF91CF9108950F931F93CF93DF931F92D1
:1019D000CDB7DEB7282F30E0F901E858FF4F8491EA
:1019E000F901E457FF4F1491F901E056FF4F0491BC
:1019F0000023C9F0882321F069830E94810C69814A
:101A0000E02FF0E0EE0FFF1FEC54FF4FA591B491D3
:101A10009FB7F8948C91611103C01095812301C088
:101A2000812B8C939FBF0F90DF91CF911F910F91CE
:101A300008950895A1E21A2EAA1BBB1BFD010DC03B
:101A4000AA1FBB1FEE1FFF1FA217B307E407F5076E
:101A500020F0A21BB30BE40BF50B661F771F881F4A
:101A6000991F1A9469F760957095809590959B01E0
:101A7000AC01BD01CF010895EE0FFF1F0590F49159
:101A8000E02D0994CF93DF938230910510F482E02A
:101A900090E0E0917D03F0917E0320E030E0A0E053
:101AA000B0E0309739F14081518148175907B8F0BB
:101AB0004817590771F482819381109729F0139682
:101AC0009C938E9312972CC090937E0380937D03FA
:101AD00027C02115310531F04217530718F0A9012D
:101AE000DB0101C0EF019A01BD01DF010280F3813A
:101AF000E02DD7CF21153105F9F0281B390B243003
:101B0000310580F48A819B816115710521F0FB010B
:101B10009383828304C090937E0380937D03FE01B0
:101B2000329644C0FE01E20FF31F8193919322503D
:101B30003109398328833AC020917B0330917C039B
:101B4000232B41F4209102013091030130937C0357
:101B500020937B0320910001309101012115310573
:101B600041F42DB73EB74091040150910501241B6B
:101B7000350BE0917B03F0917C03E217F307A0F4AF
:101B80002E1B3F0B2817390778F0AC014E5F5F4FD3
:101B90002417350748F04E0F5F1F50937C03409386
:101BA0007B038193919302C0E0E0F0E0CF01DF91ED
:101BB000CF910895CF93DF93009709F487C0FC017C
:101BC000329713821282C0917D03D0917E032097B9
:101BD00081F420813181280F391F80917B039091FE
:101BE0007C038217930779F5F0937C03E0937B03E2
:101BF0006DC0DE0120E030E0AE17BF0750F4129652
:101C00004D915C9113979D014115510509F1DA0140
:101C1000F3CFB383A28340815181840F951F8A172C
:101C20009B0771F48D919C911197840F951F0296DB
:101C30009183808312968D919C91139793838283D5
:101C40002115310529F4F0937E03E0937D033EC016
:101C5000D9011396FC93EE9312974D915D91A40FC9
:101C6000B51FEA17FB0779F480819181840F951FD6
:101C70000296D90111969C938E938281938113963B
:101C80009C938E931297E0E0F0E08A819B8100970D
:101C900019F0FE01EC01F9CFCE01029628813981BD
:101CA000820F931F20917B0330917C032817390703
:101CB00069F4309729F410927E0310927D0302C0DC
:101CC00013821282D0937C03C0937B03DF91CF9168
:101CD0000895A0E0B0E0EFE6FEE00C94500FEC01B8
:101CE000CB01209719F40E94420DB8C0FE01E60F07
:101CF000F71F9E0122503109E217F30708F4ACC028
:101D0000D9010D911C91119706171707B8F00530EE
:101D1000110508F49FC0A801445051094617570700
:101D200008F498C002501109061B170B0193119378
:101D30006D937C93CF010E94DA0D8CC05B01A01AD9
:101D4000B10A4E01800E911EA0917D03B0917E03D9
:101D5000612C712C60E070E0109709F449C0A8155F
:101D6000B905C9F5ED90FC901197670142E0C40EEA
:101D7000D11CCA14DB0478F147018A189B0864015E
:101D800042E0C40ED11C1296BC9012971396AC91EF
:101D9000B5E0CB16D10440F0B282A3839182808259
:101DA000D9018D939C9309C00E5F1F4F0E0D1F1D0F
:101DB000F90111830083EB2DFA2F6115710531F0C4
:101DC000DB011396FC93EE93129744C0F0937E03CD
:101DD000E0937D033FC06D917C9111976616770665
:101DE00008F43B01BD0112960D90BC91A02DB4CF1B
:101DF00060917B0370917C0368157905E9F468169E
:101E00007906D0F44091000150910101411551052E
:101E100041F44DB75EB76091040170910501461B16
:101E2000570BE417F507C0F4F0937C03E0937B03B2
:101E3000F901918380830EC00E94420D7C010097BE
:101E400059F0A801BE010E94330FCE010E94DA0DA5
:101E5000C70104C0CE0102C080E090E0CDB7DEB77C
:101E6000EEE00C946C0FFB01DC0102C001900D92BE
:101E700041505040D8F70895FB01DC018D9101904D
:101E800080190110D9F3990B0895FB01DC01019031
:101E90000D920020E1F708952F923F924F925F92AA
:101EA0006F927F928F929F92AF92BF92CF92DF926A
:101EB000EF92FF920F931F93CF93DF93CDB7DEB7CF
:101EC000CA1BDB0B0FB6F894DEBF0FBECDBF099463
:101ED0002A88398848885F846E847D848C849B84BA
:101EE000AA84B984C884DF80EE80FD800C811B81C8
:101EF000AA81B981CE0FD11D0FB6F894DEBF0FBEF7
:101F0000CDBFED01089510E0CEECD0E004C0FE019D
:101F10000E943E0D2296C03DD107C9F7F894FFCF2D
:101F200000007F0380007573723A00233A73657472
:101F300066616E0073746174653A006175746F0058
:101F4000233A006B726973746F66657200332E31C9
:101F50003431350073746566616E0066726F626558
:101F60007274006861756B7572007468696E6B706D
:101F700061640067756573740032302043006F66DA
:101F80006600736C6F77006E6F726D616C006661D6
:101F90007374006C6F676F75740077686F616D693B
:101FA0000074656D700067657466616E006D616ECA
:101FB00075616C002020202020202020202020205F
:101FC00020202020007077643A000000000079058E
:101FD0004C05210529053C054B0500000000810743
:101FE000710900000000050871098707A007920722
:101FF000E3070D0A006E616E00696E66006F76661B
:04200000002E0000AE
:00000001FF
