:100000000C945F000C9487000C9487000C9487007C
:100010000C9487000C9487000C9487000C94870044
:100020000C9487000C9487000C9487000C94870034
:100030000C9487000C9487000C9487000C94870024
:100040000C9445070C9487000C9431050C946305BF
:100050000C9487000C9487000C9487000C94870004
:100060000C9487000C948700000000080002010037
:100070000003040700000000000000000102040863
:100080001020408001020408102001020408102002
:10009000040404040404040402020202020203032E
:1000A0000303030300000000250028002B000000CC
:1000B0000000240027002A007201930590011124FA
:1000C0001FBECFEFD8E0DEBFCDBF11E0A0E0B1E0B2
:1000D000EEE5F6E102C005900D92AC38B107D9F714
:1000E00022E0ACE8B1E001C01D92AE35B207E1F705
:1000F00010E0CCEBD0E004C02297FE010E94DD08A6
:10010000C83BD107C9F70E9436070C94220B0C9408
:1001100000008CE991E00E94E4028CE891E00E94EA
:100120003702059719F467E171E002C06CE171E0F4
:100130008CE991E00C94220620E042E060E18CE939
:1001400091E00E94050340E060E08CE991E00E94AC
:10015000EB0226E040E855E260E070E084EB91E0DD
:100160000E94CF0465E070E08CE891E00E943302C9
:100170000C9489006FE171E080E991E00E9416071C
:100180008823C9F069E271E086E991E00E941607D0
:10019000882319F060E070E002C065E070E08CE850
:1001A00091E00E9433026DE671E086E991E00E94E1
:1001B000BF060C94890060E371E080E991E00E9441
:1001C0001607882319F067E371E0DECF6FE371E073
:1001D00080E991E00E9416078823F9F26FE371E04D
:1001E000D3CF66E971E08CE991E00E94140641E00A
:1001F00060E08CE991E00E94EB0260E971E08CE93B
:1002000091E00E9414066CED75E080E090E00E94A1
:10021000B20760E070E08CE891E00C94330266E98C
:1002200071E08CE991E00E94140641E060E08CE905
:1002300091E00E94EB0265E471E08CE991E00E949C
:1002400022066CED75E080E090E00E94B20760E06D
:1002500070E08CE891E00C9433026AE471E086E986
:1002600091E00E941607882339F064E070E08CE882
:1002700091E00E9433022EC061E571E086E991E0D1
:100280000E941607882319F00E94F10023C068E538
:1002900071E086E991E00E941607882319F00E9418
:1002A0000F0118C066E971E08CE991E00E94140624
:1002B0006DE571E08CE991E00E94220660E070E05B
:1002C0008CE891E00E94330268EE73E080E090E0F9
:1002D0000E94B2076DE671E086E991E00E94BF06D8
:1002E0000C948900CF92EF920F9382E0C82E93E096
:1002F000E92E04E025E04BE06CE08CE991E00E94FF
:10030000C0036DE671E086E991E00E9492066DE619
:1003100071E080E991E00F91EF90CF900C949206FC
:1003200080E991E00E94240686E991E00C9424067D
:1003300084EB91E00E94EC03892BB9F184EB91E00E
:100340000E9405048A3059F566E971E080E991E080
:100350000E94A8066DE671E086E991E00E94BF0662
:1003600062E070E08CE891E00E94330260E971E0A5
:100370008CE991E00E94140660E671E08CE991E05E
:100380000E94220641E060E08CE991E00E94EB02CD
:100390006EE671E08CE991E00E942206C9CF682FD9
:1003A00086E991E00E940307C3CF089584EB91E0B2
:1003B0000E94EC03892B99F084EB91E00E940504E4
:1003C0008A3039F463E070E08CE891E00E943302F7
:1003D000EDCF682F86E991E00E940307E7CF0895EB
:1003E00084EB91E00E94EC03892B99F084EB91E07F
:1003F0000E9405048A3039F461E070E08CE891E0F5
:100400000E943302EDCF682F86E991E00E94030736
:10041000E7CF08958CE891E00E9437028230910581
:1004200091F02CF4009751F0019751F00895843029
:10043000910569F054F0059791F008950C94F0013E
:100440000E942D010AC00C94D6010C94BA0065E0FC
:1004500070E08CE891E00E9433020C9489000C94C7
:1004600098010C940A02FC01718360830895FC01D9
:10047000808191810895CF93DF93EC0160E08E81BC
:100480000E94820881E090E00E94DA0761E08E819C
:100490000E94820881E090E00E94DA0760E08E818D
:1004A0000E94820884E690E0DF91CF910C94DA07F5
:1004B000CF92DF92EF92FF920F931F93CF93DF9330
:1004C0007C01C0E0D0E0C62ED12C87010C0F1D1F8F
:1004D00061E0F80187810E944908B6010C2E02C034
:1004E000759567950A94E2F76170F80187810E941B
:1004F00082082196C430D10541F7C701DF91CF9121
:100500001F910F91FF90EF90DF90CF900C943B02E2
:10051000CF92DF92EF92FF920F931F93CF93DF93CF
:100520007C01C0E0D0E0C62ED12C87010C0F1D1F2E
:1005300061E0F80187810E944908B6010C2E02C0D3
:10054000759567950A94E2F76170F80187810E94BA
:1005500082082196C830D10541F7C701DF91CF91BC
:100560001F910F91FF90EF90DF90CF900C943B0282
:100570001F93CF93DF93EC01162F642F8C810E9481
:1005800082088D818F3F19F060E00E9482088F857C
:10059000612F84FF06C0CE01DF91CF911F910C9493
:1005A000880270E084E0759567958A95E1F7CE0141
:1005B0000E945802612FCE01DF91CF911F910C94C0
:1005C000580240E00C94B80261E00E94E10280ED24
:1005D00097E00C94DA07443008F043E0FC012389EB
:1005E000421710F04FEF420FFC01E40FF11D248978
:1005F000260F2068622F0C94E102FC016089262FEF
:100600002460208B6C600C94E102CF93DF93EC01AB
:10061000423018F08F8588608F874B8B1C8A80E46E
:100620008D8B6E8B70E0605C7F4F6F8B222329F087
:10063000413019F48F8584608F8780E593EC0E94A8
:10064000DA0760E08C810E94820860E08E810E945F
:1006500082088D818F3F19F060E00E9482086F85CB
:1006600064FD1DC063E0CE010E94580284E991E15F
:100670000E94DA0763E0CE010E94580284E991E10A
:100680000E94DA0763E0CE010E94580286E990E0FA
:100690000E94DA0762E0CE010E94580216C0606232
:1006A000CE010E94E10284E991E10E94DA076F85A0
:1006B0006062CE010E94E10286E990E00E94DA07C2
:1006C0006F856062CE010E94E1026F856062CE019B
:1006D0000E94E10284E0888BCE010E94FD02CE01DF
:1006E0000E94E40282E0898B66E0CE01DF91CF9127
:1006F0000C94E1026F927F928F92AF92CF92EF9221
:100700000F931F93CF93DF93CDB7DEB73C01162F26
:10071000842F5D854E853F859889F30184832583E9
:100720000683E782C086A186828653874487358701
:10073000968761E00E944908F30185818F3F19F097
:1007400061E00E94490861E0F30186810E94490846
:10075000112319F0F301178603C080E1F3018787A5
:1007600020E041E060E1C301DF91CF911F910F9143
:10077000EF90CF90AF908F907F906F900C94050387
:100780008F92AF92CF92EF920F93DC0113961C924F
:100790001E921297E7E7F1E0ED93FC931F921F92F0
:1007A0001F921F928C2CAE2CC02EE22E042F2FEF06
:1007B000462F61E00E947A030F900F900F900F90E8
:1007C0000F91EF90CF90AF908F90089541E00E94ED
:1007D000B80281E090E00895FC01818D228D90E0C7
:1007E000805C9F4F821B91098F7399270895FC01AC
:1007F000918D828D981731F0828DE80FF11D858DD6
:1008000090E008958FEF9FEF0895FC01918D828D08
:10081000981761F0828DDF01A80FB11D5D968C9154
:10082000928D9F5F9F73928F90E008958FEF9FEF5F
:10083000089589E895E0892B49F080E090E0892BC4
:1008400029F00E94890581110C9400000895FC0193
:10085000848DDF01A80FB11DA35ABF4F2C91848D49
:1008600090E001968F739927848FA689B7892C937E
:10087000A089B1898C9180648C93938D848D981319
:1008800006C00288F389E02D80818F7D80830895E2
:10089000CF93DF93EC01888D8823C9F0EA89FB8927
:1008A000808185FD05C0A889B9898C9186FD0FC01E
:1008B0000FB607FCF5CF808185FFF2CFA889B989F3
:1008C0008C9185FFEDCFCE010E942704E7CFDF9109
:1008D000CF910895CF92DF92FF920F931F93CF9302
:1008E000DF931F92CDB7DEB76C0181E0D601589639
:1008F0008C9358975B969C915B975C968C915C97D8
:10090000981307C05096ED91FC915197808185FD19
:100910002EC0F601038D10E00F5F1F4F0F731127DC
:10092000F02EF601848DF81211C00FB607FCF9CF36
:10093000D6015096ED91FC915197808185FFF1CFC2
:10094000C60169830E9427046981EBCF838DE80F7C
:10095000F11DE35AFF4F6083D6015B960C935B97C2
:100960005296ED91FC915397808180620CC0D60124
:100970005696ED91FC91579760835096ED91FC91BE
:10098000519780818064808381E090E00F90DF91B7
:10099000CF911F910F91FF90DF90CF900895BF925C
:1009A000CF92DF92EF92FF92CF93DF93EC016A0137
:1009B0007B01B22EE889F98982E08083411581EEBE
:1009C000580761057105A1F060E079E08DE390E0E2
:1009D000A70196010E94B908215031094109510926
:1009E0005695479537952795211580E1380798F05A
:1009F000E889F989108260E874E88EE190E0A70147
:100A000096010E94B90821503109410951095695B2
:100A1000479537952795EC85FD853083EE85FF85D5
:100A20002083188EEC89FD89B082EA89FB89808158
:100A300080618083EA89FB89808188608083EA897C
:100A4000FB89808180688083EA89FB8980818F7D32
:100A50008083DF91CF91FF90EF90DF90CF90BF9098
:100A600008951F920F920FB60F9211242F938F9318
:100A70009F93EF93FF93E091C401F091C5018081B2
:100A8000E091CA01F091CB0182FD12C0908180916A
:100A9000CD018F5F8F732091CE01821751F0E091CD
:100AA000CD01F0E0EC54FE4F958F8093CD0101C055
:100AB0008081FF91EF919F918F912F910F900FBEA9
:100AC0000F901F9018951F920F920FB60F9211243E
:100AD0002F933F934F935F936F937F938F939F9346
:100AE000AF93BF93EF93FF9384EB91E00E942704B1
:100AF000FF91EF91BF91AF919F918F917F916F91F6
:100B00005F914F913F912F910F900FBE0F901F90CB
:100B1000189584EB91E00E94EC0321E0892B09F405
:100B200020E0822F08951092B7011092B60188EE4E
:100B300093E0A0E0B0E08093B8019093B901A09356
:100B4000BA01B093BB018FE791E09093B501809318
:100B5000B40185EC90E09093C1018093C00184ECD6
:100B600090E09093C3018093C20180EC90E0909359
:100B7000C5018093C40181EC90E09093C7018093FC
:100B8000C60182EC90E09093C9018093C80186EC85
:100B900090E09093CB018093CA011092CD01109206
:100BA000CE011092CF011092D0010895CF92DF9222
:100BB000EF92FF920F931F93CF93DF936C017A0113
:100BC000EB01E60EF71E00E010E0CE15DF0561F048
:100BD0006991D601ED91FC910190F081E02DC60163
:100BE0000995080F191FF1CFC801DF91CF911F910F
:100BF0000F91FF90EF90DF90CF90089561157105F0
:100C000081F0DB010D900020E9F7AD014150510961
:100C1000461B570BDC01ED91FC910280F381E02D26
:100C2000099480E090E00895DC01ED91FC91DB01F6
:100C300014964D915C9115976D917C910280F38192
:100C4000E02D09940C94FE05FC01808191810C94A7
:100C50007909CF93DF93EC0188819981009711F096
:100C60000E947909198218821D821C821B821A82B5
:100C7000DF91CF9108950F931F93CF93DF93EC01F2
:100C80008B016F5F7F4F888199810E94080A0097CE
:100C900031F0998388831B830A8381E001C080E05F
:100CA000DF91CF911F910F910895CF93DF93EC01C6
:100CB00088819981892B29F08A819B8186179707E2
:100CC00060F4CE010E943B06882341F08C819D8117
:100CD000892B19F4E881F981108281E0DF91CF91AD
:100CE0000895EF92FF920F931F93CF93DF93EC0140
:100CF0007B018A01BA010E945506811104C0CE0110
:100D00000E94290607C01D830C83B7018881998141
:100D10000E94E40ACE01DF91CF911F910F91FF90C5
:100D2000EF900895FC0111821082138212821582C5
:100D300014826115710559F0FB0101900020E9F75B
:100D4000AF0141505109461B570B0C947106089591
:100D5000CF93DF93EC01FB018617970761F0608169
:100D600071816115710529F0448155810E947106D8
:100D700002C00E942906CE01DF91CF910895CF9342
:100D8000DF93EC016115710561F0FB01019000201A
:100D9000E9F7AF0141505109461B570B0E947106FC
:100DA00002C00E942906CE01DF91CF910895EF92F3
:100DB000FF920F931F93CF93DF93EC017B010C8184
:100DC0001D816115710511F480E016C041155105B2
:100DD00091F0040F151FB8010E9455068823A1F356
:100DE000288139818C819D81B701820F931F0E94D8
:100DF000E40A1D830C8381E0DF91CF911F910F9155
:100E0000FF90EF900895CF93DF9300D0CDB7DEB77A
:100E100069831A8241E050E0BE016F5F7F4F0E94FC
:100E2000D7060F900F90DF91CF910895FC01248198
:100E30003581232B31F421E061157105A1F0FB010F
:100E400008C0FC01808191816115710531F421E0B8
:100E5000FC018081882339F005C00E94DB0A21E073
:100E6000892B09F020E0822F089508950E94E5075C
:100E70000E9435070E949C00C9E1D4E00E94310223
:100E80002097E1F30E941904F9CF1F920F920FB639
:100E90000F9211242F933F938F939F93AF93BF9300
:100EA0008091520290915302A0915402B091550248
:100EB0003091510223E0230F2D3720F40196A11D1C
:100EC000B11D05C026E8230F0296A11DB11D209378
:100ED00051028093520290935302A0935402B09314
:100EE00055028091560290915702A0915802B091FC
:100EF00059020196A11DB11D80935602909357028D
:100F0000A0935802B0935902BF91AF919F918F91D6
:100F10003F912F910F900FBE0F901F9018953FB7E4
:100F2000F8948091560290915702A0915802B09186
:100F3000590226B5A89B05C02F3F19F00196A11DA7
:100F4000B11D3FBF6627782F892F9A2F620F711D21
:100F5000811D911D42E0660F771F881F991F4A95DA
:100F6000D1F70895CF92DF92EF92FF92CF93DF9364
:100F70006B017C010E948F07EB01C114D104E104D5
:100F8000F10489F00E94B8080E948F076C1B7D0B4A
:100F9000683E734090F381E0C81AD108E108F10877
:100FA000C851DC4FEACFDF91CF91FF90EF90DF90F7
:100FB000CF9008958230910538F0880F991F880FDF
:100FC000991F05970197F1F70895789484B5826089
:100FD00084BD84B5816084BD85B5826085BD85B5DD
:100FE000816085BDEEE6F0E0808181608083E1E88C
:100FF000F0E01082808182608083808181608083C4
:10100000E0E8F0E0808181608083E1EBF0E08081C6
:1010100084608083E0EBF0E0808181608083EAE798
:10102000F0E0808184608083808182608083808121
:10103000816080838081806880831092C1000895E0
:10104000833081F028F4813099F08230A1F0089546
:101050008730A9F08830B9F08430D1F480918000D5
:101060008F7D03C0809180008F77809380000895EA
:1010700084B58F7702C084B58F7D84BD089580913B
:10108000B0008F7703C08091B0008F7D8093B00057
:101090000895CF93DF9390E0FC01E458FF4F249133
:1010A000FC01E057FF4F8491882349F190E0880FBD
:1010B000991FFC01E255FF4FA591B4918C559F4FAC
:1010C000FC01C591D4919FB7611108C0F8948C912F
:1010D000209582238C93888182230AC0623051F448
:1010E000F8948C91322F309583238C938881822BB6
:1010F000888304C0F8948C91822B8C939FBFDF91DE
:10110000CF9108950F931F93CF93DF931F92CDB785
:10111000DEB7282F30E0F901E859FF4F8491F9013B
:10112000E458FF4F1491F901E057FF4F0491002359
:10113000C9F0882321F069830E9420086981E02F8B
:10114000F0E0EE0FFF1FEC55FF4FA591B4919FB754
:10115000F8948C91611103C01095812301C0812BFB
:101160008C939FBF0F90DF91CF911F910F910895A6
:101170000895A1E21A2EAA1BBB1BFD010DC0AA1FD8
:10118000BB1FEE1FFF1FA217B307E407F50720F0F0
:10119000A21BB30BE40BF50B661F771F881F991F6B
:1011A0001A9469F760957095809590959B01AC01B4
:1011B000BD01CF010895EE0FFF1F0590F491E02DC2
:1011C0000994CF93DF938230910510F482E090E090
:1011D000E0915C02F0915D0220E030E0A0E0B0E040
:1011E000309739F14081518148175907B8F04817B5
:1011F000590771F482819381109729F013969C937B
:101200008E9312972CC090935D0280935C0227C04E
:101210002115310531F04217530718F0A901DB0100
:1012200001C0EF019A01BD01DF010280F381E02DD1
:10123000D7CF21153105F9F0281B390B24303105A2
:1012400080F48A819B816115710521F0FB019383F4
:10125000828304C090935D0280935C02FE0132960B
:1012600044C0FE01E20FF31F819391932250310994
:10127000398328833AC020915A0230915B02232B94
:1012800041F4209102013091030130935B022093DD
:101290005A0220910001309101012115310541F4DC
:1012A0002DB73EB74091040150910501241B350B29
:1012B000E0915A02F0915B02E217F307A0F42E1BB3
:1012C0003F0B2817390778F0AC014E5F5F4F2417AA
:1012D000350748F04E0F5F1F50935B0240935A0250
:1012E0008193919302C0E0E0F0E0CF01DF91CF91D4
:1012F0000895CF93DF93009709F487C0FC013297DC
:1013000013821282C0915C02D0915D02209781F419
:1013100020813181280F391F80915A0290915B0200
:101320008217930779F5F0935B02E0935A026DC040
:10133000DE0120E030E0AE17BF0750F412964D9169
:101340005C9113979D014115510509F1DA01F3CF25
:10135000B383A28340815181840F951F8A179B0715
:1013600071F48D919C911197840F951F0296918332
:10137000808312968D919C9113979383828321157C
:10138000310529F4F0935D02E0935C023EC0D9017F
:101390001396FC93EE9312974D915D91A40FB51F98
:1013A000EA17FB0779F480819181840F951F0296DB
:1013B000D90111969C938E938281938113969C936D
:1013C0008E931297E0E0F0E08A819B81009719F0FC
:1013D000FE01EC01F9CFCE01029628813981820FFE
:1013E000931F20915A0230915B022817390769F444
:1013F000309729F410925D0210925C0202C01382B1
:101400001282D0935B02C0935A02DF91CF9108956C
:10141000A0E0B0E0EEE0FAE00C94EF0AEC01CB01C2
:10142000209719F40E94E108B8C0FE01E60FF71FEB
:101430009E0122503109E217F30708F4ACC0D9012C
:101440000D911C91119706171707B8F0053011057B
:1014500008F49FC0A801445051094617570708F4E3
:1014600098C002501109061B170B019311936D933D
:101470007C93CF010E9479098CC05B01A01AB10A4C
:101480004E01800E911EA0915C02B0915D02612C14
:10149000712C60E070E0109709F449C0A815B905F7
:1014A000C9F5ED90FC901197670142E0C40ED11C84
:1014B000CA14DB0478F147018A189B08640142E0F2
:1014C000C40ED11C1296BC9012971396AC91B5E045
:1014D000CB16D10440F0B282A38391828082D901DD
:1014E0008D939C9309C00E5F1F4F0E0D1F1DF901B8
:1014F00011830083EB2DFA2F6115710531F0DB01AB
:101500001396FC93EE93129744C0F0935D02E09320
:101510005C023FC06D917C9111976616770608F4C6
:101520003B01BD0112960D90BC91A02DB4CF6091EE
:101530005A0270915B0268157905E9F4681679061C
:10154000D0F440910001509101014115510541F441
:101550004DB75EB76091040170910501461B570BB2
:10156000E417F507C0F4F0935B02E0935A02F90127
:10157000918380830EC00E94E1087C01009759F09E
:10158000A801BE010E94D20ACE010E947909C701BA
:1015900004C0CE0102C080E090E0CDB7DEB7EEE03F
:1015A0000C940B0BFB01DC0102C001900D92415029
:1015B0005040D8F70895FB01DC018D91019080190E
:1015C0000110D9F3990B0895FB01DC0101900D92F4
:1015D0000020E1F708952F923F924F925F926F9211
:1015E0007F928F929F92AF92BF92CF92DF92EF92B3
:1015F000FF920F931F93CF93DF93CDB7DEB7CA1B34
:10160000DB0B0FB6F894DEBF0FBECDBF09942A885E
:10161000398848885F846E847D848C849B84AA8406
:10162000B984C884DF80EE80FD800C811B81AA8193
:10163000B981CE0FD11D0FB6F894DEBF0FBECDBF5E
:10164000ED01089510E0CCEBD0E004C0FE010E9453
:0E165000DD082296CE3BD107C9F7F894FFCFF4
:10165E0000005E0280004175746F6D6174696320D5
:10166E0073746174652E007573723A00233A006BC1
:10167E00726973746F66657200332E3134313500C2
:10168E0073746566616E0066726F62657274006770
:10169E00756573740032302043006C6F676F75741C
:1016AE000077686F616D690074656D700020202091
:1016BE002020202020202020202020202000707795
:1016CE00643A0000000000E603D605000000006A40
:0C16DE0004D605EC030504F703480400E3
:00000001FF
